:1000000046C1000060C100005EC100005CC100008C
:100010005AC1000058C1000056C1000054C1000080
:1000200052C1000050C100004EC100000C94730981
:100030004AC10000DAC1000046C1000078C70000D4
:1000400042C1000040C100003EC100003CC10000B0
:100050003AC1000038C1000036C1000034C10000C0
:1000600032C1000030C100002EC100002CC10000D0
:100070002AC1000031024F024F02CC02CC027B02A7
:10008000CC02CC02CC029F02CC02CC02CC02CC022D
:10009000CC02B202B402BC02B602B902B602B90284
:1000A000C102BE02C102BE02BE02BE02C4021201F1
:1000B0001001FF000010EB03042100020102030104
:1000C0000902200001010080320904000002FF0043
:1000D00000000705820240000A0705020240000AEC
:1000E0000403090418034400650061006E00200049
:1000F000430061006D0065007200610000002E0386
:100100004C005500460041002000410056005200BE
:1001100049005300500020004D006B004900490089
:10012000200043006C006F006E00650000001C039F
:10013000300030003000300041003000300031002D
:1001400032003800320035003500000009000A0096
:100150000A000B000C000D000D000E000F00100037
:1001600010001200130013001400160016001800EF
:1001700019001A001C001D001F002000220023008F
:100180002500270029002B002E003000320034000B
:1001900037003A003D004000430046004A004E0050
:1001A000520055005A005E00630068006D00730045
:1001B00078007E0084008B0091009900A000A900C7
:1001C000B100B900C300CC00D600E100EC00F7009C
:1001D000040111011E012D013B014B015B016C016A
:1001E0007D019101A501BA01CF01E601FE011602D0
:1001F00031024C026A028802A802CA02ED0211030F
:10020000380360038B03B803E70318044B0481042D
:10021000B904F50434057505B90501064E069D06B9
:10022000EF064807A30704086508D0084009B60987
:100230002B0AAB0A300BC30B510CEE0C8F0D400E8A
:10024000F60EAF0F681047111412F512ED13E214F9
:10025000F015F9161B185C19911AE51B251D831E54
:100260000320AB21302332250F27F128F82A1A2D3D
:10027000492FA1311434A1364539173C1A3F344275
:100280006045DF48704C40004101424303001124A7
:100290001FBECFEFD2E0DEBFCDBF11E0A0E0B1E0E6
:1002A000E4E8F9E102C005900D92AA32B107D9F74E
:1002B00011E0AAE2B1E001C01D92AB33B107E1F752
:1002C0004CD00C94C00C9CCE85B18F71806C85B9DC
:1002D000089585B18F71806485B908958EB3843097
:1002E00089F48CD182E08093E9008091E80082FF5C
:1002F00009C085B18F71806C85B98DD085B18F7142
:10030000806885B9089582E060E842E346D780FDC1
:1003100002C090E401C090E885B18F71982B95B927
:10032000089584B7877F84BF88E10FB6F8948093DF
:100330006000109260000FBE80E090E020E80FB6F1
:10034000F89420936100809361000FBE84B1806EA9
:1003500084B985B18F7185B9B7C7E3DF4DD185B158
:100360008F71806485B97894489902C090E201C089
:1003700090E085B18F7D982B95B9B0DF0E94940CE9
:10038000F3CFDA01923049F0933061F0913029F5E2
:10039000EEEAF0E022E130E024C0E0ECF0E020E220
:1003A00030E01FC0813059F0813028F0823059F0A0
:1003B000833099F40CC0E0EEF0E084910BC0E4EEE1
:1003C000F0E0849107C0EEEFF0E0849103C0EEE22C
:1003D000F1E08491282F30E004C0E0E0F0E020E07C
:1003E00030E0ED93FC93C90108951F920F920FB670
:1003F0000F9211248F9381E08ABD88E10FB6F894A3
:1004000080936000109260000FBE8F910F900FBE1E
:100410000F901F901895FF920F931F931091F1006A
:100420001ABC2EE088E190E00FB6F894A89580936E
:1004300060000FBE20936000809160008064809314
:100440006000812F90E0FC013197ED31F10508F05B
:10045000A3C0E65CFF4FEE0FFF1F0590F491E02D67
:1004600009948091E8008B778093E80082E0809384
:10047000E9008091EC0081608093EC0081E0809342
:10048000F1001092F1008AE08093F10080E091E0A9
:100490006AE070E040E050E00E94420C93C000919E
:1004A000F100123011F0FF2402C0F090F1008091B1
:1004B000E8008B778093E80082E08093E9008091E8
:1004C000EC0081608093EC001093F100802FAFD09E
:1004D000123041F481FF0DC01092F100802F6F2D7A
:1004E000AED070C080FF05C01092F100802F97D071
:1004F00067C080EC65C08DE291E064E070E040E0B0
:1005000050E00E949E0B8091E8008B778093E8007A
:1005100082E08093E9008091EC0081608093EC00A0
:1005200080912D0190912E01A0912F01B091300169
:10053000B7FF03C081E080932C0186E00EC080915C
:10054000E8008B778093E80082E08093E900809157
:10055000EC0081608093EC008AE08093F1001092BF
:10056000F10030C048D433C013D431C0812FE3D25E
:100570002EC0812F36D22BC0E6D129C0812FE0D0EA
:1005800026C0812F97D023C046D121C08091E8009A
:100590008B778093E80033D68091F2008034B1F3FA
:1005A0008091E8008B778093E80082E08093E900F7
:1005B0008091EC0081608093EC001093F10089EC55
:1005C0008093F1008091E8008E778093E80088E1C5
:1005D0000FB6F89480936000109260000FBE0FD6A3
:1005E00082E08093E9008091EC008E7F8093EC00A4
:1005F0001F910F91FF90089535D0C5C40895982F8D
:10060000EBE0F1E08081981741F081E0E632F807F5
:1006100011F03396F7CFE0E0F0E0CF010895EFDF7F
:10062000FC01009711F480E0089582810895E7DFCE
:10063000FC01009711F480E00895818108950F93E3
:100640001F93182F062FDBDFFC01009741F0028378
:100650001E3929F480E090E0602F0E94AE0C1F91BB
:100660000F9108950F931F938EE9C9DF8C0180E0ED
:1006700090E00E94A60CF80182831F910F910895CB
:10068000282F40EA5FE003C0CA010197F1F7222357
:1006900021F08AB521508823B9F30895982F8091CD
:1006A0002901882329F09EBD0DB407FEFDCF0895D2
:1006B000892FA9C4DF92EF92FF920F931F93DF93CC
:1006C000CF9300D000D0CDB7DEB7D82E8E010F5F0C
:1006D0001F4FC80164E070E040E050E00E94F00B62
:1006E0008091E8008B778093E80082E08093E900B6
:1006F0008091EC0081608093EC0085E0E82EF12C85
:10070000EC0EFD1EF80181918F01C8DF0E151F054B
:10071000C9F7D092F1001092F1001092F10080918F
:10072000E8008E778093E8000F900F900F900F9065
:10073000CF91DF911F910F91FF90EF90DF9008957F
:10074000BF92CF92DF92EF92FF920F931F93DF93AE
:10075000CF93CDB7DEB729970FB6F894DEBF0FBEA3
:10076000CDBFB82ECE01059665E070E040E050E0C8
:100770000E94F00B8091E8008B778093E80082E084
:100780008093E9008091EC0081608093EC008E0101
:100790000A5F1F4F7E010894E11CF11C9AE0C92EEC
:1007A000D12CCC0EDD1EF801908180912901882387
:1007B00031F09EBD0DB407FEFDCF8EB502C0892F6E
:1007C00022D4F70181937F010F5F1F4F0C151D0588
:1007D00051F7B092F1001092F1008D81FE01E80F07
:1007E000F11D80818093F1001092F1008091E8006A
:1007F0008E778093E80029960FB6F894DEBF0FBE7F
:10080000CDBFCF91DF911F910F91FF90EF90DF90BF
:10081000CF90BF900895EF92FF920F931F93DF93B5
:10082000CF93CDB7DEB7C250D1400FB6F894DEBF3C
:100830000FBECDBFCE01019663E070E040E050E016
:10084000CFD734E0E32EF12CEC0EFD1E6981C701F9
:1008500070E040E050E0C4D78091E8008B7780934F
:10086000E80082E08093E9008091EC008160809351
:10087000EC008DE18093F1001092F10000E00BC0DC
:100880008981081728F4F701E00FF11D808101C06C
:1008900080E004DF0F5F8B81081790F310E024E005
:1008A000E22EF12CEC0EFD1E2BC0898190912901C6
:1008B000081778F4F701E00FF11D8081992331F0DA
:1008C0008EBD0DB407FEFDCF8EB501C09CD30F5F6A
:1008D0000AC0992331F01EBC0DB407FEFDCF8EB5C2
:1008E00002C080E090D38093F1008091E80085FD04
:1008F00006C08091E8008E778093E80080D41F5F67
:100900008A81181790F21092F1009091E80080917E
:10091000E8008E778093E80095FD07C070D4809141
:10092000E8008E778093E8006AD4CE5FDE4F0FB682
:10093000F894DEBF0FBECDBFCF91DF911F910F9115
:10094000FF90EF900895EF92FF920F931F93DF9324
:10095000CF9300D000D000D0CDB7DEB7CE01019646
:1009600066E070E040E050E03BD78091E8008B7794
:100970008093E80082E08093E9008091EC00816040
:100980008093EC008E010D5F1F4F47E0E42EF12CA9
:10099000EC0EFD1EF80181918F0180DE0E151F0502
:1009A000C9F78A81882321F489816ADE90E002C038
:1009B00055D3982F82E18093F1009093F1008091BC
:1009C000E8008E778093E80026960FB6F894DEBF95
:1009D0000FBECDBFCF91DF911F910F91FF90EF9090
:1009E0000895DF92EF92FF920F931F93DF93CF93BF
:1009F00000D00F92CDB7DEB7F82ECE01019663E09E
:100A000070E040E050E0ECD699818A8189839A8336
:100A10008091E8008B778093E80082E08093E90082
:100A20008091EC0081608093EC00F092F1001092D4
:100A3000F10000E010E068E0D62EEE24E39458C008
:100A400080912C01882319F024D310922C018B81E2
:100A500025DE80912D0190912E01A0912F01B09162
:100A60003001892F9A2FAB2FBB2718DE80912D01E3
:100A700015DE80912901882331F01EBC0DB407FEDC
:100A8000FDCF8EB502C080E0BED28093F100809190
:100A9000E80085FD06C08091E8008E778093E8002D
:100AA000AED324E1F21619F48B818D258B8300FDE2
:100AB00003C086E1F816D1F480912D0190912E01AA
:100AC000A0912F01B09130010196A11DB11D80931D
:100AD0002D0190932E01A0932F01B093300126E1B8
:100AE000F21621F0892B11F4E0922C010F5F1F4FB9
:100AF00089819A810817190708F4A2CF1092F10092
:100B00009091E8008091E8008E778093E80095FD51
:100B100007C075D38091E8008E778093E8006FD38B
:100B20000F900F900F90CF91DF911F910F91FF9039
:100B3000EF90DF9008954F925F926F927F928F9225
:100B40009F92AF92BF92CF92DF92EF92FF920F935C
:100B50001F93DF93CF93CDB7DEB7C950D1400FB607
:100B6000F894DEBF0FBECDBF182FCE01019669E00D
:100B700070E040E050E034D66A81798181E06130F4
:100B8000780798F08091E8008B778093E80082E006
:100B90008093E9008091EC0081608093EC001093D9
:100BA000F10080EC8093F100D6C07A836983CE0196
:100BB0000A9640E050E014D689819A810A968F7394
:100BC0009070892B31F48091E8008B778093E80056
:100BD00016D38091E8008B778093E80082E08093C1
:100BE000E9008091EC0081608093EC00133111F4F6
:100BF000888401C0898460902D0170902E01EE24BC
:100C0000FF24FAE0AF2EB12CAC0EBD1ECC24DD24A7
:100C1000E8E04E2E552453946DC0F50190800B8171
:100C200080912C01882319F034D210922C018D81EF
:100C300035DD80912D0190912E01A0912F01B09171
:100C40003001892F9A2FAB2FBB2728DD80912D01F2
:100C500025DD892D23DD133119F48D8184258D83C4
:100C6000E114F10481F4981471F0C0FE05C0133151
:100C700019F48F81886002C08F81877F8F83E09015
:100C80002D01F0902E0100FD12C0E114F10421F4B9
:100C900003FD02C0097F0260802FB701482D2C811F
:100CA0000F8100D2282F882361F5EE24FF24C0FC99
:100CB00002C01531C9F480912D0190912E01A091AF
:100CC0002F01B09130010196A11DB11D80932D011E
:100CD00090932E01A0932F01B0933001153121F094
:100CE000892B11F450922C010894A11CB11C08947A
:100CF000C11CD11C89819A81C816D90608F48DCFF0
:100D000020E08B8187FF23C08E81C8DC872DC6DC65
:100D1000862DC4DC80E0C2DC8B8185FF06C0E11437
:100D2000F10419F48F7C80618B838B81B701482D8E
:100D30002C810F81B7D1282F133149F480912D01D7
:100D400090912E01892B19F481E080932C0110934E
:100D5000F1002093F1008091E8008E778093E80005
:100D6000C75FDE4F0FB6F894DEBF0FBECDBFCF9189
:100D7000DF911F910F91FF90EF90DF90CF90BF9088
:100D8000AF909F908F907F906F905F904F9008955D
:100D90000F931F93DF93CF9300D0CDB7DEB7CE0173
:100DA000019662E070E040E050E01AD508EE10E0F5
:100DB000F80180818B77808382E08093E900ECEEFC
:100DC000F0E080818160808389815ADC80E0ADD150
:100DD000EED08A8155DCE1EFF0E081E18083108282
:100DE000F80180818E7780830F900F90CF91DF91F3
:100DF0001F910F9108956F927F928F929F92AF9261
:100E0000BF92DF92EF92FF920F931F93DF93CF93E6
:100E1000CDB7DEB72F970FB6F894DEBF0FBECDBFAC
:100E2000CE0105966BE070E040E050E0D9D48091AF
:100E3000E8008B778093E80082E08093E90080915E
:100E4000EC0081608093EC0010922D0110922E0135
:100E500010922F01109230018F8112DC72D181E04B
:100E600064D110ECD12EBCE06B2E712C6C0E7D1E6B
:100E70004E010894811C911CA0E1AA2EB12CAC0E4D
:100E8000BD1E2AC08985FCDBF80190818091290173
:100E9000882331F09EBD0DB407FEFDCF8EB502C094
:100EA000892FB1D0F70181937F010F5F1F4F0A1582
:100EB0001B0541F78B85882371F0FE01E80FF11DBA
:100EC00090818A85981739F080E02FD18E81D8DB08
:100ED00081E02BD101C0DD249885992351F0DD20DC
:100EE00041F08AB5882329F49150988783017401D1
:100EF000C9CF80E18093F100D092F1008091E800A9
:100F00008E778093E8002F960FB6F894DEBF0FBE61
:100F1000CDBFCF91DF911F910F91FF90EF90DF90A8
:100F2000BF90AF909F908F907F906F9008951F9289
:100F30000F920FB60F9211248F93199908C08091C8
:100F40002A0187FF02C02A9A17C02A9815C08091EB
:100F50002A01880F80932A0180912B018150809370
:100F60002B018F5F11F4109281001B9B05C08091B3
:100F70002A01816080932A01199A8F910F900FBEE8
:100F80000F901F9018953E9A10926F001092850056
:100F90001092840081E090E0909389008093880013
:100FA00080E48093800089E080938100089580919F
:100FB0002901882349F084B1897F84B985B1867F6E
:100FC00085B91CBC1DBC089584B1897F84B985B1E5
:100FD000867F85B9D8CF92E090936F0010928500FC
:100FE00010928400E82FF0E0EE0FFF1FE25CFE4F4E
:100FF000859194919093890080938800109280004D
:1010000010928100089580932A0188E080932B013B
:1010100080912A0180FF02C02A9A01C02A9810926A
:101020008500109284008AE08093810080912B01DA
:10103000882319F08AB58823C9F310928100809122
:101040002A010895982F80912901882329F09EBDB7
:101050000DB407FEFDCF0895892FD5CF80EFF2DFC5
:1010600080E0F0DF80E0EEDF80912901882331F01D
:101070001EBC0DB407FEFDCF8EB502C080E0C3DFFD
:1010800080FF03C08AB5882349F38AB5811181E8BE
:1010900008958DE4D7DF80E0D5DF80912F01D2DF86
:1010A00080E0D0CFEF92FF920F931F937B01142F1C
:1010B00090E08E778830910581F18930910534F484
:1010C0008230910559F0049751F50BC0803291059B
:1010D00041F08034910509F1409709F5822FD0DA6B
:1010E0001EC0802FAFDF8F2DADDF8E2DABDF809147
:1010F0002901882331F01EBC0DB407FEFDCF8EB54B
:1011000002C080E080DF811719F48AB5882349F393
:101110008AB5882321F080E803C0A0DF01C080E009
:101120001F910F91FF90EF900895882339F0249A32
:101130008EE975DA882319F42C9A089524982C984E
:10114000089588E96CDAE82F8730E8F481E080932D
:101150002901F0E0EA57FD4FE4919E2F906184B1A0
:10116000866084B984B1867F84B985B1896085B988
:10117000E065ECBD96FF03C08DB5816002C08DB502
:101180008E7F8DBD08951092290184B1866084B947
:1011900085B1896085B98E2F1ECF8093E90080913B
:1011A000EB0081608093EB001092ED006093EC0007
:1011B0004093ED008091EE00881F8827881F0895D6
:1011C0008091330188238CF403C08EB38823B1F05F
:1011D0008091E80082FFF9CF8091E8008B778093BF
:1011E000E80008958EB3882349F08091E80080FFDD
:1011F000F9CF8091E8008E778093E80008954091C0
:10120000E4005091E50024E68091EC0080FF05C0E9
:101210008091E80080FF05C021C08091E80082FD38
:101220001DC08EB3882311F482E00895853011F437
:1012300083E008958091EB0085FF02C081E008956E
:101240008091E4009091E50084179507E9F222234C
:1012500011F484E008952150AC01D6CF80E00895C8
:101260003CD03ED08091D800982F9F779093D800A3
:1012700080688093D8008091D8008F7D8093D800BB
:1012800084E089BD89B5826089BD09B400FEFDCFC7
:101290001EBA1092310180E060E042E17EDF809171
:1012A000E1008E7F8093E1008091E2008160809375
:1012B000E2008091E20088608093E2008091E0008B
:1012C0008E7F8093E0000895E3E6F0E080818E7FDA
:1012D000808381E080933201C3CF1092E2000895B1
:1012E0001092E10008951F920F920FB60F921124F1
:1012F0002F933F934F935F936F937F938F939F931E
:10130000AF93BF93EF93FF938091E10082FF0AC0F8
:101310008091E20082FF06C08091E1008B7F809384
:10132000E100ACD18091E10080FF17C08091E20024
:1013300080FF13C08091E2008E7F8093E200809155
:10134000E20080618093E2008091D8008062809307
:10135000D80019BC1EBA0E9469018091E10084FF87
:101360002EC08091E20084FF2AC084E089BD89B547
:10137000826089BD09B400FEFDCF8091D8008F7DC9
:101380008093D8008091E1008F7E8093E10080916E
:10139000E2008F7E8093E2008091E2008160809382
:1013A000E20080913101882331F48091E30087FDD0
:1013B00002C081E001C084E08EBB0E946401809184
:1013C000E10083FF21C08091E20083FF1DC0809176
:1013D000E100877F8093E10082E08EBB10923101B3
:1013E0008091E1008E7F8093E1008091E2008E7F0A
:1013F0008093E2008091E20080618093E20080E0CF
:1014000060E042E1CADE3AD1FF91EF91BF91AF9126
:101410009F918F917F916F915F914F913F912F910C
:101420000F900FBE0F901F9018950F931F93DF938F
:10143000CF9300D0CDB7DEB78091F1008093330118
:101440008091F100809334018091F1009091F1003E
:10145000E5E3F1E080933501909336018091F1004E
:101460009091F1008093370193838091F1009091E6
:10147000F10080933901958301D18091E80083FFC9
:10148000E8C08091330190913401953009F46DC02A
:10149000963040F4913081F1913070F0933009F042
:1014A000D8C02AC0983009F4A6C0993009F4B5C054
:1014B000963009F0CEC07EC0803809F4CAC08238A8
:1014C00009F0C7C08091370187708093E90080914F
:1014D000EB001092E9002091E800277F2093E800BC
:1014E00090E025E0969587952A95E1F781708093A5
:1014F000F1001092F1008AC0882319F0823009F0BF
:10150000A8C08F71823009F0A4C080913501882372
:1015100031F520913701277009F49BC02093E90031
:101520008091EB0080FF1BC0933021F48091EB0091
:10153000806213C08091EB0080618093EB0081E0BA
:1015400090E002C0880F991F2A95E2F78093EA0085
:101550001092EA008091EB0088608093EB0010927B
:10156000E9008091E800877F54C0882309F071C0AA
:10157000109135011F770FB7F8948091E800877FAD
:101580008093E8001DDE8091E80080FFFCCF809111
:10159000E3008078812B8093E3008091E3008068F2
:1015A0008093E300112311F482E001C083E08EBB3D
:1015B0000FBF4FC08058823008F04BC0809135017A
:1015C0009091360160913701AE014F5F5F4F0E94ED
:1015D000C101BC01009709F43CC08091E800877FFD
:1015E0008093E80089819A814AD08091E8008B77C6
:1015F0008093E8002EC0803861F58091E800877FF5
:101600008093E800809131018093F1008091E8009F
:101610008E778093E800D4DD1CC08823D1F49091AC
:1016200035019230B0F48091E800877F8093E80024
:1016300090933101C5DD80913101882331F480918F
:10164000E30087FD02C081E001C084E08EBB0E9400
:1016500083018091E80083FF0AC08091EB008062E3
:101660008093EB008091E800877F8093E8000F90E3
:101670000F90CF91DF911F910F91089508959C01D4
:101680004091390150913A014617570718F4F90172
:1016900090E03FC06115710511F0AB01F8CF80916A
:1016A000E8008E778093E80040E050E0F0CF8EB302
:1016B000882309F43FC0853009F43EC08091E800DA
:1016C00083FF02C081E008958091E80082FD2CC074
:1016D0008091E80080FF1DC08091F200282F30E04B
:1016E00008C084918093F1003196415050402F5FA3
:1016F0003F4F4115510519F02031310590F390E02D
:101700002031310509F491E08091E8008E778093D3
:10171000E8004115510559F6992349F605C08EB3E5
:10172000882341F0853041F08091E80082FFF7CFB7
:1017300080E0089582E0089583E00895BF92CF92FB
:10174000DF92EF92FF920F931F93CF93DF938C0161
:10175000EB016A0154DDB82E8823B9F521970C0FEF
:101760001D1F2196C114D10439F0F60180819181A9
:10177000C81BD90B081B190BEE24FF2424C0809131
:10178000E80085FD16C08091E8008B778093E80023
:10179000C114D10449F0F601808191818E0D9F1D05
:1017A0009183808385E012C0BFD029DD882359F062
:1017B0000DC08091F100F801808301501040219705
:1017C0000894E11CF11C2097D1F68B2DDF91CF916D
:1017D0001F910F91FF90EF90DF90CF90BF900895F1
:1017E000BF92CF92DF92EF92FF920F931F93CF930E
:1017F000DF93182F092F7B016A0101DDB82E8823A2
:10180000B1F5812F902F9C01E901C114D10439F069
:10181000F60180819181E81AF90AC80FD91F00E00A
:1018200010E022C08091E80085FD16C08091E8009C
:101830008B778093E800C114D10449F0F6018081D0
:101840009181800F911F9183808385E011C06CD0BE
:10185000D6DC882349F00CC08091F100899308946C
:10186000E108F1080F5F1F4FE114F104D9F68B2D49
:10187000DF91CF911F910F91FF90EF90DF90CF906C
:10188000BF900895BF92CF92DF92EF92FF920F9395
:101890001F93CF93DF93182F092F7B016A01AFDCD1
:1018A000B82E8823B1F5812F902F9C01E901C11436
:1018B000D10439F0F60180819181E81AF90AC80F44
:1018C000D91F00E010E022C08091E80085FD16C01D
:1018D0008091E8008E778093E800C114D10449F02C
:1018E000F60180819181800F911F9183808385E033
:1018F00011C01AD084DC882349F00CC089918093F0
:10190000F1000894E108F1080F5F1F4FE114F104A2
:10191000D9F68B2DDF91CF911F910F91FF90EF9012
:10192000DF90CF90BF9008951F938EB3882361F00E
:101930001091E9001092E9008091E80083FF01C056
:1019400074DD17701093E9001F910895F999FECF87
:1019500092BD81BDF89A992780B50895262FF999EF
:10196000FECF92BD81BDF89A019700B4021639F0FE
:101970001FBA20BD0FB6F894FA9AF99A0FBE0895CF
:04198000F894FFCF09
:101984004156524953505F4D4B3200800100810152
:101994000090010091010192010D94013298030617
:0A19A4009E0201A10100A40200014F
:00000001FF
