:100000000C9434000C9451000C9451000C94510049
:100010000C9451000C9451000C94D7060C94510090
:100020000C9451000C9451000C9451000C9453000A
:100030000C9451000C9451000C948B0E0C945100B4
:100040000C9451000C9451000C9451000C945100EC
:100050000C9451000C9451000C9451000C94060423
:100060000C9451000C94510011241FBECFEFD8E026
:10007000DEBFCDBF12E0A0E0B1E0EEE9FDE202C0DC
:1000800005900D92A232B107D9F712E0A2E2B2E0D8
:1000900001C01D92A93EB107E1F70E94A4090C948A
:1000A000CD160C9400001F920F920FB60F921124E0
:1000B0003F924F925F926F927F928F929F92AF92F8
:1000C000BF92CF92DF92EF92FF920F931F932F93E5
:1000D0003F934F935F936F937F938F939F93AF93D0
:1000E000BF93CF93DF93EF93FF9321E030E0309302
:1000F0000C0120930B0180914C0290914D02892BB1
:1001000009F054C080917800909179009093990201
:100110008093980245E040937C0062EB60937A0004
:1001200051E050937B0080919A0290E090939C0262
:1001300080939B0230934D0220934C0280919A024F
:10014000882309F44EC010929C0210929B021092D8
:100150009E0210929D021092A00210929F02109295
:10016000A2021092A1021092A4021092A302409344
:100170007C0060937A0050937B0010928100109273
:1001800085001092840010924D0210924C02109241
:100190004B0210924A0280914E0290914F020396B8
:1001A00090934F0280934E0245BD1BC080914C023C
:1001B00090914D02019721F58091780090917900FE
:1001C000909397028093960280919A0290E0909388
:1001D0009E0280939D0282E090E090934D02809376
:1001E0004C02809150029091510220917800309100
:1001F0007900820F931F9093510280935002E2C2C4
:1002000080914C0290914D02029751F480919A0294
:1002100090E09093A00280939F0283E090E00FC053
:1002200080914C0290914D02039771F480919A0253
:1002300090E09093A2028093A10284E090E09093DA
:100240004D0280934C02BEC280914C0290914D02AF
:10025000049709F0B7C280919A0290E09093A402AB
:100260008093A30210924D0210924C0280919D0245
:1002700090919E0220919F023091A0024091A10294
:100280005091A2026091A3027091A402820F805843
:10029000840F90E08617970709F063C280919B0254
:1002A00090919C02892B09F05CC2809196029091FA
:1002B0009702845893401CF033243A9499C02091BB
:1002C00096023091970280917A0290917B02821778
:1002D000930714F433248CC051E0452E512C209107
:1002E000960230919702E201CC0FDD1FC658DD4F18
:1002F000888199818217930754F00894411C511CFE
:100300008EE04816510459F72AE5322E71C06881F3
:100310007981F201EE0FFF1FE858FD4F20813181F6
:10032000621B730B882777FD8095982F0E945912C6
:100330009B01AC010E9402113B014C01E880F98055
:100340006091960270919702882777FD8095982F8B
:100350000E9459125B016C010027F7FC0095102FD9
:10036000C801B7010E9459127B018C01B201882794
:1003700077FD8095982F0E94591220E030E040E0F0
:100380005FE30E942F1120E030E040E050E00E9447
:1003900002119B01AC01C401B3010E942F119B010A
:1003A000AC01C801B7010E94D1109B01AC01C6018C
:1003B000B5010E94D11020E030E040E251E40E94FB
:1003C0002F110E94B7127B018C01C401B3010E945E
:1003D000B7129B01AC01C701B9010E9479158827AA
:1003E00077FD8095982F0E9459120E94590F362E42
:1003F00080919602909197028D5B92400CF4A2C07E
:10040000209198023091990280915E0290915F0252
:10041000821793070CF48BC081E0482E512C209159
:10042000980230919902E201CC0FDD1FC25ADD4FD4
:10043000888199818217930744F00894411C511CCC
:100440008EE04816510459F772C068817981F20133
:10045000EE0FFF1FE45AFD4F20813181621B730BA9
:10046000882777FD8095982F0E9459129B01AC0137
:100470000E9402113B014C01E880F98060919802D2
:1004800070919902882777FD8095982F0E945912C4
:100490005B016C010027F7FC0095102FC801B70124
:1004A0000E9459127B018C01B201882777FD80954B
:1004B000982F0E94591220E030E040E05FE30E9454
:1004C0002F1120E030E040E050E00E9402119B013B
:1004D000AC01C401B3010E942F119B01AC01C80102
:1004E000B7010E94D1109B01AC01C601B5010E9469
:1004F000D11020E030E040E251E40E942F110E9430
:10050000B7127B018C01C401B3010E94B7129B0199
:10051000AC01C701B9010E947915882777FD809544
:10052000982F0E9459120E94590F6F3F59F02FEFD8
:10053000321641F080919602909197028091960236
:1005400090919702E091D502F091D60280919D02A0
:1005500090919E02EE0FFF1FEB55FD4F918380831C
:10056000E091D502F091D60280919F029091A00275
:10057000EE0FFF1FE355FD4F91838083E091D5027D
:10058000F091D6028091A1029091A202EE0FFF1F7E
:10059000EB54FD4F91838083E091D502F091D60218
:1005A0008091980290919902EE0FFF1FE354FD4F46
:1005B00091838083E091D502F091D60280919602DA
:1005C00090919702EE0FFF1FEB53FD4F91838083B5
:1005D000E091D502F091D602EE0FFF1FE353FD4FDD
:1005E00081E090E0918380838091D5029091D60242
:1005F00001969093D6028093D5028091D502909176
:10060000D602049721F41092D6021092D50280915E
:10061000A1029091A20280FFA4C080919F029091BC
:10062000A002892B09F09DC080919D0290919E02AD
:1006300009970CF096C020910D0130910E01809128
:100640009D0290919E022817390709F48AC0809173
:100650009D0290919E02039709F46BC040E050E028
:1006600020C0FA01EE0FFF1FED51FD4F20813181B7
:1006700080919D0290919E022817390781F0109277
:10068000E4021092E3021092E6021092E502109248
:10069000E8021092E70210925302109252024F5F4A
:1006A0005F4F809152029091530248175907CCF244
:1006B00080915202909153020397BCF4E091520250
:1006C000F091530280919D0290919E02EE0FFF1FC8
:1006D000ED51FD4F9183808380915202909153029E
:1006E000019690935302809352028091520290910E
:1006F00053020397F1F480919D0290919E02909392
:100700000E0180930D0181E090E0909310018093A1
:100710000F011092E4021092E3021092E60210928E
:10072000E5021092E8021092E70210925302109232
:10073000520280919D0290919E02039791F421E0D4
:1007400030E0309349022093480280919D029091BD
:100750009E0290930E0180930D013093100120931F
:100760000F0125E020937C0082EB80937A0081E0EA
:1007700080937B0010924B0210924A0210929C02CE
:1007800010929B0210929E0210929D021092A00263
:1007900010929F021092A2021092A1021092A40243
:1007A0001092A30210928100109285001092840092
:1007B00080914E0290914F020C9690934F0280933D
:1007C0004E0225BD10929A02FF91EF91DF91CF91D9
:1007D000BF91AF919F918F917F916F915F914F9159
:1007E0003F912F911F910F91FF90EF90DF90CF904D
:1007F000BF90AF909F908F907F906F905F904F9041
:100800003F900F900FBE0F901F9018951F920F9260
:100810000FB60F9211242F933F938F939F932091A4
:1008200084003091850015BC80910B0190910C01E2
:10083000019711F5109285001092840081E0809359
:10084000810080917A008F7D80937A0080914C02A4
:1008500090914D02892B29F489E08093890080E8EA
:1008600004C088E08093890080E48093880010921F
:100870000C0110920B0139C084E02F393807D4F4F1
:1008800082E02B3838075CF42158314024F4809101
:100890009A02805828C080919A02805C24C0255911
:1008A000334024F480919A02805E1DC080919A02A8
:1008B000805F19C086E0233B38075CF4295A354035
:1008C00024F480919A02885F0EC080919A028C5F16
:1008D0000AC02D5B374024F480919A028E5F03C0DA
:1008E00080919A028F5F80939A0281E090E09093CA
:1008F0004B0280934A029F918F913F912F910F90CD
:100900000FBE0F901F901895AC0120E030E0FA0167
:10091000E20FF31F80818093C6008091C00085FFA5
:10092000FCCF2F5F3F4F2A30310589F78AE0809353
:10093000C6008091C00085FFFCCF8DE08093C6008B
:100940008091C00085FFFCCF08958AE08093C600A7
:100950008091C00085FFFCCF0895CF92DF92EF9287
:10096000FF920F931F93DF93CF93CDB7DEB72C97F2
:100970000FB6F894DEBF0FBECDBF282F78948091BC
:100980004A0290914B02019719F422E030E0C7C06F
:10099000549A29836A834B832058260F240F2C8373
:1009A0006E010894C11CD11CDE0115968D017D01DC
:1009B000F60161916F0170E09B0120723070F3E0ED
:1009C00035952795FA95E1F7CB0180719070959553
:1009D0008795280F391FCB018074907055E095954D
:1009E00087955A95E1F7280F391FCB01880F892F7A
:1009F000881F990B9195280F391FCB01817090703A
:100A0000880F991F880F991FAB0142705070840F97
:100A1000951F880F991F880F991FAB014470507064
:100A2000840F951F880F991F880F991F6870707029
:100A3000860F971F880F991F280F391F220F331F0A
:100A40002F5F3F4FF801219331938F01CE14DF04C4
:100A500009F0AECFF89480914A0290914B02892B15
:100A600009F04AC05C9A000000005C9880E090E0C9
:100A70000000019685339105D9F780E090E000B63B
:100A800005FE05C05C98789423E030E048C000B6CD
:100A900005FE05C05C98789424E030E040C00196E3
:100AA000813C910561F71FC020FF04C05C9A0000E3
:100AB000000003C05C98000000005C9880E090E0BB
:100AC0000000019683329105D9F73695279541505C
:100AD0005040FFEF4F3F5F0739F72D933D93A61727
:100AE000B70721F40EC0BE01635F7F4F2D913C918B
:100AF000119748E050E0D8CF5C98789425E030E03A
:100B00000EC05C9880E090E0000001968233910571
:100B1000D9F780B7806180BF789421E030E0C901C7
:100B20002C960FB6F894DEBF0FBECDBFCF91DF91EC
:100B30001F910F91FF90EF90DF90CF9008958091DB
:100B40007A00F89486E080937C0080917A0080643B
:100B500080937A0080917A0084FFFCCF7894609132
:100B600078007091790080E090E00E940B132AECED
:100B700034E541EC5BE30E942F1124E237E94FE7B3
:100B80005CE30E94021120E030E048EC52E40E9455
:100B90002F110E94B712CB010895109249021092B2
:100BA0004802F89484E083BF14BE8091600088619D
:100BB0008093600081E68093600014B815B817B880
:100BC00018B81AB81BB8789480917A008F77809300
:100BD0007A00A89583B7816083BF8895789434E0C4
:100BE00021E61BC033BF14BE8091600088618093F2
:100BF00060002093600014B815B817B818B81AB878
:100C00001BB8789480917A008F7780937A00A895AA
:100C100083B7816083BF88957894809148029091D2
:100C20004902892BF9F2539A239A8091B000816A84
:100C30008093B0008091B10082608093B1001092E7
:100C4000B4001092B3000895982F40FF02C03C9A60
:100C500001C03C98443014F03A9A01C03A98842F6D
:100C6000859580FF02C03B9A01C03B9890FF02C06F
:100C7000559A01C05598943014F0269A01C02698D0
:100C8000892F859580FF02C0279A01C0279860FFB1
:100C900002C0229A01C02298643014F0209A01C048
:100CA0002098862F859580FF02C0219A089521986B
:100CB0000895359B08C080E060E040E00E94240673
:100CC00020E030E072C081E060E040E00E94240655
:100CD00080ED97E028EC30E0F9013197F1F70197CA
:100CE000D9F782E060E040E00E94240680ED97E0C2
:100CF00028EC30E0F9013197F1F70197D9F783E05B
:100D000060E040E00E94240680ED97E028EC30E0AF
:100D1000F9013197F1F70197D9F784E060E040E0FD
:100D20000E94240680ED97E028EC30E0F90131972D
:100D3000F1F70197D9F785E060E040E00E942406D2
:100D400080ED97E028EC30E0F9013197F1F7019759
:100D5000D9F786E060E040E00E94240680ED97E04D
:100D600028EC30E0F9013197F1F70197D9F787E0E6
:100D700060E040E00E94240680ED97E028EC30E03F
:100D8000F9013197F1F70197D9F780E060E040E091
:100D90000E94240680ED97E028EC30E0F9013197BD
:100DA000F1F70197D9F721E030E0C90108951F92CA
:100DB0000F920FB60F9211242F933F934F935F938F
:100DC0006F937F938F939F93AF93BF93EF93FF9313
:100DD000A895529A5A9AEAE7F0E080818068808369
:100DE000E0E6F0E08081886180831082789487E07B
:100DF00067E047E00E94240680E29EE40197F1F755
:100E000080E060E040E00E942406FF91EF91BF91F6
:100E1000AF919F918F917F916F915F914F913F9192
:100E20002F910F900FBE0F901F901895A091D50293
:100E3000B091D6021092E2021092E10220E030E07E
:100E4000109719F4A3E0B0E001C01197FD01EE0F77
:100E5000FF1FE353FD4F80819181019709F045C049
:100E6000F894FD01EE0FFF1FEB55FD4F808191813E
:100E70009093D8028093D702FD01EE0FFF1FE35538
:100E8000FD4F808191819093DA028093D902FD0118
:100E9000EE0FFF1FEB54FD4F808191819093DC0298
:100EA0008093DB02FD01EE0FFF1FE354FD4F8081B5
:100EB00091819093DE028093DD02AA0FBB1FFD019A
:100EC000EB53FD4F808191819093E0028093DF028C
:100ED000789481E090E09093E2028093E102A35342
:100EE000BD4F11961C921E9206C02F5F3F4F2430BB
:100EF000310509F0A5CF8091E1029091E2020197BE
:100F0000B9F48091DF029091E0028D3C91051CF0D4
:100F100080E061E00BC08091DF029091E002823CB2
:100F2000910514F481E001C080E060E040E003C07E
:100F300080E060E042E00E9424060895CF93DF93B2
:100F4000A091D502B091D60220E030E0109719F4BC
:100F5000A3E0B0E001C01197ED01CC0FDD1FC3533A
:100F6000DD4F888199810197A1F5FD01EE0FFF1FEB
:100F7000EB55FD4F2081318130934702209346028B
:100F8000FD01EE0FFF1FE355FD4F8081918190938E
:100F9000450280934402FD01EE0FFF1FEB54FD4F0D
:100FA000408151815093430240934202AA0FBB1FDC
:100FB000FD01E354FD4F0190F081E02DAB53BD4F97
:100FC0006D917C91198218822817390709F066C043
:100FD00007C02F5F3F4F2430310509F0B7CF5EC007
:100FE000452B09F05BC021303105A1F480912E0220
:100FF00090912F02E80FF91FF0932F02E0932E0239
:101000008091380290913902019690933902809331
:10101000380244C022303105A1F480913002909111
:101020003102E80FF91FF0933102E0933002809112
:101030003A0290913B02019690933B0280933A02D0
:101040002DC023303105A1F48091320290913302FA
:10105000E80FF91FF0933302E093320280913C02D3
:1010600090913D02019690933D0280933C0216C000
:101070002430310599F48091340290913502E80FC3
:10108000F91FF0933502E093340280913E02909173
:101090003F02019690933F0280933E02DF91CF91F1
:1010A00008952091D5023091D60260E070E040E0D2
:1010B00050E02115310519F423E030E002C0215041
:1010C0003040F901EE0FFF1FE353FD4F8081918106
:1010D000019721F41182108261E070E04F5F5F4F51
:1010E0004430510531F76130710519F480E061E059
:1010F00002C081E060E040E00E9424060895EF9283
:10110000FF920F931F93DF93CF93CDB7DEB72A974C
:101110000FB6F894DEBF0FBECDBF8E010F5F1F4F1D
:1011200078019E01255F3F4FF70111927F01E21781
:10113000F307D1F7BE016F5F7F4F4AE050E00E9496
:101140003816F80180818093C6008091C00085FF29
:10115000FCCF0F5F1F4F0E151F0599F780E280939C
:10116000C6008091C00085FFFCCF2A960FB6F89488
:10117000DEBF0FBECDBFCF91DF911F910F91FF90CA
:10118000EF900895EF92FF920F931F93DF93CF9309
:10119000CDB7DEB72A970FB6F894DEBF0FBECDBF2E
:1011A0008E010F5F1F4F78019E01255F3F4FF701B2
:1011B00011927F01E217F307D1F7BE016F5F7F4FF6
:1011C0004AE050E00E943816F80180818093C60002
:1011D0008091C00085FFFCCF0F5F1F4F0E151F05CC
:1011E00099F78AE08093C6008091C00085FFFCCF0C
:1011F0008DE08093C6008091C00085FFFCCF2A96C9
:101200000FB6F894DEBF0FBECDBFCF91DF911F9117
:101210000F91FF90EF900895EF92FF920F931F931D
:10122000CF93DF93A091D502B091D60220E030E0B9
:10123000109719F4A3E0B0E001C01197ED01CC0FB5
:10124000DD1FC353DD4F888199810197C9F5FD01E9
:10125000EE0FFF1FEB55FD4F0081118110932D0202
:1012600000932C02FD01EE0FFF1FE355FD4F60813F
:10127000718170932B0260932A02FD01EE0FFF1F14
:10128000EB54FD4F40815181509329024093280235
:10129000AA0FBB1FFD01E354FD4FE080F180AB536B
:1012A000BD4FED91FC911982188280912702382F51
:1012B00030583093240290E00817190709F507C049
:1012C0002F5F3F4F2430310509F0B2CF36C0209157
:1012D0002602822F90E06817790791F48091250209
:1012E00090E04817590761F4231751F4C701865B52
:1012F0009340459728F4E831F10514F0B7972CF0A6
:10130000109223021092220209C080912202909131
:10131000230201969093230280932202802F8F5FF5
:1013200080932702862F8F5F80932602842F8E5F03
:1013300080932502C7010E94C208DF91CF911F91BF
:101340000F91FF90EF9008952F923F924F925F92EE
:101350006F927F928F929F92AF92BF92CF92DF92C5
:10136000EF92FF920F931F93DF93CF93CDB7DEB72A
:101370002E970FB6F894DEBF0FBECDBF14B815B8C8
:1013800017B818B81AB81BB881E090E00E94591637
:1013900080936600519A81E090E09093C50080931D
:1013A000C4001092C0008091C10088608093C10089
:1013B0008091C20086608093C20080B78B6080BF3E
:1013C00083E080937F0085E080937C0083EC8093B2
:1013D0007A001092800081E08093810082E0809307
:1013E0006F0082E3809389001092880080E091E092
:1013F0000E94840478942E010894411C511CB5E08D
:10140000AB2EB12CAC0EBD1EADE06A2E712C6C0E55
:101410007D1E8AB18D638AB987B18F6187B984B126
:10142000876C84B900E010E0F0E28F2EFEE49F2E7E
:1014300019821B821A8278940115110521F481E02A
:101440008983A1E018C00130110521F49DE0998342
:10145000A4E011C00230110521F4EEE0E983A8E018
:101460000AC00330110521F4FCE0F983A0E103C0B8
:101470008BE08983A0E280914A0290914B02B0E018
:10148000019709F4B1E0898180588C8312017501BC
:101490006501F10161911F0170E09B0120723070C4
:1014A000E3E035952795EA95E1F7CB0180719070DF
:1014B00095958795280F391FCB018074907045E072
:1014C000959587954A95E1F7280F391FCB01880F2D
:1014D000892F881F990B9195280F391FCB01817097
:1014E0009070880F991F880F991FAB014270507040
:1014F000840F951F880F991F880F991FAB014470A7
:101500005070840F951F880F991F880F991F68705E
:101510007070860F971F880F991F280F391F220F91
:10152000331F2F5F3F4FF601219331936F012A1430
:101530003B0409F0AECFF89480914A0290914B029F
:101540006A2F6095892B09F04AC08BB18A2B8BB921
:101550000000000000008BB186238BB980E090E092
:101560000000019685339105D9F780E090E000B640
:1015700005FE01C0000000000196873F9105B9F704
:10158000BB2339F130C020FF06C08BB18A2B8BB949
:101590000000000005C08BB186238BB9000000005D
:1015A0008BB186238BB980E090E0000001968332F6
:1015B0009105D9F73695279541505040FFEF4F3FA1
:1015C0005F0709F7F701219331937F01E615F705CE
:1015D00051F0F7012081318148E050E0D4CF8BB148
:1015E00068236BB978948BB1A095A823ABB9BB23C2
:1015F00061F480E090E00000019682339105D9F714
:1016000080B7806180BF789401C07894C40101974D
:10161000F1F70F5F1F4F0530110509F009CFA091B9
:10162000D502B091D6021092E2021092E10220E0BF
:1016300030E0109719F4A3E0B0E001C01197FD016C
:10164000EE0FFF1FE353FD4F80819181019709F059
:1016500045C0F894FD01EE0FFF1FEB55FD4F808153
:1016600091819093D8028093D702FD01EE0FFF1F66
:10167000E355FD4F808191819093DA028093D902E6
:10168000FD01EE0FFF1FEB54FD4F80819181909380
:10169000DC028093DB02FD01EE0FFF1FE354FD4FE0
:1016A000808191819093DE028093DD02AA0FBB1F9F
:1016B000FD01EB53FD4F808191819093E002809377
:1016C000DF02789481E090E09093E2028093E1025F
:1016D000A353BD4F11961C921E9206C02F5F3F4F21
:1016E0002430310509F0A5CF8091E1029091E2020A
:1016F000019741F48091D7029091D80284369105E8
:1017000009F4EEC200E010E0B2E02B2EA5E03A2E84
:10171000F0E28F2EFEE49F2E19821B821A827894AB
:101720000115110519F43982A1E016C00130110527
:1017300021F4F4E0F983A2E00FC00230110521F496
:1017400083E08983A4E008C00330110519F41982ED
:10175000A8E002C02982A0E180914A0290914B0248
:10176000B0E0019709F4B1E0898180588C835E86EE
:101770004D8675016501ED85FE856191FE87ED87DA
:1017800070E09B0120723070E3E035952795EA9573
:10179000E1F7CB018071907095958795280F391FDF
:1017A000CB018074907045E0959587954A95E1F757
:1017B000280F391FCB01880F892F881F990B91950E
:1017C000280F391FCB0181709070880F991F880FE7
:1017D000991FAB0142705070840F951F880F991F9D
:1017E000880F991FAB0144705070840F951F880FAC
:1017F000991F880F991F68707070860F971F880F48
:10180000991F280F391F220F331F2F5F3F4FF601FB
:10181000219331936F018D859E858A159B0509F073
:10182000AACFF89480914A0290914B026A2F60955A
:10183000892B09F04AC088B18A2B88B900000000C2
:10184000000088B1862388B980E090E0000001960E
:1018500085339105D9F780E090E000B605FE01C020
:10186000000000000196873F9105B9F7BB2339F1CD
:1018700030C020FF06C088B18A2B88B90000000064
:1018800005C088B1862388B90000000088B186238E
:1018900088B980E090E00000019683329105D9F785
:1018A00036952795415050409FEF4F3F590709F714
:1018B000F701219331937F01E615F70551F0F70108
:1018C0002081318148E050E0D4CF88B1682368B9E5
:1018D000789488B1A095A823A8B9BB2361F480E0CF
:1018E00090E00000019682339105D9F780B78061BE
:1018F00080BF789401C07894C4010197F1F70F5F1D
:101900001F4F0530110509F007CFA091D502B09106
:10191000D6021092E2021092E10220E030E010972D
:1019200019F4A3E0B0E001C01197FD01EE0FFF1F15
:10193000E353FD4F80819181019709F045C0F894F0
:10194000FD01EE0FFF1FEB55FD4F808191819093BC
:10195000D8028093D702FD01EE0FFF1FE355FD4F24
:10196000808191819093DA028093D902FD01EE0F7C
:10197000FF1FEB54FD4F808191819093DC02809397
:10198000DB02FD01EE0FFF1FE354FD4F80819181CB
:101990009093DE028093DD02AA0FBB1FFD01EB5383
:1019A000FD4F808191819093E0028093DF027894D3
:1019B00081E090E09093E2028093E102A353BD4F57
:1019C00011961C921E9206C02F5F3F4F24303105A6
:1019D00009F0A5CF8091E1029091E202019741F4D4
:1019E0008091D7029091D8028436910509F478C18C
:1019F00000E010E0BAE02B2EA6E03A2EF0E28F2EA7
:101A0000FEE49F2E19821B821A827894011511051B
:101A100019F43982A2E017C00130110521F4F7E072
:101A2000F983A1E010C00230110521F488E0898318
:101A3000A4E009C00330110521F499E09983A0E4E2
:101A400002C02982A0E880914A0290914B02B0E046
:101A5000019709F4B1E0898180588C835E864D86B8
:101A600075016501ED85FE856191FE87ED8770E06A
:101A70009B0120723070E3E035952795EA95E1F7F8
:101A8000CB018071907095958795280F391FCB01F8
:101A90008074907045E0959587954A95E1F7280FF9
:101AA000391FCB01880F892F881F990B9195280F1B
:101AB000391FCB0181709070880F991F880F991F73
:101AC000AB0142705070840F951F880F991F880FCB
:101AD000991FAB0144705070840F951F880F991F98
:101AE000880F991F68707070860F971F880F991F55
:101AF000280F391F220F331F2F5F3F4FF60121930D
:101B000031936F018D859E858A159B0509F0AACFBB
:101B1000F89480914A0290914B026A2F6095892B2C
:101B200009F04AC085B18A2B85B900000000000089
:101B300085B1862385B980E090E000000196853369
:101B40009105D9F780E090E000B605FE01C00000E5
:101B500000000196873F9105B9F7BB2339F130C0EA
:101B600020FF06C085B18A2B85B90000000005C0A2
:101B700085B1862385B90000000085B1862385B92B
:101B800080E090E00000019683329105D9F7369508
:101B90002795415050409FEF4F3F590709F7F701F4
:101BA000219331937F01E615F70551F0F70120816C
:101BB000318148E050E0D4CF85B1682365B978948D
:101BC00085B1A095A823A5B9BB2361F480E090E07E
:101BD0000000019682339105D9F780B7806180BFFC
:101BE000789401C07894C4010197F1F70F5F1F4FFB
:101BF0000530110509F006CFA091D502B091D602AB
:101C00001092E2021092E10220E030E0109719F405
:101C1000A3E0B0E001C01197FD01EE0FFF1FE353F9
:101C2000FD4F80819181019709F045C0F894FD0135
:101C3000EE0FFF1FEB55FD4F808191819093D802ED
:101C40008093D702FD01EE0FFF1FE355FD4F80810A
:101C500091819093DA028093D902FD01EE0FFF1F6C
:101C6000EB54FD4F808191819093DC028093DB02E5
:101C7000FD01EE0FFF1FE354FD4F80819181909392
:101C8000DE028093DD02AA0FBB1FFD01EB53FD4F67
:101C9000808191819093E0028093DF02789481E0CB
:101CA00090E09093E2028093E102A353BD4F11961E
:101CB0001C921E9206C02F5F3F4F2430310509F061
:101CC000A5CF8091E1029091E202019709F0A1CBAA
:101CD0008091D7029091D8028436910509F099CB72
:101CE00080E090E02E960FB6F894DEBF0FBECDBF19
:101CF000CF91DF911F910F91FF90EF90DF90CF90E8
:101D0000BF90AF909F908F907F906F905F904F901B
:101D10003F902F9008951F920F920FB60F921124AB
:101D20002F933F934F935F936F937F938F939F93E3
:101D3000AF93BF93EF93FF932091540230915502DC
:101D400080914E0290914F02820F931F9093550203
:101D50008093540220914E0230914F0280915C0298
:101D600090915D02820F931F90935D0280935C02BD
:101D7000209156023091570280914E0290914F026D
:101D8000820F931F9093570280935602209158021E
:101D90003091590280914E0290914F02820F931F11
:101DA000909359028093580220915A0230915B021D
:101DB00080914E0290914F0264E670E00E94791586
:101DC000260F371F30935B0220935A0280915A02EC
:101DD00090915B0281509D4720F010925B0210921F
:101DE0005A028FEF90E090934F0280934E028FEF54
:101DF00087BD80915402909155028C5F94406CF1A4
:101E000080911101813049F580914A0290914B02F5
:101E1000892BA1F48091120160911301409114016A
:101E200090E070E050E00E94AD04009739F0019717
:101E300029F410925502109254020FC00E942816E5
:101E40006FEF70E00E94791590934F0280934E02DD
:101E500080914E0290914F0287BD80915C029091DB
:101E60005D02885F9840A4F010925D0210925C02BF
:101E70001092E4021092E3021092E6021092E50240
:101E80001092E8021092E70210925302109252024E
:101E9000FF91EF91BF91AF919F918F917F916F9142
:101EA0005F914F913F912F910F900FBE0F901F9018
:101EB0001895EF92FF920F931F937B018C0120E006
:101EC00030E040E05FE40E94291288238CF0C801D2
:101ED000B70120E030E040E05FE40E94D1100E94B2
:101EE000B7129B01AC01205030404040504806C022
:101EF000C801B7010E94B7129B01AC01B901CA0128
:101F00001F910F91FF90EF900895A0E0B0E0EBE8F3
:101F1000FFE00C94A015DC012B01FA019C9192309A
:101F200008F439C1EB018881823008F433C1943060
:101F300069F4843009F02FC111969C911197898121
:101F4000981709F428C1A5E1B1E025C1843009F44E
:101F500021C18230A9F4923009F01DC19A01AD016E
:101F600088E0EA010990AE01E90109929E018150E1
:101F7000C1F7E201898111969C918923818308C16F
:101F8000923009F407C112962D903C901397EB0103
:101F90008A819B811496AD90BD90CD90DC9017976F
:101FA000EC80FD800E811F819101281B390BB90146
:101FB00037FF04C066277727621B730B60327105F9
:101FC0000CF061C0121613066CF537014801062E9D
:101FD00004C096948794779467940A94D2F721E08A
:101FE00030E040E050E004C0220F331F441F551F73
:101FF0006A95D2F721503040404050402E213F2179
:1020000040235123211531054105510521F021E0DF
:1020100030E040E050E079018A01E628F7280829FD
:1020200019293CC0232BD1F1260E371E350146015C
:10203000062E04C096948794779467940A94D2F7F6
:1020400021E030E040E050E004C0220F331F441F85
:10205000551F6A95D2F721503040404050402A2108
:102060003B214C215D21211531054105510521F010
:1020700021E030E040E050E059016A01A628B7288D
:10208000C828D9280BC0821593052CF01C01AA245E
:10209000BB24650103C0EE24FF24870111969C91A7
:1020A000D20111968C91981709F445C0992339F003
:1020B000A80197012A193B094C095D0906C0A60130
:1020C00095012E193F09400B510B57FD08C0118295
:1020D0003382228224833583468357831DC081E067
:1020E00081833382228288279927DC01821B930B0C
:1020F000A40BB50B84839583A683B7830DC0220FF1
:10210000331F441F551F24833583468357838281A1
:1021100093810197938382832481358146815781FE
:10212000DA01C9010197A109B1098F5F9F4FAF4F34
:10213000BF4328F30BC0918333822282EA0CFB1C3D
:102140000C1D1D1DE482F5820683178383E08083C6
:10215000248135814681578157FF1AC0C901AA27BA
:1021600097FDA095BA2F81709070A070B0705695B1
:10217000479537952795822B932BA42BB52B8483DA
:102180009583A683B783828193810196938382830B
:10219000DF0101C0D201CD01CDB7DEB7E2E10C9481
:1021A000BC15A0E2B0E0E7EDF0E10C94AC1569835A
:1021B0007A838B839C832D833E834F835887E9E00A
:1021C000EE2EF12CEC0EFD1ECE010196B7010E9401
:1021D000A8148E010F5E1F4FCE010596B8010E9414
:1021E000A8148A8991E089278A8BC701B801AE01BA
:1021F000475E5F4F0E94850F0E94D313A096E6E0D2
:102200000C94C815A0E2B0E0E8E0F1E10C94AC1544
:1022100069837A838B839C832D833E834F83588786
:10222000F9E0EF2EF12CEC0EFD1ECE010196B70168
:102230000E94A8148E010F5E1F4FCE010596B801B3
:102240000E94A814C701B801AE01475E5F4F0E940B
:10225000850F0E94D313A096E6E00C94C815A0E267
:10226000B0E0E5E3F1E10C94A01569837A838B83F8
:102270009C832D833E834F835887CE010196BE01F8
:10228000675F7F4F0E94A814CE010596BE016F5E66
:102290007F4F0E94A8149985923088F089898230F6
:1022A000C8F0943019F4823051F404C0843029F419
:1022B000923081F485E191E0C6C0923049F420E08B
:1022C0009A858A89981321E02A87CE010996BBC096
:1022D000823049F420E09A858A89981321E02A8B7C
:1022E000CE014196B0C02D843E844F8458886D88BD
:1022F0007E888F88988CEE24FF248701AA24BB2433
:10230000650140E050E060E070E0E0E0F0E0C10135
:1023100081709070892BE9F0E60CF71C081D191DDF
:102320009A01AB012A0D3B1D4C1D5D1D80E090E024
:10233000A0E0B0E0E614F7040805190520F481E0F8
:1023400090E0A0E0B0E0BA01A901480F591F6A1F50
:102350007B1FAA0CBB1CCC1CDD1C97FE08C081E0B7
:1023600090E0A0E0B0E0A82AB92ACA2ADB2A319678
:10237000E032F10549F0660C771C881C991C5694D4
:10238000479437942794C3CFFA85EA892B893C89EF
:102390008B859C85280F391F2E5F3F4F17C0CA01C0
:1023A00081709070892B61F016950795F794E794EA
:1023B00080E090E0A0E0B0E8E82AF92A0A2B1B2B85
:1023C00076956795579547952F5F3F4F77FDE7CFF8
:1023D0000CC0440F551F661F771F17FD4160EE0CA0
:1023E000FF1C001F111F21503040403090E0590762
:1023F00090E0690790E4790760F32B8F3C8FDB0155
:10240000CA018F779070A070B07080349105A105DB
:10241000B10561F447FD0AC0E114F104010511059D
:1024200029F0405C5F4F6F4F7F4F40781A8EFE1748
:1024300011F081E08A8F4D8F5E8F6F8F78A383E0DC
:10244000898FCE0149960E94D313A096E2E10C94A5
:10245000BC15A8E1B0E0EFE2F2E10C94AC156983A1
:102460007A838B839C832D833E834F83588789E0B7
:10247000E82EF12CEC0EFD1ECE010196B7010E9454
:10248000A8148E010F5E1F4FCE010596B8010E9461
:10249000A8148985823040F08989823028F0C701EC
:1024A000B8010E94201501C08FEF6896E6E00C94F9
:1024B000C815A8E0B0E0EFE5F2E10C94A9159B0186
:1024C000AC0183E08983DA01C9018827B7FD8395D0
:1024D0009927AA27BB27B82E21153105410551059B
:1024E00019F482E089833AC08823A9F0203080E083
:1024F000380780E0480780E8580729F460E070E07A
:1025000080E09FEC30C0EE24FF248701E21AF30A3A
:10251000040B150B02C079018A018EE1C82ED12C63
:10252000DC82CB82ED82FE820F831887C801B7015F
:102530000E94841301971816190684F4082E04C00B
:10254000EE0CFF1C001F111F0A94D2F7ED82FE82D1
:102550000F831887C81AD90ADC82CB82BA82CE01CF
:1025600001960E94D3132896E9E00C94C515ACE0BF
:10257000B0E0EDEBF2E10C94B01569837A838B83C4
:102580009C83CE010196BE016B5F7F4F0E94A81411
:102590008D81823061F1823050F1843021F48E815E
:1025A000882351F12EC02F81388537FD20C06E81E0
:1025B0002F3131051CF06623F9F023C08EE190E045
:1025C000821B930B29853A854B855C8504C0569503
:1025D0004795379527958A95D2F76623B1F05095A0
:1025E0004095309521953F4F4F4F5F4F0EC020E0F3
:1025F00030E040E050E009C02FEF3FEF4FEF5FE7E2
:1026000004C020E030E040E050E8B901CA012C9657
:10261000E2E00C94CC15A8E0B0E0E1E1F3E10C9429
:10262000A8157B018C01611571058105910519F4CF
:1026300082E0898360C083E089838EE1C82ED12C3B
:10264000DC82CB82ED82FE820F831887C801B7013E
:102650000E948413FC013197F7FF3BC022273327E8
:102660002E1B3F0B57016801022E04C0D694C7945D
:10267000B794A7940A94D2F740E050E060E070E08D
:1026800081E090E0A0E0B0E004C0880F991FAA1F8D
:10269000BB1F2A95D2F70197A109B1098E219F216D
:1026A000A023B1230097A105B10521F041E050E03E
:1026B00060E070E04A295B296C297D294D835E83A7
:1026C0006F8378878EE190E08E1B9F0B9C838B83BA
:1026D00012C0309781F00E2E04C0EE0CFF1C001FBC
:1026E000111F0A94D2F7ED82FE820F831887CE1A4B
:1026F000DF0ADC82CB821A82CE0101960E94D313BC
:102700002896EAE00C94C415EF92FF920F931F9362
:102710007B018C0180E0E81680E0F80681E0080784
:1027200080E0180788F48FEFE816F1040105110521
:1027300031F028F088E090E0A0E0B0E017C080E041
:1027400090E0A0E0B0E012C080E0E81680E0F8067B
:1027500080E0080781E0180728F088E190E0A0E019
:10276000B0E004C080E190E0A0E0B0E020E230E022
:1027700040E050E0281B390B4A0B5B0B04C0169558
:102780000795F794E7948A95D2F7F701E35EFE4F39
:102790008081281B310941095109C9011F910F91FD
:1027A000FF90EF900895DF92EF92FF920F931F93A7
:1027B000FC01E480F58006811781D1808081823020
:1027C00048F480E090E0A0E1B0E0E82AF92A0A2B82
:1027D0001B2BA5C0843009F49FC0823021F4EE2465
:1027E000FF24870105C0E114F1040105110519F466
:1027F000E0E0F0E096C0628173819FEF6238790774
:102800000CF05BC022E83FEF261B370B2A31310565
:102810002CF020E030E040E050E02AC0B801A701F1
:10282000022E04C076956795579547950A94D2F77E
:1028300081E090E0A0E0B0E004C0880F991FAA1FDB
:10284000BB1F2A95D2F70197A109B1098E219F21BB
:10285000A023B1230097A105B10521F081E090E00C
:10286000A0E0B0E09A01AB01282B392B4A2B5B2B5F
:10287000DA01C9018F779070A070B0708034910533
:10288000A105B10539F427FF09C0205C3F4F4F4F28
:102890005F4F04C0215C3F4F4F4F5F4FE0E0F0E0DF
:1028A0002030A0E03A07A0E04A07A0E45A0710F061
:1028B000E1E0F0E079018A0127C06038710564F534
:1028C000FB01E158FF4FD801C7018F779070A070CE
:1028D000B07080349105A105B10539F4E7FE0DC053
:1028E00080E490E0A0E0B0E004C08FE390E0A0E0DE
:1028F000B0E0E80EF91E0A1F1B1F17FF05C0169552
:102900000795F794E794319687E016950795F79425
:10291000E7948A95D1F705C0EE24FF248701EFEFF5
:10292000F0E06E2F679566276795902F9F77D79475
:10293000DD24D7948E2F8695492F462B582F5D295D
:10294000B701CA011F910F91FF90EF90DF9008959A
:10295000FC01DB01408151812281622F6F7770E0A1
:10296000221F2227221F9381892F880F822B282F35
:1029700030E0991F9927991F11969C931197211563
:102980003105A9F5411551056105710511F482E084
:1029900037C082E89FEF13969C938E9312979A010B
:1029A000AB0167E0220F331F441F551F6A95D1F713
:1029B00083E08C930DC0220F331F441F551F1296C6
:1029C0008D919C911397019713969C938E931297D8
:1029D000203080E0380780E0480780E4580758F34B
:1029E00014962D933D934D935C93179708952F3F25
:1029F000310579F4411551056105710519F484E03B
:102A00008C93089564FF03C081E08C9312C01C92E4
:102A100010C02F57304013963C932E93129783E0AB
:102A20008C9387E0440F551F661F771F8A95D1F757
:102A3000706414964D935D936D937C9317970895EE
:102A40001F93DC01FB019C91923008F447C0808108
:102A5000823008F443C0943051F411961C918430B4
:102A600099F58181682F70E0611B71093FC0843046
:102A700021F0923031F48230B9F18181882389F1DB
:102A80002DC011961C9111978230F1F08181181799
:102A9000D9F412962D913C911397828193818217DC
:102AA000930794F028173907BCF014968D919D91E7
:102AB0000D90BC91A02D2481358146815781281726
:102AC00039074A075B0718F4112341F00AC082173F
:102AD0009307A407B50740F4112319F061E070E0F3
:102AE00005C06FEF7FEF02C060E070E0CB011F9187
:102AF000089597FB092E07260AD077FD04D00CD045
:102B000006D000201AF4709561957F4F0895F6F76E
:102B1000909581959F4F0895AA1BBB1B51E107C05B
:102B2000AA1FBB1FA617B70710F0A61BB70B881F5D
:102B3000991F5A95A9F780959095BC01CD010895EC
:102B40002F923F924F925F926F927F928F929F92BD
:102B5000AF92BF92CF92DF92EF92FF920F931F93AB
:102B6000CF93DF93CDB7DEB7CA1BDB0B0FB6F8945C
:102B7000DEBF0FBECDBF09942A88398848885F849C
:102B80006E847D848C849B84AA84B984C884DF800D
:102B9000EE80FD800C811B81AA81B981CE0FD11DF1
:102BA0000FB6F894DEBF0FBECDBFED010895A0E0D3
:102BB000B0E0EDEDF5E10C94A815EC01A880B9802A
:102BC000CA80DB80A114B104C104D10441F484E2C1
:102BD000A82E89EDB82E8BE5C82E87E0D82EC60129
:102BE000B5012DE133EF41E050E00E94901627EA55
:102BF00031E440E050E00E9471167B018C01C60177
:102C0000B5012DE133EF41E050E00E949016CA017A
:102C1000B9012CEE34EF4FEF5FEF0E9471166E0D8D
:102C20007F1D801F911F97FF04C06150704080403E
:102C30009048688379838A839B839B013F77C9018E
:102C4000CDB7DEB7EAE00C94C4150E94D7150895FD
:102C50008DE192E00E94D7150895A0E0B0E0809346
:102C60001D0290931E02A0931F02B09320020895AC
:102C7000FB019F01E8944230C4F04532B4F44A307D
:102C800029F497FB1EF4909581959F4F642F772729
:102C90000E948C15805D8A330CF0895D8193CB0195
:102CA0000097A1F716F45DE251931082C9010C94CC
:102CB0006116F999FECF92BD81BDF89A992780B52A
:102CC0000895DC01FC01672F71917723E1F73297BA
:102CD00004C07C916D9370836291AE17BF07C8F3F7
:102CE0000895629FD001739FF001829FE00DF11D56
:102CF000649FE00DF11D929FF00D839FF00D749F76
:102D0000F00D659FF00D9927729FB00DE11DF91F21
:102D1000639FB00DE11DF91FBD01CF01112408957E
:102D200097FB092E05260ED057FD04D014D00AD0EB
:102D3000001C38F450954095309521953F4F4F4FEA
:102D40005F4F0895F6F790958095709561957F4F48
:102D50008F4F9F4F0895A1E21A2EAA1BBB1BFD01A6
:102D60000DC0AA1FBB1FEE1FFF1FA217B307E4076A
:102D7000F50720F0A21BB30BE40BF50B661F771FC2
:102D8000881F991F1A9469F76095709580959095A2
:0E2D90009B01AC01BD01CF010895F894FFCF67
:102D9E007374617274696E67202000010003000174
:102DAE000001C8C8C80000000000000000000102B9
:102DBE0002030303030404040404040404050505C8
:102DCE0005050505050505050505050505060606A2
:102DDE000606060606060606060606060606060685
:102DEE000606060606060606060606060607070772
:102DFE000707070707070707070707070707070755
:102E0E000707070707070707070707070707070744
:102E1E000707070707070707070707070707070734
:102E2E000707070707070707070707070708080821
:102E3E000808080808080808080808080808080804
:102E4E0008080808080808080808080808080808F4
:102E5E0008080808080808080808080808080808E4
:102E6E0008080808080808080808080808080808D4
:102E7E0008080808080808080808080808080808C4
:102E8E0008080808080808080808080808080808B4
:102E9E0008080808080808080808080808080808A4
:102EAE0008080808080808080808080808010000AB
:022EBE00000012
:00000001FF
