:100000000C9434000C9451000C9451000C94510049
:100010000C9451000C9451000C94D7060C94510090
:100020000C9451000C9451000C9451000C9453000A
:100030000C9451000C9451000C94E7130C94510053
:100040000C9451000C9451000C9451000C945100EC
:100050000C9451000C9451000C9451000C94060423
:100060000C9451000C94510011241FBECFEFD8E026
:10007000DEBFCDBF12E0A0E0B1E0E6E5F8E302C0EC
:1000800005900D92A037B107D9F713E0A0E7B2E0D1
:1000900001C01D92AB33B107E1F70E94A4090C9493
:1000A000291C0C9400001F920F920FB60F9211247E
:1000B0003F924F925F926F927F928F929F92AF92F8
:1000C000BF92CF92DF92EF92FF920F931F932F93E5
:1000D0003F934F935F936F937F938F939F93AF93D0
:1000E000BF93CF93DF93EF93FF9321E030E0309302
:1000F0005A012093590180919E0290919F02892B71
:1001000009F054C080917800909179009093EB02AF
:100110008093EA0245E040937C0062EB60937A00B2
:1001200051E050937B008091EC0290E09093EE02BE
:100130008093ED0230939F0220939E028091EC0207
:10014000882309F44EC01092EE021092ED02109234
:10015000F0021092EF021092F2021092F10210924D
:10016000F4021092F3021092F6021092F5024093FC
:100170007C0060937A0050937B0010928100109273
:1001800085001092840010929F0210929E0210929D
:100190009902109298028091A0029091A102039678
:1001A0009093A1028093A00245BD1BC080919E0246
:1001B00090919F02019721F58091780090917900AC
:1001C0009093E9028093E8028091EC0290E0909392
:1001D000F0028093EF0282E090E090939F02809380
:1001E0009E028091A2029091A3022091780030910A
:1001F0007900820F931F9093A3028093A202E2C220
:1002000080919E0290919F02029751F48091EC029E
:1002100090E09093F2028093F10283E090E00FC0AF
:1002200080919E0290919F02039771F48091EC025D
:1002300090E09093F4028093F30284E090E0909336
:100240009F0280939E02BEC280919E0290919F0267
:10025000049709F0B7C28091EC0290E09093F60207
:100260008093F50210929F0210929E028091EF02FD
:100270009091F0022091F1023091F2024091F3024C
:100280005091F4026091F5027091F602820F80584D
:10029000840F90E08617970709F063C28091ED0202
:1002A0009091EE02892B09F05CC28091E802909156
:1002B000E902845893401CF033243A9499C0209169
:1002C000E8023091E9028091CC029091CD02821730
:1002D000930714F433248CC051E0452E512C209107
:1002E000E8023091E902E201CC0FDD1FC453DD4F7B
:1002F000888199818217930754F00894411C511CFE
:100300008EE04816510459F72AE5322E71C06881F3
:100310007981F201EE0FFF1FE653FD4F20813181FD
:10032000621B730B882777FD8095982F0E94B51765
:100330009B01AC010E945E163B014C01E880F980F4
:100340006091E8027091E902882777FD8095982FE7
:100350000E94B5175B016C010027F7FC0095102F78
:10036000C801B7010E94B5177B018C01B201882733
:1003700077FD8095982F0E94B51720E030E040E08F
:100380005FE30E948B1620E030E040E050E00E94E6
:100390005E169B01AC01C401B3010E948B169B0148
:1003A000AC01C801B7010E942D169B01AC01C6012A
:1003B000B5010E942D1620E030E040E251E40E9499
:1003C0008B160E9413187B018C01C401B3010E949B
:1003D00013189B01AC01C701B9010E94D51A8827E7
:1003E00077FD8095982F0E94B5170E94B514362E80
:1003F0008091E8029091E9028D5B92400CF4A2C0DA
:100400002091EA023091EB028091B0029091B1020A
:10041000821793070CF48BC081E0482E512C209159
:10042000EA023091EB02E201CC0FDD1FC055DD4F37
:10043000888199818217930744F00894411C511CCC
:100440008EE04816510459F772C068817981F20133
:10045000EE0FFF1FE255FD4F20813181621B730BB0
:10046000882777FD8095982F0E94B5179B01AC01D6
:100470000E945E163B014C01E880F9806091EA021F
:100480007091EB02882777FD8095982F0E94B51711
:100490005B016C010027F7FC0095102FC801B70124
:1004A0000E94B5177B018C01B201882777FD8095EA
:1004B000982F0E94B51720E030E040E05FE30E94F3
:1004C0008B1620E030E040E050E00E945E169B0179
:1004D000AC01C401B3010E948B169B01AC01C801A1
:1004E000B7010E942D169B01AC01C601B5010E9407
:1004F0002D1620E030E040E251E40E948B160E946D
:1005000013187B018C01C401B3010E9413189B01D5
:10051000AC01C701B9010E94D51A882777FD8095E3
:10052000982F0E94B5170E94B5146F3F59F02FEF16
:10053000321641F08091E8029091E9028091E80240
:100540009091E902E0912703F09128038091EF0256
:100550009091F002EE0FFF1FE950FD4F91838083D1
:10056000E0912703F09128038091F1029091F2022B
:10057000EE0FFF1FE150FD4F91838083E091270331
:10058000F09128038091F3029091F402EE0FFF1F87
:10059000E95FFC4F91838083E0912703F09128036A
:1005A0008091EA029091EB02EE0FFF1FE15FFC4F9A
:1005B00091838083E0912703F09128038091E802E2
:1005C0009091E902EE0FFF1FE95EFC4F918380835B
:1005D000E0912703F0912803EE0FFF1FE15EFC4F2F
:1005E00081E090E09183808380912703909128039C
:1005F000019690932803809327038091270390917D
:100600002803049721F41092280310922703809165
:10061000F3029091F40280FFA4C08091F1029091C6
:10062000F202892B09F09DC08091EF029091F002B7
:1006300009970CF096C020915B0130915C0180918C
:10064000EF029091F0022817390709F48AC08091CF
:10065000EF029091F002039709F46BC040E050E084
:1006600020C0FA01EE0FFF1FEB5CFC4F20813181AF
:100670008091EF029091F0022817390781F01092D3
:1006800036031092350310923803109237031092FC
:100690003A03109239031092A5021092A4024F5F00
:1006A0005F4F8091A4029091A50248175907CCF2A0
:1006B0008091A4029091A5020397BCF4E091A4025A
:1006C000F091A5028091EF029091F002EE0FFF1FD2
:1006D000EB5CFC4F918380838091A4029091A502F2
:1006E00001969093A5028093A4028091A402909118
:1006F000A5020397F1F48091EF029091F00290939C
:100700005C0180935B0181E090E090935E018093B7
:100710005D01109236031092350310923803109247
:10072000370310923A03109239031092A5021092E7
:10073000A4028091EF029091F002039791F421E0DE
:1007400030E030939702209396028091EF029091CF
:10075000F00290935C0180935B0130935E012093E3
:100760005D0125E020937C0082EB80937A0081E09C
:1007700080937B0010929902109298021092EE02E0
:100780001092ED021092F0021092EF021092F2021B
:100790001092F1021092F4021092F3021092F602FB
:1007A0001092F50210928100109285001092840040
:1007B0008091A0029091A1020C969093A102809347
:1007C000A00225BD1092EC02FF91EF91DF91CF9135
:1007D000BF91AF919F918F917F916F915F914F9159
:1007E0003F912F911F910F91FF90EF90DF90CF904D
:1007F000BF90AF909F908F907F906F905F904F9041
:100800003F900F900FBE0F901F9018951F920F9260
:100810000FB60F9211242F933F938F939F932091A4
:1008200084003091850015BC8091590190915A0146
:10083000019711F5109285001092840081E0809359
:10084000810080917A008F7D80937A0080919E0252
:1008500090919F02892B29F489E08093890080E898
:1008600004C088E08093890080E48093880010921F
:100870005A011092590139C084E02F393807D4F455
:1008800082E02B3838075CF42158314024F4809101
:10089000EC02805828C08091EC02805C24C025596D
:1008A000334024F48091EC02805E1DC08091EC0204
:1008B000805F19C086E0233B38075CF4295A354035
:1008C00024F48091EC02885F0EC08091EC028C5F72
:1008D0000AC02D5B374024F48091EC028E5F03C088
:1008E0008091EC028F5F8093EC0281E090E0909326
:1008F0009902809398029F918F913F912F910F9031
:100900000FBE0F901F901895AC0120E030E0FA0167
:10091000E20FF31F80818093C6008091C00085FFA5
:10092000FCCF2F5F3F4F2A30310589F78AE0809353
:10093000C6008091C00085FFFCCF8DE08093C6008B
:100940008091C00085FFFCCF08958AE08093C600A7
:100950008091C00085FFFCCF0895CF92DF92EF9287
:10096000FF920F931F93DF93CF93CDB7DEB72C97F2
:100970000FB6F894DEBF0FBECDBF282F78948091BC
:10098000980290919902019719F422E030E0C7C0D3
:10099000549A29836A834B832058260F240F2C8373
:1009A0006E010894C11CD11CDE0115968D017D01DC
:1009B000F60161916F0170E09B0120723070F3E0ED
:1009C00035952795FA95E1F7CB0180719070959553
:1009D0008795280F391FCB018074907055E095954D
:1009E00087955A95E1F7280F391FCB01880F892F7A
:1009F000881F990B9195280F391FCB01817090703A
:100A0000880F991F880F991FAB0142705070840F97
:100A1000951F880F991F880F991FAB014470507064
:100A2000840F951F880F991F880F991F6870707029
:100A3000860F971F880F991F280F391F220F331F0A
:100A40002F5F3F4FF801219331938F01CE14DF04C4
:100A500009F0AECFF8948091980290919902892B79
:100A600009F04AC05C9A000000005C9880E090E0C9
:100A70000000019685339105D9F780E090E000B63B
:100A800005FE05C05C98789423E030E048C000B6CD
:100A900005FE05C05C98789424E030E040C00196E3
:100AA000813C910561F71FC020FF04C05C9A0000E3
:100AB000000003C05C98000000005C9880E090E0BB
:100AC0000000019683329105D9F73695279541505C
:100AD0005040FFEF4F3F5F0739F72D933D93A61727
:100AE000B70721F40EC0BE01635F7F4F2D913C918B
:100AF000119748E050E0D8CF5C98789425E030E03A
:100B00000EC05C9880E090E0000001968233910571
:100B1000D9F780B7806180BF789421E030E0C901C7
:100B20002C960FB6F894DEBF0FBECDBFCF91DF91EC
:100B30001F910F91FF90EF90DF90CF9008958091DB
:100B40007A00F89486E080937C0080917A0080643B
:100B500080937A0080917A0084FFFCCF7894609132
:100B600078007091790080E090E00E9467182AEC8C
:100B700034E541EC5BE30E948B1624E237E94FE752
:100B80005CE30E945E1620E030E048EC52E40E94F4
:100B90008B160E941318CB010895109297021092A1
:100BA0009602F89484E083BF14BE8091600088614F
:100BB0008093600081E68093600014B815B817B880
:100BC00018B81AB81BB8789480917A008F77809300
:100BD0007A00A89583B7816083BF8895789434E0C4
:100BE00021E61BC033BF14BE8091600088618093F2
:100BF00060002093600014B815B817B818B81AB878
:100C00001BB8789480917A008F7780937A00A895AA
:100C100083B7816083BF8895789480919602909184
:100C20009702892BF9F2539A239A8091B000816A36
:100C30008093B0008091B10082608093B1001092E7
:100C4000B4001092B3000895982F40FF02C03C9A60
:100C500001C03C98443014F03A9A01C03A98842F6D
:100C6000859580FF02C03B9A01C03B9890FF02C06F
:100C7000559A01C05598943014F0269A01C02698D0
:100C8000892F859580FF02C0279A01C0279860FFB1
:100C900002C0229A01C02298643014F0209A01C048
:100CA0002098862F859580FF02C0219A089521986B
:100CB0000895359B08C080E060E040E00E94240673
:100CC00020E030E072C081E060E040E00E94240655
:100CD00080ED97E028EC30E0F9013197F1F70197CA
:100CE000D9F782E060E040E00E94240680ED97E0C2
:100CF00028EC30E0F9013197F1F70197D9F783E05B
:100D000060E040E00E94240680ED97E028EC30E0AF
:100D1000F9013197F1F70197D9F784E060E040E0FD
:100D20000E94240680ED97E028EC30E0F90131972D
:100D3000F1F70197D9F785E060E040E00E942406D2
:100D400080ED97E028EC30E0F9013197F1F7019759
:100D5000D9F786E060E040E00E94240680ED97E04D
:100D600028EC30E0F9013197F1F70197D9F787E0E6
:100D700060E040E00E94240680ED97E028EC30E03F
:100D8000F9013197F1F70197D9F780E060E040E091
:100D90000E94240680ED97E028EC30E0F9013197BD
:100DA000F1F70197D9F721E030E0C90108951F92CA
:100DB0000F920FB60F9211242F933F934F935F938F
:100DC0006F937F938F939F93AF93BF93EF93FF9313
:100DD000A895529A5A9AEAE7F0E080818068808369
:100DE000E0E6F0E08081886180831082789487E07B
:100DF00067E047E00E94240680E29EE40197F1F755
:100E000080E060E040E00E942406FF91EF91BF91F6
:100E1000AF919F918F917F916F915F914F913F9192
:100E20002F910F900FBE0F901F901895A091270340
:100E3000B0912803109234031092330320E030E085
:100E4000109719F4A3E0B0E001C01197FD01EE0F77
:100E5000FF1FE15EFC4F80819181019709F045C041
:100E6000F894FD01EE0FFF1FE950FD4F8081918145
:100E700090932A0380932903FD01EE0FFF1FE15099
:100E8000FD4F8081918190932C0380932B03FD0172
:100E9000EE0FFF1FE95FFC4F8081918190932E033D
:100EA00080932D03FD01EE0FFF1FE15FFC4F80815A
:100EB00091819093300380932F03AA0FBB1FFD01F4
:100EC000E95EFC4F808191819093320380933103DE
:100ED000789481E090E09093340380933303A15E93
:100EE000BC4F11961C921E9206C02F5F3F4F2430BC
:100EF000310509F0A5CF8091330390913403019718
:100F0000B9F480913103909132038D3C91051CF02E
:100F100080E061E00BC08091310390913203823C0C
:100F2000910514F481E001C080E060E040E003C07E
:100F300080E060E042E00E9424060895CF93DF93B2
:100F4000A0912703B091280320E030E0109719F416
:100F5000A3E0B0E001C01197ED01CC0FDD1FC15E31
:100F6000DC4F888199810197A1F5FD01EE0FFF1FEC
:100F7000E950FD4F208131813093950220939402F6
:100F8000FD01EE0FFF1FE150FD4F80819181909395
:100F9000930280939202FD01EE0FFF1FE95FFC4F69
:100FA000408151815093910240939002AA0FBB1F40
:100FB000FD01E15FFC4F0190F081E02DA95EBC4F87
:100FC0006D917C91198218822817390709F066C043
:100FD00007C02F5F3F4F2430310509F0B7CF5EC007
:100FE000452B09F05BC021303105A1F480917C02D2
:100FF00090917D02E80FF91FF0937D02E0937C024F
:101000008091860290918702019690938702809347
:10101000860244C022303105A1F480917E02909175
:101020007F02E80FF91FF0937F02E0937E02809128
:101030008802909189020196909389028093880298
:101040002DC023303105A1F480918002909181025E
:10105000E80FF91FF0938102E093800280918A02E9
:1010600090918B02019690938B0280938A0216C016
:101070002430310599F48091820290918302E80F27
:10108000F91FF0938302E093820280918C02909189
:101090008D02019690938D0280938C02DF91CF9107
:1010A0000895209127033091280360E070E040E02C
:1010B00050E02115310519F423E030E002C0215041
:1010C0003040F901EE0FFF1FE15EFC4F80819181FE
:1010D000019721F41182108261E070E04F5F5F4F51
:1010E0004430510531F76130710519F480E061E059
:1010F00002C081E060E040E00E9424060895EF9283
:10110000FF920F931F93DF93CF93CDB7DEB72A974C
:101110000FB6F894DEBF0FBECDBF8E010F5F1F4F1D
:1011200078019E01255F3F4FF70111927F01E21781
:10113000F307D1F7BE016F5F7F4F4AE050E00E9496
:10114000941BF80180818093C6008091C00085FFC8
:10115000FCCF0F5F1F4F0E151F0599F780E280939C
:10116000C6008091C00085FFFCCF2A960FB6F89488
:10117000DEBF0FBECDBFCF91DF911F910F91FF90CA
:10118000EF900895EF92FF920F931F93DF93CF9309
:10119000CDB7DEB72A970FB6F894DEBF0FBECDBF2E
:1011A0008E010F5F1F4F78019E01255F3F4FF701B2
:1011B00011927F01E217F307D1F7BE016F5F7F4FF6
:1011C0004AE050E00E94941BF80180818093C600A1
:1011D0008091C00085FFFCCF0F5F1F4F0E151F05CC
:1011E00099F78AE08093C6008091C00085FFFCCF0C
:1011F0008DE08093C6008091C00085FFFCCF2A96C9
:101200000FB6F894DEBF0FBECDBFCF91DF911F9117
:101210000F91FF90EF900895EF92FF920F931F931D
:10122000CF93DF93A0912703B091280320E030E013
:10123000109719F4A3E0B0E001C01197ED01CC0FB5
:10124000DD1FC15EDC4F888199810197C9F5FD01E1
:10125000EE0FFF1FE950FD4F0081118110937B02BB
:1012600000937A02FD01EE0FFF1FE150FD4F6081F8
:1012700071817093790260937802FD01EE0FFF1F78
:10128000E95FFC4F40815181509377024093760291
:10129000AA0FBB1FFD01E15FFC4FE080F180A95E5A
:1012A000BC4FED91FC911982188280917502382F04
:1012B00030583093720290E00817190709F507C0FB
:1012C0002F5F3F4F2430310509F0B2CF36C0209157
:1012D0007402822F90E06817790791F4809173026D
:1012E00090E04817590761F4231751F4C701865B52
:1012F0009340459728F4E831F10514F0B7972CF0A6
:10130000109271021092700209C080917002909147
:10131000710201969093710280937002802F8F5F0B
:1013200080937502862F8F5F80937402842F8E5F67
:1013300080937302C7010E94C208DF91CF911F9171
:101340000F91FF90EF9008952F923F924F925F92EE
:101350006F927F928F929F92AF92BF92CF92DF92C5
:10136000EF92FF920F931F93DF93CF93CDB7DEB72A
:10137000C255D0400FB6F894DEBF0FBECDBF14B833
:1013800015B817B818B81AB81BB881E090E00E94D9
:10139000B51B80936600519A81E090E09093C50060
:1013A0008093C4001092C0008091C1008860809337
:1013B000C1008091C20086608093C20080B78B60BC
:1013C00080BF83E080937F0085E080937C0083EC86
:1013D00080937A001092800081E08093810082E007
:1013E00080936F0082E3809389001092880080E0F0
:1013F00091E00E94840478948DE0482E512C4C0E8C
:101400005D1E9E01235B3F4F2F963FAF2EAF2F9760
:101410001E010894211C311CCE01815B9F4F6196F7
:101420009FAF8EAF619705E0602E712C6C0E7D1E14
:1014300080919C0290919D02009709F0E5C2A091D5
:101440002703B0912803109234031092330320E055
:1014500030E0109719F4A3E0B0E001C01197FD014E
:10146000EE0FFF1FE15EFC4F80819181019709F033
:1014700045C0F894FD01EE0FFF1FE950FD4F80813C
:10148000918190932A0380932903FD01EE0FFF1FA2
:10149000E150FD4F8081918190932C0380932B0329
:1014A000FD01EE0FFF1FE95FFC4F8081918190935A
:1014B0002E0380932D03FD01EE0FFF1FE15FFC4F14
:1014C000808191819093300380932F03AA0FBB1FDB
:1014D000FD01E95EFC4F80819181909332038093FE
:1014E0003103789481E090E0909334038093330348
:1014F000A15EBC4F11961C921E9206C02F5F3F4FFB
:101500002430310509F0A5CFA0912703B09128031D
:10151000109234031092330320E030E0109719F456
:10152000A3E0B0E001C01197FD01EE0FFF1FE15EE7
:10153000FC4F80819181019709F045C0F894FD012D
:10154000EE0FFF1FE950FD4F8081918190932A0398
:1015500080932903FD01EE0FFF1FE150FD4F8081B5
:10156000918190932C0380932B03FD01EE0FFF1FBD
:10157000E95FFC4F8081918190932E0380932D032E
:10158000FD01EE0FFF1FE15FFC4F80819181909381
:10159000300380932F03AA0FBB1FFD01E95EFC4FB0
:1015A000808191819093320380933103789481E01C
:1015B00090E09093340380933303A15EBC4F119667
:1015C0001C921E9206C02F5F3F4F2430310509F058
:1015D000A5CFA0912703B091280310923403109255
:1015E000330320E030E0109719F4A3E0B0E001C02D
:1015F0001197FD01EE0FFF1FE15EFC4F808191818D
:10160000019709F045C0F894FD01EE0FFF1FE95066
:10161000FD4F8081918190932A0380932903FD01DE
:10162000EE0FFF1FE150FD4F8081918190932C03BD
:1016300080932B03FD01EE0FFF1FE95FFC4F8081BC
:10164000918190932E0380932D03FD01EE0FFF1FD8
:10165000E15FFC4F808191819093300380932F0351
:10166000AA0FBB1FFD01E95EFC4F80819181909321
:10167000320380933103789481E090E090933403B7
:1016800080933303A15EBC4F11961C921E9206C03C
:101690002F5F3F4F2430310509F0A5CFA0912703DC
:1016A000B0912803109234031092330320E030E00D
:1016B000109719F4A3E0B0E001C01197FD01EE0FFF
:1016C000FF1FE15EFC4F80819181019709F045C0C9
:1016D000F894FD01EE0FFF1FE950FD4F80819181CD
:1016E00090932A0380932903FD01EE0FFF1FE15021
:1016F000FD4F8081918190932C0380932B03FD01FA
:10170000EE0FFF1FE95FFC4F8081918190932E03C4
:1017100080932D03FD01EE0FFF1FE15FFC4F8081E1
:1017200091819093300380932F03AA0FBB1FFD017B
:10173000E95EFC4F80819181909332038093310365
:10174000789481E090E09093340380933303A15E1A
:10175000BC4F11961C921E9206C02F5F3F4F243043
:10176000310509F0A5CFA0912703B091280310926D
:1017700034031092330320E030E0109719F4A3E013
:10178000B0E001C01197FD01EE0FFF1FE15EFC4FBD
:1017900080819181019709F045C0F894FD01EE0F19
:1017A000FF1FE950FD4F8081918190932A03809320
:1017B0002903FD01EE0FFF1FE150FD4F8081918154
:1017C00090932C0380932B03FD01EE0FFF1FE95F25
:1017D000FC4F8081918190932E0380932D03FD0116
:1017E000EE0FFF1FE15FFC4F8081918190933003EA
:1017F00080932F03AA0FBB1FFD01E95EFC4F808180
:1018000091819093320380933103789481E090E04A
:101810009093340380933303A15EBC4F11961C92C6
:101820001E9206C02F5F3F4F2430310509F0A5CF2F
:10183000A0912703B0912803109234031092330330
:1018400020E030E0109719F4A3E0B0E001C0119758
:10185000FD01EE0FFF1FE15EFC4F8081918101973A
:1018600009F045C0F894FD01EE0FFF1FE950FD4F50
:101870008081918190932A0380932903FD01EE0FCB
:10188000FF1FE150FD4F8081918190932C03809345
:101890002B03FD01EE0FFF1FE95FFC4F808191815B
:1018A00090932E0380932D03FD01EE0FFF1FE15F48
:1018B000FC4F808191819093300380932F03AA0F76
:1018C000BB1FFD01E95EFC4F808191819093320343
:1018D00080933103789481E090E090933403809377
:1018E0003303A15EBC4F11961C921E9206C02F5F5F
:1018F0003F4F2430310509F0A5CFA0912703B091C7
:101900002803109234031092330320E030E0109744
:1019100019F4A3E0B0E001C01197FD01EE0FFF1F25
:10192000E15EFC4F80819181019709F045C0F894F8
:10193000FD01EE0FFF1FE950FD4F808191819093D3
:101940002A0380932903FD01EE0FFF1FE150FD4F95
:101950008081918190932C0380932B03FD01EE0FE6
:10196000FF1FE95FFC4F8081918190932E0380934C
:101970002D03FD01EE0FFF1FE15FFC4F8081918180
:101980009093300380932F03AA0FBB1FFD01E95EE4
:10199000FC4F80819181909332038093310378943E
:1019A00081E090E09093340380933303A15EBC4FB9
:1019B00011961C921E9206C02F5F3F4F24303105B6
:1019C00009F0A5CF8BE091E00E94840480919C02F5
:1019D00090919D020E94C208789480919802909103
:1019E0009902892BD1F381E090E090939D0280933E
:1019F0009C028BE091E00E94840480919C02909173
:101A00009D020E94C208AAC18130910509F09BC0C5
:101A100041E050E0A0912703B091280310923403D5
:101A20001092330320E030E0109719F4A3E0B0E007
:101A300001C01197FD01EE0FFF1FE15EFC4F808199
:101A40009181019709F043C0F894FD01EE0FFF1F4B
:101A5000E950FD4F8081918190932A03809329035F
:101A6000FD01EE0FFF1FE150FD4F808191819093AA
:101A70002C0380932B03FD01EE0FFF1FE95FFC4F4A
:101A80008081918190932E0380932D03FD01EE0FB1
:101A9000FF1FE15FFC4F8081918190933003809321
:101AA0002F03AA0FBB1FFD01E95EFC4F80819181CE
:101AB000909332038093310378945093340340938E
:101AC0003303A15EBC4F11961C921E9206C02F5F7D
:101AD0003F4F2430310509F0A7CF80913303909117
:101AE0003403892BD9F4F8943C9A449A00000000FE
:101AF00044983C9880E090E0000001968233910584
:101B0000D9F780B7806180BF789480E090E00000D2
:101B10000196E3E0823A9E07D1F77CCF82E090E025
:101B200090939D0280939C028BE091E00E9484043C
:101B300080919C0290919D020E94C20810929B028B
:101B400010929A020BC1029709F008C14201F201FA
:101B5000118210821382128234962F962EAD3FADE1
:101B60002F97E217F307A1F761E070E0AE01415F44
:101B70005F4FA0912703B091280310923403109275
:101B8000330320E030E0109719F4A3E0B0E001C087
:101B90001197FD01EE0FFF1FE15EFC4F80819181E7
:101BA000019709F043C0F894FD01EE0FFF1FE950C3
:101BB000FD4F8081918190932A0380932903FD0139
:101BC000EE0FFF1FE150FD4F8081918190932C0318
:101BD00080932B03FD01EE0FFF1FE95FFC4F808117
:101BE000918190932E0380932D03FD01EE0FFF1F33
:101BF000E15FFC4F808191819093300380932F03AC
:101C0000AA0FBB1FFD01E95EFC4F8081918190937B
:101C100032038093310378947093340360933303D9
:101C2000A15EBC4F11961C921E9206C02F5F3F4FC3
:101C30002430310509F0A7CF80913303909134030C
:101C4000019781F58091290390912A03409754F5DB
:101C50008091290390912A0397FD24C0E0912903E4
:101C6000F0912A032091310330913203EE0FFF1FD0
:101C7000EE0FFF1FE20DF31D84859585280F391F98
:101C800035872487E0912903F0912A03EE0FFF1F87
:101C9000EE0FFF1F3296E20DF31D848595850196A8
:101CA00095878487FA0180E991E0208131812817A6
:101CB00039070CF4C901349661962EAD3FAD61979A
:101CC000E217F30791F7873491050CF452CFAA2459
:101CD000AA94BA2C58EEC52E53E0D52EEE24FF243C
:101CE000F40162817381808191810E94D51A8B01F8
:101CF000CB010E94C208C7010E94C20887E191E09F
:101D00000E948404C8018E50914097FF03C09095B3
:101D100081959F4F8C159D0514F0C60101C0570198
:101D20000894E11CF11C24E030E0820E931E30E1A7
:101D3000E316F10411F06C01D3CF8AE291E00E9426
:101D40008404C5010E94C208B0925801A0925701B4
:101D500083E090E090939D0280939C0280919C028E
:101D600090919D02039709F063CB8BE091E00E9474
:101D7000840480919C0290919D020E94C208A091CF
:101D80002703B0912803109234031092330320E00C
:101D900030E0109719F4A3E0B0E001C01197FD0105
:101DA000EE0FFF1FE15EFC4F80819181019709F0EA
:101DB00045C0F894FD01EE0FFF1FE950FD4F8081F3
:101DC000918190932A0380932903FD01EE0FFF1F59
:101DD000E150FD4F8081918190932C0380932B03E0
:101DE000FD01EE0FFF1FE95FFC4F80819181909311
:101DF0002E0380932D03FD01EE0FFF1FE15FFC4FCB
:101E0000808191819093300380932F03AA0FBB1F91
:101E1000FD01E95EFC4F80819181909332038093B4
:101E20003103789481E090E09093340380933303FE
:101E3000A15EBC4F11961C921E9293C42F5F3F4F20
:101E40002430310509F0A5CF8CC48AB18D638AB9DD
:101E500087B18F6187B984B1876C84B9B09057011D
:101E600000E010E0ADE0AA2EF0E28F2EFEE49F2EFF
:101E700019821B82BA8278940115110521F481E040
:101E80008983A1E017C00130110519F4A982A4E0EB
:101E900011C00230110521F49EE09983A8E00AC028
:101EA0000330110521F4ECE0E983A0E103C0FBE07D
:101EB000F983A0E28091980290919902B0E0019795
:101EC00009F4B1E0898180588B0D8C8363963FAE15
:101ED0002EAE6397730163016396EEADFFAD63971A
:101EE00061916396FFAFEEAF639770E09B01207244
:101EF0003070E3E035952795EA95E1F7CB018071E5
:101F0000907095958795280F391FCB01807490703C
:101F100045E0959587954A95E1F7280F391FCB0144
:101F2000880F892F881F990B9195280F391FCB0196
:101F300081709070880F991F880F991FAB014270B4
:101F40005070840F951F880F991F880F991FAB0140
:101F500044705070840F951F880F991F880F991F28
:101F600068707070860F971F880F991F280F391F90
:101F7000220F331F2F5F3F4FF601219331936F01E3
:101F800063962EAD3FAD63972615370509F0A4CFB4
:101F9000F89480919802909199026A2F6095892B0C
:101FA00009F04AC08BB18A2B8BB9000000000000F9
:101FB0008BB186238BB980E090E0000001968533D9
:101FC0009105D9F780E090E000B605FE01C0000061
:101FD00000000196873F9105B9F7BB2339F130C066
:101FE00020FF06C08BB18A2B8BB90000000005C012
:101FF0008BB186238BB9000000008BB186238BB98F
:1020000080E090E00000019683329105D9F7369583
:102010002795415050408FEF4F3F580709F7F70180
:10202000219331937F01E415F50551F0F7012081EB
:10203000318148E050E0D4CF8BB168236BB97894FC
:102040008BB1A095A823ABB9BB2361F480E090E0ED
:102050000000019682339105D9F780B7806180BF77
:10206000789401C07894C4010197F1F70F5F1F4F76
:102070000530110509F0FCCEA0912703B09128038B
:10208000109234031092330320E030E0109719F4DB
:10209000A3E0B0E001C01197FD01EE0FFF1FE15E6C
:1020A000FC4F80819181019709F045C0F894FD01B2
:1020B000EE0FFF1FE950FD4F8081918190932A031D
:1020C00080932903FD01EE0FFF1FE150FD4F80813A
:1020D000918190932C0380932B03FD01EE0FFF1F42
:1020E000E95FFC4F8081918190932E0380932D03B3
:1020F000FD01EE0FFF1FE15FFC4F80819181909306
:10210000300380932F03AA0FBB1FFD01E95EFC4F34
:10211000808191819093320380933103789481E0A0
:1021200090E09093340380933303A15EBC4F1196EB
:102130001C921E9206C02F5F3F4F2430310509F0DC
:10214000A5CF8091330390913403019759F0B0905B
:10215000570100E010E0A4E0AA2EF0E28F2EFEE48A
:102160009F2E08C08091290390912A0384369105FF
:1021700071F706C319821B82BA8278940115110582
:1021800021F4F5E0F983A1E016C00130110519F43E
:10219000A982A2E010C00230110521F423E02983B6
:1021A000A4E009C00330110519F41982A8E003C0A6
:1021B00032E03983A0E18091980290919902B0E0D9
:1021C000019709F4B1E0898180588B0D8C83639667
:1021D0003FAE2EAE6397730163016396EEADFFAD24
:1021E000639761916396FFAFEEAF639770E09B01D9
:1021F00020723070E3E035952795EA95E1F7CB0141
:102200008071907095958795280F391FCB01807448
:10221000907045E0959587954A95E1F7280F391F0D
:10222000CB01880F892F881F990B9195280F391F93
:10223000CB0181709070880F991F880F991FAB0197
:1022400042705070840F951F880F991F880F991F37
:10225000AB0144705070840F951F880F991F880F31
:10226000991F68707070860F971F880F991F280F2D
:10227000391F220F331F2F5F3F4FF60121933193F8
:102280006F0163962EAD3FAD63972615370509F0B4
:10229000A4CFF89480919802909199026A2F60954A
:1022A000892B09F04AC088B18A2B88B90000000048
:1022B000000088B1862388B980E090E00000019694
:1022C00085339105D9F780E090E000B605FE01C0A6
:1022D000000000000196873F9105B9F7BB2339F153
:1022E00030C020FF06C088B18A2B88B900000000EA
:1022F00005C088B1862388B90000000088B1862314
:1023000088B980E090E00000019683329105D9F70A
:1023100036952795415050408FEF4F3F580709F7AA
:10232000F701219331937F01E415F50551F0F70191
:102330002081318148E050E0D4CF88B1682368B96A
:10234000789488B1A095A823A8B9BB2361F480E054
:1023500090E00000019682339105D9F780B7806143
:1023600080BF789401C07894C4010197F1F70F5FA2
:102370001F4F0530110509F0FDCEA0912703B09144
:102380002803109234031092330320E030E01097BA
:1023900019F4A3E0B0E001C01197FD01EE0FFF1F9B
:1023A000E15EFC4F80819181019709F045C0F8946E
:1023B000FD01EE0FFF1FE950FD4F80819181909349
:1023C0002A0380932903FD01EE0FFF1FE150FD4F0B
:1023D0008081918190932C0380932B03FD01EE0F5C
:1023E000FF1FE95FFC4F8081918190932E038093C2
:1023F0002D03FD01EE0FFF1FE15FFC4F80819181F6
:102400009093300380932F03AA0FBB1FFD01E95E59
:10241000FC4F8081918190933203809331037894B3
:1024200081E090E09093340380933303A15EBC4F2E
:1024300011961C921E9206C02F5F3F4F243031052B
:1024400009F0A5CF8091330390913403019759F09F
:10245000B090570100E010E0A7E0AA2EF0E28F2E26
:10246000FEE49F2E08C08091290390912A038436B0
:10247000910571F785C119821B82BA827894011582
:10248000110521F4F6E0F983A2E017C0013011052F
:1024900019F4A982A1E011C00230110521F428E04D
:1024A0002983A4E00AC00330110521F439E03983FF
:1024B000A0E403C08AE08983A0E88091980290910B
:1024C0009902B0E0019709F4B1E0898180588B0D41
:1024D0008C8363963FAE2EAE639773016301639660
:1024E000EEADFFAD639761916396FFAFEEAF63977B
:1024F00070E09B0120723070E3E035952795EA95F6
:10250000E1F7CB018071907095958795280F391F61
:10251000CB018074907045E0959587954A95E1F7D9
:10252000280F391FCB01880F892F881F990B919590
:10253000280F391FCB0181709070880F991F880F69
:10254000991FAB0142705070840F951F880F991F1F
:10255000880F991FAB0144705070840F951F880F2E
:10256000991F880F991F68707070860F971F880FCA
:10257000991F280F391F220F331F2F5F3F4FF6017E
:10258000219331936F0163962EAD3FAD639726156E
:10259000370509F0A4CFF8948091980290919902A0
:1025A0006A2F6095892B09F04AC085B18A2B85B9BD
:1025B00000000000000085B1862385B980E090E02E
:1025C0000000019685339105D9F780E090E000B6D0
:1025D00005FE01C0000000000196873F9105B9F794
:1025E000BB2339F130C020FF06C085B18A2B85B9E5
:1025F0000000000005C085B1862385B900000000F9
:1026000085B1862385B980E090E000000196833291
:102610009105D9F736952795415050408FEF4F3FA0
:10262000580709F7F701219331937F01E415F50568
:1026300051F0F7012081318148E050E0D4CF85B1DD
:10264000682365B9789485B1A095A823A5B9BB2363
:1026500061F480E090E00000019682339105D9F7A3
:1026600080B7806180BF789401C07894C4010197DD
:10267000F1F70F5F1F4F0530110509F0FCCEA09157
:102680002703B0912803109234031092330320E003
:1026900030E0109719F4A3E0B0E001C01197FD01FC
:1026A000EE0FFF1FE15EFC4F80819181019709F0E1
:1026B00045C0F894FD01EE0FFF1FE950FD4F8081EA
:1026C000918190932A0380932903FD01EE0FFF1F50
:1026D000E150FD4F8081918190932C0380932B03D7
:1026E000FD01EE0FFF1FE95FFC4F80819181909308
:1026F0002E0380932D03FD01EE0FFF1FE15FFC4FC2
:10270000808191819093300380932F03AA0FBB1F88
:10271000FD01E95EFC4F80819181909332038093AB
:102720003103789481E090E09093340380933303F5
:10273000A15EBC4F11961C921E9206C02F5F3F4FA8
:102740002430310509F0A5CF8091330390913403F3
:10275000019739F48091290390912A0384369105D9
:1027600079F08091330390913403019709F06DCB98
:102770008091290390912A038436910509F065CB55
:1027800085E391E00E94840410929D0210929C02C5
:1027900080E491E00E94840480E491E00E9484043B
:1027A0008BE491E00E94840480E491E00E94840420
:1027B00080E491E00E94840480E49CE928EC30E00D
:1027C000F9013197F1F70197D9F70C94180A1F9284
:1027D0000F920FB60F9211242F933F934F935F9355
:1027E0006F937F938F939F93AF93BF93EF93FF93D9
:1027F0002091A6023091A7028091A0029091A1029F
:10280000820F931F9093A7028093A6022091A002AB
:102810003091A1028091AE029091AF02820F931F7E
:102820009093AF028093AE022091A8023091A9024A
:102830008091A0029091A102820F931F9093A90210
:102840008093A8022091AA023091AB028091A0024D
:102850009091A102820F931F9093AB028093AA02E2
:102860002091AC023091AD028091A0029091A10222
:1028700064E670E00E94D51A260F371F3093AD0230
:102880002093AC028091AC029091AD0281509D47A3
:1028900020F01092AD021092AC028FEF90E0909376
:1028A000A1028093A0028FEF87BD8091A602909134
:1028B000A7028C5F94406CF180915F01813049F5F3
:1028C0008091980290919902892BA1F480916001E6
:1028D000609161014091620190E070E050E00E94DF
:1028E000AD04009739F0019729F41092A7021092D5
:1028F000A6020FC00E94841B6FEF70E00E94D51AE1
:102900009093A1028093A0028091A0029091A102D5
:1029100087BD8091AE029091AF02885F9840A4F08D
:102920001092AF021092AE0210923603109235034D
:10293000109238031092370310923A031092390321
:102940001092A5021092A402FF91EF91BF91AF9156
:102950009F918F917F916F915F914F913F912F91B7
:102960000F900FBE0F901F901895EF92FF920F934C
:102970001F937B018C0120E030E040E05FE40E9487
:10298000851788238CF0C801B70120E030E040E0D3
:102990005FE40E942D160E9413189B01AC01205089
:1029A00030404040504806C0C801B7010E9413188B
:1029B0009B01AC01B901CA011F910F91FF90EF90EB
:1029C0000895A0E0B0E0E7EEF4E10C94FC1ADC011D
:1029D0002B01FA019C91923008F439C1EB018881F6
:1029E000823008F433C1943069F4843009F02FC187
:1029F00011969C9111978981981709F428C1A3E633
:102A0000B1E025C1843009F421C18230A9F49230AB
:102A100009F01DC19A01AD0188E0EA010990AE01FB
:102A2000E90109929E018150C1F7E2018981119665
:102A30009C918923818308C1923009F407C11296C1
:102A40002D903C901397EB018A819B811496AD9059
:102A5000BD90CD90DC901797EC80FD800E811F819A
:102A60009101281B390BB90137FF04C0662777276E
:102A7000621B730B603271050CF061C012161306F5
:102A80006CF537014801062E04C09694879477941C
:102A900067940A94D2F721E030E040E050E004C0AF
:102AA000220F331F441F551F6A95D2F72150304023
:102AB000404050402E213F21402351232115310514
:102AC0004105510521F021E030E040E050E079017E
:102AD0008A01E628F728082919293CC0232BD1F1BF
:102AE000260E371E35014601062E04C096948794A3
:102AF000779467940A94D2F721E030E040E050E008
:102B000004C0220F331F441F551F6A95D2F721506E
:102B10003040404050402A213B214C215D2121156D
:102B200031054105510521F021E030E040E050E061
:102B300059016A01A628B728C828D9280BC08215D0
:102B400093052CF01C01AA24BB24650103C0EE24CC
:102B5000FF24870111969C91D20111968C919817B0
:102B600009F445C0992339F0A80197012A193B09B6
:102B70004C095D0906C0A60195012E193F09400BBD
:102B8000510B57FD08C01182338222822483358382
:102B9000468357831DC081E0818333822282882748
:102BA0009927DC01821B930BA40BB50B84839583BF
:102BB000A683B7830DC0220F331F441F551F2483E4
:102BC00035834683578382819381019793838283E0
:102BD0002481358146815781DA01C9010197A10914
:102BE000B1098F5F9F4FAF4FBF4328F30BC0918355
:102BF00033822282EA0CFB1C0C1D1D1DE482F5822F
:102C00000683178383E08083248135814681578141
:102C100057FF1AC0C901AA2797FDA095BA2F817046
:102C20009070A070B0705695479537952795822B78
:102C3000932BA42BB52B84839583A683B7838281A2
:102C40009381019693838283DF0101C0D201CD017C
:102C5000CDB7DEB7E2E10C94181BA0E2B0E0E3E3ED
:102C6000F6E10C94081B69837A838B839C832D8304
:102C70003E834F835887E9E0EE2EF12CEC0EFD1ECB
:102C8000CE010196B7010E94041A8E010F5E1F4FFC
:102C9000CE010596B8010E94041A8A8991E089271D
:102CA0008A8BC701B801AE01475E5F4F0E94E114F5
:102CB0000E942F19A096E6E00C94241BA0E2B0E03D
:102CC000E4E6F6E10C94081B69837A838B839C838A
:102CD0002D833E834F835887F9E0EF2EF12CEC0EC5
:102CE000FD1ECE010196B7010E94041A8E010F5EEF
:102CF0001F4FCE010596B8010E94041AC701B80102
:102D0000AE01475E5F4F0E94E1140E942F19A0960A
:102D1000E6E00C94241BA0E2B0E0E1E9F6E10C94BB
:102D2000FC1A69837A838B839C832D833E834F8334
:102D30005887CE010196BE01675F7F4F0E94041A3B
:102D4000CE010596BE016F5E7F4F0E94041A9985E1
:102D5000923088F089898230C8F0943019F482303A
:102D600051F404C0843029F4923081F483E691E078
:102D7000C6C0923049F420E09A858A89981321E0F0
:102D80002A87CE010996BBC0823049F420E09A859B
:102D90008A89981321E02A8BCE014196B0C02D84F8
:102DA0003E844F8458886D887E888F88988CEE2466
:102DB000FF248701AA24BB24650140E050E060E0C5
:102DC00070E0E0E0F0E0C10181709070892BE9F0E3
:102DD000E60CF71C081D191D9A01AB012A0D3B1DBD
:102DE0004C1D5D1D80E090E0A0E0B0E0E614F7042B
:102DF0000805190520F481E090E0A0E0B0E0BA01F8
:102E0000A901480F591F6A1F7B1FAA0CBB1CCC1CB1
:102E1000DD1C97FE08C081E090E0A0E0B0E0A82AA9
:102E2000B92ACA2ADB2A3196E032F10549F0660C4C
:102E3000771C881C991C5694479437942794C3CFC9
:102E4000FA85EA892B893C898B859C85280F391F57
:102E50002E5F3F4F17C0CA0181709070892B61F0BF
:102E600016950795F794E79480E090E0A0E0B0E82D
:102E7000E82AF92A0A2B1B2B7695679557954795D3
:102E80002F5F3F4F77FDE7CF0CC0440F551F661FE4
:102E9000771F17FD4160EE0CFF1C001F111F215012
:102EA0003040403090E0590790E0690790E479079E
:102EB00060F32B8F3C8FDB01CA018F779070A0707D
:102EC000B07080349105A105B10561F447FD0AC0D9
:102ED000E114F1040105110529F0405C5F4F6F4FCB
:102EE0007F4F40781A8EFE1711F081E08A8F4D8F48
:102EF0005E8F6F8F78A383E0898FCE0149960E9401
:102F00002F19A096E2E10C94181BA8E1B0E0EBE8C1
:102F1000F7E10C94081B69837A838B839C832D8350
:102F20003E834F83588789E0E82EF12CEC0EFD1E7E
:102F3000CE010196B7010E94041A8E010F5E1F4F49
:102F4000CE010596B8010E94041A8985823040F0AE
:102F50008989823028F0C701B8010E947C1A01C01B
:102F60008FEF6896E6E00C94241BA8E0B0E0EBEB52
:102F7000F7E10C94051B9B01AC0183E08983DA0126
:102F8000C9018827B7FD83959927AA27BB27B82EA3
:102F9000211531054105510519F482E089833AC0B4
:102FA0008823A9F0203080E0380780E0480780E8D7
:102FB000580729F460E070E080E09FEC30C0EE2418
:102FC000FF248701E21AF30A040B150B02C07901F2
:102FD0008A018EE1C82ED12CDC82CB82ED82FE826A
:102FE0000F831887C801B7010E94E01801971816CF
:102FF000190684F4082E04C0EE0CFF1C001F111FDC
:103000000A94D2F7ED82FE820F831887C81AD90A74
:10301000DC82CB82BA82CE0101960E942F192896BB
:10302000E9E00C94211BACE0B0E0E9E1F8E10C949C
:103030000C1B69837A838B839C83CE010196BE012E
:103040006B5F7F4F0E94041A8D81823061F1823064
:1030500050F1843021F48E81882351F12EC02F81CC
:10306000388537FD20C06E812F3131051CF0662375
:10307000F9F023C08EE190E0821B930B29853A85FD
:103080004B855C8504C056954795379527958A955D
:10309000D2F76623B1F050954095309521953F4F7A
:1030A0004F4F5F4F0EC020E030E040E050E009C0DD
:1030B0002FEF3FEF4FEF5FE704C020E030E040E04C
:1030C00050E8B901CA012C96E2E00C94281BA8E054
:1030D000B0E0EDE6F8E10C94041B7B018C01611576
:1030E00071058105910519F482E0898360C083E050
:1030F00089838EE1C82ED12CDC82CB82ED82FE82C8
:103100000F831887C801B7010E94E018FC013197AE
:10311000F7FF3BC0222733272E1B3F0B57016801C7
:10312000022E04C0D694C794B794A7940A94D2F7F9
:1031300040E050E060E070E081E090E0A0E0B0E0CE
:1031400004C0880F991FAA1FBB1F2A95D2F70197A9
:10315000A109B1098E219F21A023B1230097A105C8
:10316000B10521F041E050E060E070E04A295B29C0
:103170006C297D294D835E836F8378878EE190E093
:103180008E1B9F0B9C838B8312C0309781F00E2E79
:1031900004C0EE0CFF1C001F111F0A94D2F7ED8231
:1031A000FE820F831887CE1ADF0ADC82CB821A8256
:1031B000CE0101960E942F192896EAE00C94201B5C
:1031C000EF92FF920F931F937B018C0180E0E81632
:1031D00080E0F80681E0080780E0180788F48FEFA8
:1031E000E816F1040105110531F028F088E090E0BF
:1031F000A0E0B0E017C080E090E0A0E0B0E012C036
:1032000080E0E81680E0F80680E0080781E0180713
:1032100028F088E190E0A0E0B0E004C080E190E018
:10322000A0E0B0E020E230E040E050E0281B390BA5
:103230004A0B5B0B04C016950795F794E7948A95A3
:10324000D2F7F701E559FE4F8081281B310941096A
:103250005109C9011F910F91FF90EF900895DF92DE
:10326000EF92FF920F931F93FC01E480F58006819B
:103270001781D1808081823048F480E090E0A0E125
:10328000B0E0E82AF92A0A2B1B2BA5C0843009F4E8
:103290009FC0823021F4EE24FF24870105C0E11491
:1032A000F1040105110519F4E0E0F0E096C0628137
:1032B00073819FEF623879070CF05BC022E83FEF23
:1032C000261B370B2A3131052CF020E030E040E09E
:1032D00050E02AC0B801A701022E04C07695679578
:1032E000579547950A94D2F781E090E0A0E0B0E0CE
:1032F00004C0880F991FAA1FBB1F2A95D2F70197F8
:10330000A109B1098E219F21A023B1230097A10516
:10331000B10521F081E090E0A0E0B0E09A01AB01BE
:10332000282B392B4A2B5B2BDA01C9018F77907040
:10333000A070B07080349105A105B10539F427FF64
:1033400009C0205C3F4F4F4F5F4F04C0215C3F4F8F
:103350004F4F5F4FE0E0F0E02030A0E03A07A0E000
:103360004A07A0E45A0710F0E1E0F0E079018A0191
:1033700027C06038710564F5FB01E158FF4FD801A3
:10338000C7018F779070A070B07080349105A1054F
:10339000B10539F4E7FE0DC080E490E0A0E0B0E0B4
:1033A00004C08FE390E0A0E0B0E0E80EF91E0A1F31
:1033B0001B1F17FF05C016950795F794E7943196E4
:1033C00087E016950795F794E7948A95D1F705C09D
:1033D000EE24FF248701EFEFF0E06E2F679566275C
:1033E0006795902F9F77D794DD24D7948E2F86955D
:1033F000492F462B582F5D29B701CA011F910F9104
:10340000FF90EF90DF900895FC01DB014081518136
:103410002281622F6F7770E0221F2227221F938163
:10342000892F880F822B282F30E0991F9927991F09
:1034300011969C93119721153105A9F54115510558
:103440006105710511F482E037C082E89FEF1396A1
:103450009C938E9312979A01AB0167E0220F331F62
:10346000441F551F6A95D1F783E08C930DC0220F3E
:10347000331F441F551F12968D919C9113970197EE
:1034800013969C938E931297203080E0380780E04B
:10349000480780E4580758F314962D933D934D93B5
:1034A0005C93179708952F3F310579F44115510525
:1034B0006105710519F484E08C93089564FF03C0DD
:1034C00081E08C9312C01C9210C02F57304013968D
:1034D0003C932E93129783E08C9387E0440F551F03
:1034E000661F771F8A95D1F7706414964D935D938C
:1034F0006D937C93179708951F93DC01FB019C91BA
:10350000923008F447C08081823008F443C0943080
:1035100051F411961C91843099F58181682F70E0E7
:10352000611B71093FC0843021F0923031F4823048
:10353000B9F18181882389F12DC011961C911197D1
:103540008230F1F081811817D9F412962D913C91B7
:103550001397828193818217930794F02817390774
:10356000BCF014968D919D910D90BC91A02D24815D
:10357000358146815781281739074A075B0718F4B8
:10358000112341F00AC082179307A407B50740F43E
:10359000112319F061E070E005C06FEF7FEF02C00A
:1035A00060E070E0CB011F91089597FB092E07267C
:1035B0000AD077FD04D00CD006D000201AF4709504
:1035C00061957F4F0895F6F7909581959F4F0895E7
:1035D000AA1BBB1B51E107C0AA1FBB1FA617B70739
:1035E00010F0A61BB70B881F991F5A95A9F7809555
:1035F0009095BC01CD0108952F923F924F925F921A
:103600006F927F928F929F92AF92BF92CF92DF92F2
:10361000EF92FF920F931F93CF93DF93CDB7DEB757
:10362000CA1BDB0B0FB6F894DEBF0FBECDBF0994EB
:103630002A88398848885F846E847D848C849B8442
:10364000AA84B984C884DF80EE80FD800C811B8150
:10365000AA81B981CE0FD11D0FB6F894DEBF0FBE7F
:10366000CDBFED010895A0E0B0E0E9E3FBE10C94EB
:10367000041BEC01A880B980CA80DB80A114B104CE
:10368000C104D10441F484E2A82E89EDB82E8BE563
:10369000C82E87E0D82EC601B5012DE133EF41E0F9
:1036A00050E00E94EC1B27EA31E440E050E00E9429
:1036B000CD1B7B018C01C601B5012DE133EF41E04B
:1036C00050E00E94EC1BCA01B9012CEE34EF4FEF21
:1036D0005FEF0E94CD1B6E0D7F1D801F911F97FF16
:1036E00004C06150704080409048688379838A8329
:1036F0009B839B013F77C901CDB7DEB7EAE00C940D
:10370000201B0E94331B08958BE692E00E94331B1E
:103710000895A0E0B0E080936B0290936C02A093B8
:103720006D02B0936E020895FB019F01E894423050
:10373000C4F04532B4F44A3029F497FB1EF4909556
:1037400081959F4F642F77270E94E81A805D8A3306
:103750000CF0895D8193CB010097A1F716F45DE22F
:1037600051931082C9010C94BD1BF999FECF92BDF3
:1037700081BDF89A992780B50895DC01FC01672F77
:1037800071917723E1F7329704C07C916D93708338
:103790006291AE17BF07C8F30895629FD001739F6F
:1037A000F001829FE00DF11D649FE00DF11D929FDD
:1037B000F00D839FF00D749FF00D659FF00D99271C
:1037C000729FB00DE11DF91F639FB00DE11DF91F40
:1037D000BD01CF011124089597FB092E05260ED0B7
:1037E00057FD04D014D00AD0001C38F450954095F1
:1037F000309521953F4F4F4F5F4F0895F6F79095C5
:103800008095709561957F4F8F4F9F4F0895A1E2EE
:103810001A2EAA1BBB1BFD010DC0AA1FBB1FEE1F4A
:10382000FF1FA217B307E407F50720F0A21BB30B95
:10383000E40BF50B661F771F881F991F1A9469F711
:1038400060957095809590959B01AC01BD01CF016D
:063850000895F894FFCF7B
:103856007374617274696E67202000737461746595
:103866002020202020200020202020202020202072
:1038760020202020202020202000626573742069EB
:103886007320202000627265616B202020202000BA
:103896002A2A2A2A2A2A2A2A2A2A0073746174655D
:1038A60073657430202000FFFF0100030001000152
:1038B600C8C8C800000000000000000001020203A2
:1038C60003030304040404040404040505050505B0
:1038D600050505050505050505050506060606068D
:1038E6000606060606060606060606060606060672
:1038F600060606060606060606060607070707075D
:103906000707070707070707070707070707070741
:103916000707070707070707070707070707070731
:103926000707070707070707070707070707070721
:10393600070707070707070707070708080808080C
:1039460008080808080808080808080808080808F1
:1039560008080808080808080808080808080808E1
:1039660008080808080808080808080808080808D1
:1039760008080808080808080808080808080808C1
:1039860008080808080808080808080808080808B1
:1039960008080808080808080808080808080808A1
:1039A6000808080808080808080808080808080891
:1039B60008080808080808080808080100000000A8
:00000001FF
