:100000000C9434000C9451000C9451000C94510049
:100010000C9451000C9451000C947D060C945100EA
:100020000C9451000C9451000C9451000C9453000A
:100030000C9451000C9451000C944E0A0C945100F5
:100040000C9451000C9451000C9451000C945100EC
:100050000C9451000C9451000C9451000C94060423
:100060000C9451000C94510011241FBECFEFD8E026
:10007000DEBFCDBF12E0A0E0B1E0E0E3F5E202C0F8
:1000800005900D92AE36B107D9F715E0AEE6B2E0B5
:1000900001C01D92A933B107E1F70E944A090C94EF
:1000A00096120C9400001F920F920FB60F9211241B
:1000B0003F924F925F926F927F928F929F92AF92F8
:1000C000BF92CF92DF92EF92FF920F931F932F93E5
:1000D0003F934F935F936F937F938F939F93AF93D0
:1000E000BF93CF93DF93EF93FF9321E030E0309302
:1000F00058012093570180919C0490919D04892B75
:1001000009F054C080917800909179009093E904AF
:100110008093E80445E040937C0062EB60937A00B2
:1001200051E050937B008091EA0490E09093EC04BE
:100130008093EB0430939D0420939C048091EA0407
:10014000882309F44EC01092EC041092EB04109234
:10015000EE041092ED041092F0041092EF0410924D
:10016000F2041092F1041092F4041092F3044093FC
:100170007C0060937A0050937B0010928100109273
:1001800085001092840010929D0410929C0410929D
:1001900097021092960280919E0490919F0403967C
:1001A00090939F0480939E0445BD1BC080919C0446
:1001B00090919D04019721F58091780090917900AC
:1001C0009093E7048093E6048091EA0490E0909392
:1001D000EE048093ED0482E090E090939D04809380
:1001E0009C048091A0049091A1042091780030910A
:1001F0007900820F931F9093A1048093A004E2C220
:1002000080919C0490919D04029751F48091EA049E
:1002100090E09093F0048093EF0483E090E00FC0AF
:1002200080919C0490919D04039771F48091EA045D
:1002300090E09093F2048093F10484E090E0909336
:100240009D0480939C04BEC280919C0490919D0467
:10025000049709F0B7C28091EA0490E09093F40407
:100260008093F30410929D0410929C048091ED04FD
:100270009091EE042091EF043091F0044091F1044C
:100280005091F2046091F3047091F404820F80584D
:10029000840F90E08617970709F063C28091EB0402
:1002A0009091EC04892B09F05CC28091E604909156
:1002B000E704845893401CF033243A9499C0209169
:1002C000E6043091E7048091CA049091CB04821730
:1002D000930714F433248CC051E0452E512C209107
:1002E000E6043091E704E201CC0FDD1FC653DB4F7B
:1002F000888199818217930754F00894411C511CFE
:100300008EE04816510459F72AE5322E71C06881F3
:100310007981F201EE0FFF1FE853FB4F20813181FD
:10032000621B730B882777FD8095982F0E941C0E07
:100330009B01AC010E94C50C3B014C01E880F98097
:100340006091E6047091E704882777FD8095982FE7
:100350000E941C0E5B016C010027F7FC0095102F1A
:10036000C801B7010E941C0E7B018C01B2018827D5
:1003700077FD8095982F0E941C0E20E030E040E031
:100380005FE30E94F20C20E030E040E050E00E9489
:10039000C50C9B01AC01C401B3010E94F20C9B018E
:1003A000AC01C801B7010E94940C9B01AC01C601CD
:1003B000B5010E94940C20E030E040E251E40E943C
:1003C000F20C0E947A0E7B018C01C401B3010E94E1
:1003D0007A0E9B01AC01C701B9010E943C1188272C
:1003E00077FD8095982F0E941C0E0E941C0B362EC4
:1003F0008091E6049091E7048D5B92400CF4A2C0DA
:100400002091E8043091E9048091AE049091AF040A
:10041000821793070CF48BC081E0482E512C209159
:10042000E8043091E904E201CC0FDD1FC255DB4F37
:10043000888199818217930744F00894411C511CCC
:100440008EE04816510459F772C068817981F20133
:10045000EE0FFF1FE455FB4F20813181621B730BB0
:10046000882777FD8095982F0E941C0E9B01AC0178
:100470000E94C50C3B014C01E880F9806091E804C2
:100480007091E904882777FD8095982F0E941C0EB3
:100490005B016C010027F7FC0095102FC801B70124
:1004A0000E941C0E7B018C01B201882777FD80958C
:1004B000982F0E941C0E20E030E040E05FE30E9495
:1004C000F20C20E030E040E050E00E94C50C9B01BF
:1004D000AC01C401B3010E94F20C9B01AC01C80144
:1004E000B7010E94940C9B01AC01C601B5010E94AA
:1004F000940C20E030E040E251E40E94F20C0E94B3
:100500007A0E7B018C01C401B3010E947A0E9B011B
:10051000AC01C701B9010E943C11882777FD809585
:10052000982F0E941C0E0E941C0B6F3F59F02FEF5A
:10053000321641F08091E6049091E7048091E60440
:100540009091E704E0912505F09126058091ED0456
:100550009091EE04EE0FFF1FEB50FB4F91838083D1
:10056000E0912505F09126058091EF049091F0042B
:10057000EE0FFF1FE350FB4F91838083E091250531
:10058000F09126058091F1049091F204EE0FFF1F87
:10059000EB5FFA4F91838083E0912505F09126056A
:1005A0008091E8049091E904EE0FFF1FE35FFA4F9A
:1005B00091838083E0912505F09126058091E604E2
:1005C0009091E704EE0FFF1FEB5EFA4F918380835B
:1005D000E0912505F0912605EE0FFF1FE35EFA4F2F
:1005E00081E090E09183808380912505909126059C
:1005F000019690932605809325058091250590917D
:100600002605049721F41092260510922505809165
:10061000F1049091F20480FFA4C08091EF049091C6
:10062000F004892B09F09DC08091ED049091EE04B7
:1006300009970CF096C02091590130915A01809190
:10064000ED049091EE042817390709F48AC08091CF
:10065000ED049091EE04039709F46BC040E050E084
:1006600020C0FA01EE0FFF1FED5CFA4F20813181AF
:100670008091ED049091EE042817390781F01092D3
:1006800034051092330510923605109235051092FC
:100690003805109237051092A3041092A2044F5F00
:1006A0005F4F8091A2049091A30448175907CCF2A0
:1006B0008091A2049091A3040397BCF4E091A2045A
:1006C000F091A3048091ED049091EE04EE0FFF1FD2
:1006D000ED5CFA4F918380838091A2049091A304F2
:1006E00001969093A3048093A2048091A204909118
:1006F000A3040397F1F48091ED049091EE0490939C
:100700005A018093590181E090E090935C018093BD
:100710005B01109234051092330510923605109249
:10072000350510923805109237051092A3041092E7
:10073000A2048091ED049091EE04039791F421E0DE
:1007400030E030939502209394028091ED049091D3
:10075000EE0490935A018093590130935C012093E9
:100760005B0125E020937C0082EB80937A0081E09E
:1007700080937B0010929702109296021092EC04E4
:100780001092EB041092EE041092ED041092F0041B
:100790001092EF041092F2041092F1041092F404FB
:1007A0001092F30410928100109285001092840040
:1007B00080919E0490919F040C9690939F04809347
:1007C0009E0425BD1092EA04FF91EF91DF91CF9135
:1007D000BF91AF919F918F917F916F915F914F9159
:1007E0003F912F911F910F91FF90EF90DF90CF904D
:1007F000BF90AF909F908F907F906F905F904F9041
:100800003F900F900FBE0F901F9018951F920F9260
:100810000FB60F9211242F933F938F93EF93FF9373
:10082000E4E8F0E02081318110928500108210927E
:10083000800081E080938100309399022093980298
:10084000FF91EF918F913F912F910F900FBE0F90DD
:100850001F901895AC0120E030E0FA01E20FF31F81
:1008600080818093C6008091C00085FFFCCF2F5F00
:100870003F4F2A30310589F78AE08093C600809186
:10088000C00085FFFCCF8DE08093C6008091C00042
:1008900085FFFCCF08958AE08093C6008091C00058
:1008A00085FFFCCF0895CF92DF92EF92FF920F93D6
:1008B0001F93DF93CF93CDB7DEB72C970FB6F89485
:1008C000DEBF0FBECDBF282F789480919602909105
:1008D0009702019719F422E030E0C7C0549A2983A7
:1008E0006A834B832058260F240F2C836E010894B3
:1008F000C11CD11CDE0115968D017D01F6016191AF
:100900006F0170E09B0120723070F3E03595279500
:10091000FA95E1F7CB018071907095958795280F36
:10092000391FCB018074907055E0959587955A9545
:10093000E1F7280F391FCB01880F892F881F990BEA
:100940009195280F391FCB0181709070880F991FE6
:10095000880F991FAB0142705070840F951F880F4C
:10096000991F880F991FAB0144705070840F951F19
:10097000880F991F880F991F68707070860F971FD6
:10098000880F991F280F391F220F331F2F5F3F4FEA
:10099000F801219331938F01CE14DF0409F0AECF1B
:1009A000F8948091960290919702892B09F04AC0A1
:1009B0005C9A000000005C9880E090E000000196E6
:1009C00085339105D9F780E090E000B605FE05C0BB
:1009D0005C98789423E030E048C000B605FE05C07E
:1009E0005C98789424E030E040C00196813C910509
:1009F00061F71FC020FF04C05C9A0000000003C024
:100A00005C98000000005C9880E090E00000019697
:100A100083329105D9F73695279541505040FFEF25
:100A20004F3F5F0739F72D933D93A617B70721F482
:100A30000EC0BE01635F7F4F2D913C91119748E03E
:100A400050E0D8CF5C98789425E030E00EC05C98F8
:100A500080E090E00000019682339105D9F780B7DD
:100A6000806180BF789421E030E0C9012C960FB6F8
:100A7000F894DEBF0FBECDBFCF91DF911F910F91D4
:100A8000FF90EF90DF90CF90089580917A00F894D6
:100A900086E080937C0080917A00806480937A0065
:100AA00080917A0084FFFCCF7894609178007091F7
:100AB000790080E090E00E94CE0E2AEC34E541EC13
:100AC0005BE30E94F20C24E237E94FE75CE30E940B
:100AD000C50C20E030E048EC52E40E94F20C0E9489
:100AE0007A0ECB0108951092950210929402F89418
:100AF00084E083BF14BE80916000886180936000B1
:100B000081E68093600014B815B817B818B81AB801
:100B10001BB8789480917A008F7780937A00A8959B
:100B200083B7816083BF8895789434E021E61BC049
:100B300033BF14BE80916000886180936000209371
:100B4000600014B815B817B818B81AB81BB878945C
:100B500080917A008F7780937A00A89583B781601F
:100B600083BF889578948091940290919502892B07
:100B7000F9F2539A239A8091B000816A8093B00071
:100B80008091B10082608093B1001092B400109205
:100B9000B3000895982F40FF02C03C9A01C03C98D2
:100BA000443014F03A9A01C03A98842F859580FF1A
:100BB00002C03B9A01C03B9890FF02C0559A01C009
:100BC0005598943014F0269A01C02698892F85955F
:100BD00080FF02C0279A01C0279860FF02C0229AB6
:100BE00001C02298643014F0209A01C02098862F0A
:100BF000859580FF02C0219A089521980895359B1C
:100C000008C080E060E040E00E94CA0520E030E0DB
:100C100072C081E060E040E00E94CA0580ED97E08C
:100C200028EC30E0F9013197F1F70197D9F782E02C
:100C300060E040E00E94CA0580ED97E028EC30E0DB
:100C4000F9013197F1F70197D9F783E060E040E0CF
:100C50000E94CA0580ED97E028EC30E0F901319759
:100C6000F1F70197D9F784E060E040E00E94CA05FF
:100C700080ED97E028EC30E0F9013197F1F701972A
:100C8000D9F785E060E040E00E94CA0580ED97E07A
:100C900028EC30E0F9013197F1F70197D9F786E0B8
:100CA00060E040E00E94CA0580ED97E028EC30E06B
:100CB000F9013197F1F70197D9F787E060E040E05B
:100CC0000E94CA0580ED97E028EC30E0F9013197E9
:100CD000F1F70197D9F780E060E040E00E94CA0593
:100CE00080ED97E028EC30E0F9013197F1F70197BA
:100CF000D9F721E030E0C90108951F920F920FB695
:100D00000F9211242F933F934F935F936F937F9391
:100D10008F939F93AF93BF93EF93FF93A895529AAE
:100D20005A9AEAE7F0E0808180688083E0E6F0E0AC
:100D30008081886180831082789487E067E047E053
:100D40000E94CA0580E29EE40197F1F780E060E02E
:100D500040E00E94CA05FF91EF91BF91AF919F9132
:100D60008F917F916F915F914F913F912F910F9054
:100D70000FBE0F901F901895A0912505B0912605E4
:100D8000109232051092310520E030E0109719F4EE
:100D9000A3E0B0E001C01197FD01EE0FFF1FE35E7D
:100DA000FA4F80819181019709F045C0F894FD01C7
:100DB000EE0FFF1FEB50FB4F808191819093280530
:100DC00080932705FD01EE0FFF1FE350FB4F80814D
:100DD000918190932A0580932905FD01EE0FFF1F55
:100DE000EB5FFA4F8081918190932C0580932B05C6
:100DF000FD01EE0FFF1FE35FFA4F80819181909319
:100E00002E0580932D05AA0FBB1FFD01EB5EFA4F47
:100E1000808191819093300580932F05789481E0B3
:100E200090E09093320580933105A35EBA4F1196FE
:100E30001C921E9206C02F5F3F4F2430310509F0EF
:100E4000A5CF80913105909132050197B9F4809139
:100E50002F05909130058D3C91051CF080E061E0FC
:100E60000BC080912F0590913005823C910514F4C0
:100E700081E001C080E060E040E003C080E060E02D
:100E800042E00E94CA050895CF93DF93A091250503
:100E9000B091260520E030E0109719F4A3E0B0E00F
:100EA00001C01197ED01CC0FDD1FC35EDA4F8881C1
:100EB00099810197A1F5FD01EE0FFF1FEB50FB4F4C
:100EC000208131813093930220939202FD01EE0F35
:100ED000FF1FE350FB4F808191819093910280939B
:100EE0009002FD01EE0FFF1FEB5FFA4F4081518131
:100EF00050938F0240938E02AA0FBB1FFD01E35F48
:100F0000FA4F0190F081E02DAB5EBA4F6D917C916C
:100F1000198218822817390709F066C007C02F5FA9
:100F20003F4F2430310509F0B7CF5EC0452B09F0A3
:100F30005BC021303105A1F480917A0290917B024F
:100F4000E80FF91FF0937B02E0937A02809184020C
:100F5000909185020196909385028093840244C00B
:100F600022303105A1F480917C0290917D02E80F3E
:100F7000F91FF0937D02E0937C02809186029091AC
:100F80008702019690938702809386022DC02330BA
:100F90003105A1F480917E0290917F02E80FF91F44
:100FA000F0937F02E0937E02809188029091890203
:100FB0000196909389028093880216C024303105EF
:100FC00099F48091800290918102E80FF91FF093CB
:100FD0008102E093800280918A0290918B020196B7
:100FE00090938B0280938A02DF91CF910895209194
:100FF00025053091260560E070E040E050E02115C5
:10100000310519F423E030E002C021503040F901ED
:10101000EE0FFF1FE35EFA4F80819181019721F46B
:101020001182108261E070E04F5F5F4F44305105E4
:1010300031F76130710519F480E061E002C081E0B0
:1010400060E040E00E94CA050895EF92FF920F937E
:101050001F93DF93CF93CDB7DEB72A970FB6F894DF
:10106000DEBF0FBECDBF8E010F5F1F4F78019E0107
:10107000255F3F4FF70111927F01E217F307D1F788
:10108000BE016F5F7F4F4AE050E00E94FB11F80104
:1010900080818093C6008091C00085FFFCCF0F5FE8
:1010A0001F4F0E151F0599F780E28093C6008091AF
:1010B000C00085FFFCCF2A960FB6F894DEBF0FBEA6
:1010C000CDBFCF91DF911F910F91FF90EF900895C9
:1010D000EF92FF920F931F93DF93CF93CDB7DEB7BD
:1010E0002A970FB6F894DEBF0FBECDBF8E010F5FFB
:1010F0001F4F78019E01255F3F4FF70111927F013D
:10110000E217F307D1F7BE016F5F7F4F4AE050E06F
:101110000E94FB11F80180818093C6008091C0007D
:1011200085FFFCCF0F5F1F4F0E151F0599F78AE053
:101130008093C6008091C00085FFFCCF8DE0809336
:10114000C6008091C00085FFFCCF2A960FB6F894A8
:10115000DEBF0FBECDBFCF91DF911F910F91FF90EA
:10116000EF900895EF92FF920F931F93CF93DF9329
:10117000A0912505B091260520E030E0109719F4E4
:10118000A3E0B0E001C01197ED01CC0FDD1FC35EFD
:10119000DA4F888199810197C9F5FD01EE0FFF1F94
:1011A000EB50FB4F0081118110937902009378027C
:1011B000FD01EE0FFF1FE350FB4F608171817093C3
:1011C000770260937602FD01EE0FFF1FEB5FFA4F8F
:1011D000408151815093750240937402AA0FBB1F46
:1011E000FD01E35FFA4FE080F180AB5EBA4FED9115
:1011F000FC911982188280917302382F30583093F5
:10120000700290E00817190709F507C02F5F3F4FDC
:101210002430310509F0B2CF36C020917202822FFE
:1012200090E06817790791F48091710290E0481777
:10123000590761F4231751F4C701865B9340459722
:1012400028F4E831F10514F0B7972CF010926F02F2
:1012500010926E0209C080916E0290916F02019609
:1012600090936F0280936E02802F8F5F8093730242
:10127000862F8F5F80937202842F8E5F809371021E
:10128000C7010E946808DF91CF911F910F91FF90D5
:10129000EF9008953F924F925F926F927F928F925C
:1012A0009F92AF92BF92CF92DF92EF92FF920F93F5
:1012B0001F93CF93DF9314B815B817B818B81AB89E
:1012C0001BB8519A81E090E09093C5008093C400D0
:1012D0001092C0008091C10088608093C10080910D
:1012E000C20086608093C20080B78B6080BF83E0BD
:1012F00080937F0085E080937C0083EC80937A006C
:101300001092800081E08093810082E080936F00E2
:1013100082E3809389001092880080E091E00E942F
:101320002A04789430906600AA24BB24CFE0D7E248
:1013300088249924E0E76E2EE7E17E2E70EE472E9A
:101340007EE2572E7FC010929B0210929A0229C013
:10135000C3010197F1F700936600C2010197F1F70D
:10136000809198029091990290939B0280939A02A7
:1013700030926600C8010E94680880919A0290919C
:101380009B020E9468088BE091E00E942A04C3013E
:101390000197F1F780919A0290919B02F701918356
:1013A000808380919A0290919B02892B89F20F5F32
:1013B0001F4F82E090E0E80EF91E91E0003019071F
:1013C00009F0C1CFCE0120E030E0F601C081D1812B
:1013D000C054DF41D7FF03C0D095C195DF4FC81778
:1013E000D90714F0EC0101C059012F5F3F4F82E093
:1013F00090E0C80ED91E91E02030390711F0CE01DF
:10140000E4CF8BE191E00E942A04C5010E946808A4
:10141000CE010E946808C4010E94680887E291E03A
:101420000E942A040894811C911CE4E08E16910409
:1014300031F482E060E040E00E94CA05FACFC53195
:10144000D10544F06CE9C62E62E0D62E760100E0AC
:1014500010E079CF1A2D81E090E06A2D0E941C12D5
:1014600088EE93E028EC30E0F9013197F1F701972D
:10147000D9F786E391E00E942A0486E491E00E9475
:101480002A0410936600C5010E946808CE010E94DC
:10149000680887E291E00E942A04FFCF1F920F9212
:1014A0000FB60F9211242F933F934F935F936F9337
:1014B0007F938F939F93AF93BF93EF93FF9320916D
:1014C000A4043091A50480919E0490919F04820F02
:1014D000931F9093A5048093A40420919E043091BF
:1014E0009F048091AC049091AD04820F931F909360
:1014F000AD048093AC042091A6043091A7048091A0
:101500009E0490919F04820F931F9093A704809351
:10151000A6042091A8043091A90480919E04909182
:101520009F04820F931F9093A9048093A804209195
:10153000AA043091AB0480919E0490919F0464E6CC
:1015400070E00E943C11260F371F3093AB042093AC
:10155000AA048091AA049091AB0481509D4720F089
:101560001092AB041092AA048FEF90E090939F0426
:1015700080939E048FEF87BD8091A4049091A50471
:101580008C5F94406CF180915D01813049F58091D0
:10159000960290919702892BA1F480915E0160914F
:1015A0005F014091600190E070E050E00E945304C0
:1015B000009739F0019729F41092A5041092A40421
:1015C0000FC00E94EB116FEF70E00E943C119093EE
:1015D0009F0480939E0480919E0490919F0487BDF8
:1015E0008091AC049091AD04885F9840A4F0109273
:1015F000AD041092AC041092340510923305109291
:101600003605109235051092380510923705109264
:10161000A3041092A204FF91EF91BF91AF919F910B
:101620008F917F916F915F914F913F912F910F908B
:101630000FBE0F901F901895EF92FF920F931F937C
:101640007B018C0120E030E040E05FE40E94EC0D83
:1016500088238CF0C801B70120E030E040E05FE46F
:101660000E94940C0E947A0E9B01AC0120503040E5
:101670004040504806C0C801B7010E947A0E9B0145
:10168000AC01B901CA011F910F91FF90EF9008952D
:10169000A0E0B0E0EEE4FBE00C946311DC012B0170
:1016A000FA019C91923008F439C1EB0188818230B3
:1016B00008F433C1943069F4843009F02FC11196D5
:1016C0009C9111978981981709F428C1A1E6B1E08E
:1016D00025C1843009F421C18230A9F4923009F087
:1016E0001DC19A01AD0188E0EA010990AE01E9014E
:1016F00009929E018150C1F7E201898111969C9166
:101700008923818308C1923009F407C112962D9074
:101710003C901397EB018A819B811496AD90BD900C
:10172000CD90DC901797EC80FD800E811F81910198
:10173000281B390BB90137FF04C066277727621BC6
:10174000730B603271050CF061C0121613066CF554
:1017500037014801062E04C09694879477946794C5
:101760000A94D2F721E030E040E050E004C0220FBC
:10177000331F441F551F6A95D2F721503040404017
:1017800050402E213F214023512321153105410591
:10179000510521F021E030E040E050E079018A017C
:1017A000E628F728082919293CC0232BD1F1260E59
:1017B000371E35014601062E04C09694879477940F
:1017C00067940A94D2F721E030E040E050E004C092
:1017D000220F331F441F551F6A95D2F72150304006
:1017E000404050402A213B214C215D2121153105EB
:1017F0004105510521F021E030E040E050E0590181
:101800006A01A628B728C828D9280BC082159305D5
:101810002CF01C01AA24BB24650103C0EE24FF2484
:10182000870111969C91D20111968C91981709F419
:1018300045C0992339F0A80197012A193B094C09A1
:101840005D0906C0A60195012E193F09400B510BF9
:1018500057FD08C011823382228224833583468358
:1018600057831DC081E08183338222828827992794
:10187000DC01821B930BA40BB50B84839583A68399
:10188000B7830DC0220F331F441F551F2483358398
:101890004683578382819381019793838283248136
:1018A000358146815781DA01C9010197A109B10942
:1018B0008F5F9F4FAF4FBF4328F30BC0918333829D
:1018C0002282EA0CFB1C0C1D1D1DE482F58206839E
:1018D000178383E08083248135814681578157FFB8
:1018E0001AC0C901AA2797FDA095BA2F81709070E0
:1018F000A070B0705695479537952795822B932BFE
:10190000A42BB52B84839583A683B783828193818F
:10191000019693838283DF0101C0D201CD01CDB74F
:10192000DEB7E2E10C947F11A0E2B0E0EAE9FCE06E
:101930000C946F1169837A838B839C832D833E8300
:101940004F835887E9E0EE2EF12CEC0EFD1ECE0100
:101950000196B7010E946B108E010F5E1F4FCE01E2
:101960000596B8010E946B108A8991E089278A8BBD
:10197000C701B801AE01475E5F4F0E94480B0E944D
:10198000960FA096E6E00C948B11A0E2B0E0EBEC91
:10199000FCE00C946F1169837A838B839C832D8385
:1019A0003E834F835887F9E0EF2EF12CEC0EFD1E9D
:1019B000CE010196B7010E946B108E010F5E1F4F82
:1019C000CE010596B8010E946B10C701B801AE01A7
:1019D000475E5F4F0E94480B0E94960FA096E6E07C
:1019E0000C948B11A0E2B0E0E8EFFCE00C946311E2
:1019F00069837A838B839C832D833E834F835887AF
:101A0000CE010196BE01675F7F4F0E946B10CE0131
:101A10000596BE016F5E7F4F0E946B1099859230D4
:101A200088F089898230C8F0943019F4823051F4FA
:101A300004C0843029F4923081F481E691E0C6C07C
:101A4000923049F420E09A858A89981321E02A8708
:101A5000CE010996BBC0823049F420E09A858A897C
:101A6000981321E02A8BCE014196B0C02D843E848C
:101A70004F8458886D887E888F88988CEE24FF2448
:101A80008701AA24BB24650140E050E060E070E0DB
:101A9000E0E0F0E0C10181709070892BE9F0E60C84
:101AA000F71C081D191D9A01AB012A0D3B1D4C1D89
:101AB0005D1D80E090E0A0E0B0E0E614F7040805CA
:101AC000190520F481E090E0A0E0B0E0BA01A9019E
:101AD000480F591F6A1F7B1FAA0CBB1CCC1CDD1CA6
:101AE00097FE08C081E090E0A0E0B0E0A82AB92A03
:101AF000CA2ADB2A3196E032F10549F0660C771CE0
:101B0000881C991C5694479437942794C3CFFA8520
:101B1000EA892B893C898B859C85280F391F2E5F8C
:101B20003F4F17C0CA0181709070892B61F01695E4
:101B30000795F794E79480E090E0A0E0B0E8E82A09
:101B4000F92A0A2B1B2B76956795579547952F5F9A
:101B50003F4F77FDE7CF0CC0440F551F661F771F1F
:101B600017FD4160EE0CFF1C001F111F215030407B
:101B7000403090E0590790E0690790E4790760F3FE
:101B80002B8F3C8FDB01CA018F779070A070B070F3
:101B900080349105A105B10561F447FD0AC0E11447
:101BA000F1040105110529F0405C5F4F6F4F7F4F35
:101BB00040781A8EFE1711F081E08A8F4D8F5E8F6C
:101BC0006F8F78A383E0898FCE0149960E94960F8C
:101BD000A096E2E10C947F11A8E1B0E0E2EFFDE015
:101BE0000C946F1169837A838B839C832D833E834E
:101BF0004F83588789E0E82EF12CEC0EFD1ECE01B4
:101C00000196B7010E946B108E010F5E1F4FCE012F
:101C10000596B8010E946B108985823040F0898951
:101C2000823028F0C701B8010E94E31001C08FEF95
:101C30006896E6E00C948B11A8E0B0E0E2E2FEE0EA
:101C40000C946C119B01AC0183E08983DA01C9011A
:101C50008827B7FD83959927AA27BB27B82E21157A
:101C600031054105510519F482E089833AC0882382
:101C7000A9F0203080E0380780E0480780E8580766
:101C800029F460E070E080E09FEC30C0EE24FF2497
:101C90008701E21AF30A040B150B02C079018A01CD
:101CA0008EE1C82ED12CDC82CB82ED82FE820F83A6
:101CB0001887C801B7010E94470F01971816190627
:101CC00084F4082E04C0EE0CFF1C001F111F0A94A0
:101CD000D2F7ED82FE820F831887C81AD90ADC82F8
:101CE000CB82BA82CE0101960E94960F2896E9E037
:101CF0000C948811ACE0B0E0E0E8FEE00C947311C5
:101D000069837A838B839C83CE010196BE016B5FCE
:101D10007F4F0E946B108D81823061F1823050F1D3
:101D2000843021F48E81882351F12EC02F81388593
:101D300037FD20C06E812F3131051CF06623F9F08C
:101D400023C08EE190E0821B930B29853A854B8559
:101D50005C8504C056954795379527958A95D2F7A7
:101D60006623B1F050954095309521953F4F4F4FE8
:101D70005F4F0EC020E030E040E050E009C02FEFA0
:101D80003FEF4FEF5FE704C020E030E040E050E875
:101D9000B901CA012C96E2E00C948F11A8E0B0E0E2
:101DA000E4EDFEE00C946B117B018C016115710573
:101DB0008105910519F482E0898360C083E08983FD
:101DC0008EE1C82ED12CDC82CB82ED82FE820F8385
:101DD0001887C801B7010E94470FFC013197F7FF30
:101DE0003BC0222733272E1B3F0B57016801022ED1
:101DF00004C0D694C794B794A7940A94D2F740E04D
:101E000050E060E070E081E090E0A0E0B0E004C06D
:101E1000880F991FAA1FBB1F2A95D2F70197A10906
:101E2000B1098E219F21A023B1230097A105B105FF
:101E300021F041E050E060E070E04A295B296C2924
:101E40007D294D835E836F8378878EE190E08E1BC2
:101E50009F0B9C838B8312C0309781F00E2E04C0A1
:101E6000EE0CFF1C001F111F0A94D2F7ED82FE82B8
:101E70000F831887CE1ADF0ADC82CB821A82CE014A
:101E800001960E94960F2896EAE00C948711EF9233
:101E9000FF920F931F937B018C0180E0E81680E096
:101EA000F80681E0080780E0180788F48FEFE8164D
:101EB000F1040105110531F028F088E090E0A0E080
:101EC000B0E017C080E090E0A0E0B0E012C080E099
:101ED000E81680E0F80680E0080781E0180728F09F
:101EE00088E190E0A0E0B0E004C080E190E0A0E0F4
:101EF000B0E020E230E040E050E0281B390B4A0B14
:101F00005B0B04C016950795F794E7948A95D2F772
:101F1000F701E759FE4F8081281B3109410951091A
:101F2000C9011F910F91FF90EF900895DF92EF92FA
:101F3000FF920F931F93FC01E480F58006811781C7
:101F4000D1808081823048F480E090E0A0E1B0E070
:101F5000E82AF92A0A2B1B2BA5C0843009F49FC05C
:101F6000823021F4EE24FF24870105C0E114F1043E
:101F70000105110519F4E0E0F0E096C0628173817B
:101F80009FEF623879070CF05BC022E83FEF261B19
:101F9000370B2A3131052CF020E030E040E050E0F2
:101FA0002AC0B801A701022E04C0769567955795FF
:101FB00047950A94D2F781E090E0A0E0B0E004C039
:101FC000880F991FAA1FBB1F2A95D2F70197A10955
:101FD000B1098E219F21A023B1230097A105B1054E
:101FE00021F081E090E0A0E0B0E09A01AB01282B65
:101FF000392B4A2B5B2BDA01C9018F779070A070C7
:10200000B07080349105A105B10539F427FF09C0EE
:10201000205C3F4F4F4F5F4F04C0215C3F4F4F4FFD
:102020005F4FE0E0F0E02030A0E03A07A0E04A0790
:10203000A0E45A0710F0E1E0F0E079018A0127C03E
:102040006038710564F5FB01E158FF4FD801C70105
:102050008F779070A070B07080349105A105B105A4
:1020600039F4E7FE0DC080E490E0A0E0B0E004C0E9
:102070008FE390E0A0E0B0E0E80EF91E0A1F1B1FFE
:1020800017FF05C016950795F794E794319687E0FA
:1020900016950795F794E7948A95D1F705C0EE2435
:1020A000FF248701EFEFF0E06E2F679566276795B5
:1020B000902F9F77D794DD24D7948E2F8695492F24
:1020C000462B582F5D29B701CA011F910F91FF9030
:1020D000EF90DF900895FC01DB0140815181228166
:1020E000622F6F7770E0221F2227221F9381892F92
:1020F000880F822B282F30E0991F9927991F11965E
:102100009C93119721153105A9F5411551056105DC
:10211000710511F482E037C082E89FEF13969C931B
:102120008E9312979A01AB0167E0220F331F441F71
:10213000551F6A95D1F783E08C930DC0220F331F92
:10214000441F551F12968D919C91139701971396DA
:102150009C938E931297203080E0380780E04807E8
:1021600080E4580758F314962D933D934D935C9358
:10217000179708952F3F310579F4411551056105F1
:10218000710519F484E08C93089564FF03C081E025
:102190008C9312C01C9210C02F57304013963C9362
:1021A0002E93129783E08C9387E0440F551F661F90
:1021B000771F8A95D1F7706414964D935D936D9354
:1021C0007C93179708951F93DC01FB019C9192303B
:1021D00008F447C08081823008F443C0943051F441
:1021E00011961C91843099F58181682F70E0611BF4
:1021F00071093FC0843021F0923031F48230B9F15E
:102200008181882389F12DC011961C91119782300C
:10221000F1F081811817D9F412962D913C91139702
:10222000828193818217930794F028173907BCF0B5
:1022300014968D919D910D90BC91A02D2481358196
:1022400046815781281739074A075B0718F411237D
:1022500041F00AC082179307A407B50740F4112381
:1022600019F061E070E005C06FEF7FEF02C060E041
:1022700070E0CB011F91089597FB092E07260AD025
:1022800077FD04D00CD006D000201AF4709561952B
:102290007F4F0895F6F7909581959F4F0895AA1B5B
:1022A000BB1B51E107C0AA1FBB1FA617B70710F041
:1022B000A61BB70B881F991F5A95A9F78095909573
:1022C000BC01CD0108952F923F924F925F926F9281
:1022D0007F928F929F92AF92BF92CF92DF92EF92B6
:1022E000FF920F931F93CF93DF93CDB7DEB7CA1B37
:1022F000DB0B0FB6F894DEBF0FBECDBF09942A8862
:10230000398848885F846E847D848C849B84AA8409
:10231000B984C884DF80EE80FD800C811B81AA8196
:10232000B981CE0FD11D0FB6F894DEBF0FBECDBF61
:10233000ED010895A0E0B0E0E0EAF1E10C946B114A
:10234000EC01A880B980CA80DB80A114B104C1046B
:10235000D10441F484E2A82E89EDB82E8BE5C82E75
:1023600087E0D82EC601B5012DE133EF41E050E002
:102370000E94591227EA31E440E050E00E943A12EC
:102380007B018C01C601B5012DE133EF41E050E046
:102390000E945912CA01B9012CEE34EF4FEF5FEFE2
:1023A0000E943A126E0D7F1D801F911F97FF04C07F
:1023B0006150704080409048688379838A839B8312
:1023C0009B013F77C901CDB7DEB7EAE00C948711D6
:1023D0000E949A11089589E692E00E949A11089548
:1023E000A0E0B0E08093690290936A02A0936B0230
:1023F000B0936C020895FB019F01E8944230C4F051
:102400004532B4F44A3029F497FB1EF49095819537
:102410009F4F642F77270E944F11805D8A330CF005
:10242000895D8193CB010097A1F716F45DE251938A
:102430001082C9010C942A12262FF999FECF1FBAD7
:1024400092BD81BD20BD0FB6F894FA9AF99A0FBEDD
:1024500001960895DC01FC01672F71917723E1F764
:10246000329704C07C916D9370836291AE17BF0761
:10247000C8F30895629FD001739FF001829FE00D21
:10248000F11D649FE00DF11D929FF00D839FF00DF3
:10249000749FF00D659FF00D9927729FB00DE11D9F
:1024A000F91F639FB00DE11DF91FBD01CF0111247C
:1024B000089597FB092E05260ED057FD04D014D0A1
:1024C0000AD0001C38F450954095309521953F4F27
:1024D0004F4F5F4F0895F6F79095809570956195F1
:1024E0007F4F8F4F9F4F0895A1E21A2EAA1BBB1B4F
:1024F000FD010DC0AA1FBB1FEE1FFF1FA217B307D0
:10250000E407F50720F0A21BB30BE40BF50B661FE5
:10251000771F881F991F1A9469F7609570958095A9
:1025200090959B01AC01BD01CF010895F894FFCFB8
:102530007374617274696E6720200020202020204F
:102540002020202020202020202000676F6F64633F
:102550006C6F636B697300202020202020202020D6
:1025600020202020200063616C6962726174696FB1
:102570006E2020202000636F6D706C6574652020D4
:102580002020202020200001000300010001C8C8F5
:10259000C800000000000000000001020203030365
:1025A00003040404040404040405050505050505E5
:1025B00005050505050505050506060606060606C4
:1025C00006060606060606060606060606060606AB
:1025D0000606060606060606060707070707070794
:1025E000070707070707070707070707070707077B
:1025F000070707070707070707070707070707076B
:10260000070707070707070707070707070707075A
:102610000707070707070707070808080808080843
:10262000080808080808080808080808080808082A
:10263000080808080808080808080808080808081A
:10264000080808080808080808080808080808080A
:1026500008080808080808080808080808080808FA
:1026600008080808080808080808080808080808EA
:1026700008080808080808080808080808080808DA
:1026800008080808080808080808080808080808CA
:0E2690000808080808080808080100000000F3
:00000001FF
