:100000000C9434000C945A000C945A000C945A002E
:100010000C945A000C945A000C9432060C945A001A
:100020000C945A000C945A000C945A000C945C00E6
:100030000C945A000C945A000C94FF090C945A002A
:100040000C945A000C945A000C945A000C945A00C8
:100050000C945A000C945A000C945A000C94D2033D
:100060000C945A000C945A0011241FBECFEFD8E014
:10007000DEBFCDBF14BE88E10FB6F8948093600058
:10008000109260000FBE12E0A0E0B1E0E6E8F4E2FA
:1000900002C005900D92A63BB107D9F713E0A6EB7D
:1000A000B2E001C01D92A435B107E1F70E94F1064C
:1000B0000C9441120C9400001F920F920FB60F92F5
:1000C00011243F924F925F926F927F928F929F92F4
:1000D000AF92BF92CF92DF92EF92FF920F931F9356
:1000E0002F933F934F935F936F937F938F939F9340
:1000F000AF93BF93CF93DF93EF93FF9321E030E073
:100100003093A8012093A7018091BC029091BD0279
:10011000892B09F047C080917800909179009093E5
:10012000D1028093D00210927C0043EB40937A007E
:1001300091E090937B008091D2028093D302309320
:10014000BD022093BC028091D202882309F442C0F0
:100150001092D3021092D4021092D5021092D602BD
:100160001092D70290937C0040937A0090937B008A
:100170001092810010928500109284001092BD02AE
:100180001092BC021092B9021092B8028091BE0285
:100190009091BF0203969093BF028093BE0285E0C8
:1001A00085BD18C08091BC029091BD02019709F5F0
:1001B00080917800909179009093CF028093CE0245
:1001C0008091D2028093D40282E090E09093BD02AD
:1001D0008093BC028091C0029091C102209178006E
:1001E00030917900820F931F9093C1028093C002D7
:1001F000B5C28091BC029091BD02029739F4809102
:10020000D2028093D50283E090E00CC08091BC02C2
:100210009091BD02039759F48091D2028093D60247
:1002200084E090E09093BD028093BC0297C28091DD
:10023000BC029091BD02049709F090C28091D20255
:100240008093D7021092BD021092BC028091D4021A
:100250009091D5022091D6023091D702890F805813
:10026000820F831709F053C28091D302882309F0CB
:100270004EC28091CE029091CF02845893401CF0E0
:1002800033243A9499C02091CE023091CF028091CC
:100290003203909133038217930714F433248CC0F4
:1002A00051E0452E512C2091CE023091CF02E20137
:1002B000CC0FDD1FCE5CDC4F8881998182179307BC
:1002C00054F00894411C511C8EE04816510459F713
:1002D0002AE5322E71C068817981F201EE0FFF1F8D
:1002E000E05DFC4F20813181621B730B882777FD15
:1002F0008095982F0E94CD0D9B01AC010E94760C39
:100300003B014C01E880F9806091CE027091CF02F0
:10031000882777FD8095982F0E94CD0D5B016C0199
:100320000027F7FC0095102FC801B7010E94CD0DE2
:100330007B018C01B201882777FD8095982F0E9460
:10034000CD0D20E030E040E05FE30E94A30C20E010
:1003500030E040E050E00E94760C9B01AC01C4010B
:10036000B3010E94A30C9B01AC01C801B7010E941C
:10037000450C9B01AC01C601B5010E94450C20E073
:1003800030E040E251E40E94A30C0E942B0E7B015E
:100390008C01C401B3010E942B0E9B01AC01C7016B
:1003A000B9010E94ED10882777FD8095982F0E9453
:1003B000CD0D0E94CD0A362E8091CE029091CF02B3
:1003C0008D5B92400CF4A2C02091D0023091D102FA
:1003D0008091160390911703821793070CF48BC03A
:1003E00081E0482E512C2091D0023091D102E201BF
:1003F000CC0FDD1FCA5EDC4F88819981821793077D
:1004000044F00894411C511C8EE04816510459F7E1
:1004100072C068817981F201EE0FFF1FEC5EFC4F24
:1004200020813181621B730B882777FD8095982F7F
:100430000E94CD0D9B01AC010E94760C3B014C014A
:10044000E880F9806091D0027091D102882777FD11
:100450008095982F0E94CD0D5B016C010027F7FC61
:100460000095102FC801B7010E94CD0D7B018C01B2
:10047000B201882777FD8095982F0E94CD0D20E04E
:1004800030E040E05FE30E94A30C20E030E040E079
:1004900050E00E94760C9B01AC01C401B3010E94A4
:1004A000A30C9B01AC01C801B7010E94450C9B0144
:1004B000AC01C601B5010E94450C20E030E040E2ED
:1004C00051E40E94A30C0E942B0E7B018C01C401FD
:1004D000B3010E942B0E9B01AC01C701B9010E9420
:1004E000ED10882777FD8095982F0E94CD0D0E94F2
:1004F000CD0A6F3F59F02FEF321641F08091CE02B6
:100500009091CF028091CE029091CF028091D6023D
:1005100080FD62C0E0910803F09109038091D4024C
:1005200090E0EE0FFF1FE852FD4F91838083E09132
:100530000803F09109038091D50290E0EE0FFF1FB0
:10054000E052FD4F91838083E0910803F09109030D
:100550008091D60290E0EE0FFF1FE851FD4F91838E
:100560008083E0910803F09109038091D00290917B
:10057000D102EE0FFF1FE051FD4F91838083E09188
:100580000803F09109038091CE029091CF02EE0F03
:10059000FF1FE850FD4F91838083E0910803F091A5
:1005A0000903EE0FFF1FE050FD4F81E090E09183C3
:1005B0008083809108039091090301969093090329
:1005C000809308038091080390910903049721F414
:1005D00010920903109208038091D60280FF97C001
:1005E0008091D502882309F092C08091D40289308D
:1005F00008F08DC02091A2013091A3018091D40216
:1006000090E02817390709F482C08091D402833022
:1006100009F468C040E050E01FC0FA01EE0FFF1F70
:10062000E25BFC4F208131818091D40290E0281759
:10063000390781F010924F0310924E03109251032C
:100640001092500310925303109252031092C3025F
:100650001092C2024F5F5F4F8091C2029091C3021D
:1006600048175907D4F28091C2029091C3020397B0
:10067000B4F4E091C202F091C3028091D40290E000
:10068000EE0FFF1FE25BFC4F918380838091C202DB
:100690009091C30201969093C3028093C20280910D
:1006A000C2029091C3020397E9F48091D40290E0D2
:1006B0009093A3018093A20181E090E09093A10127
:1006C0008093A00110924F0310924E031092510399
:1006D0001092500310925303109252031092C302CF
:1006E0001092C2028091D402833089F421E030E07C
:1006F0003093B7022093B6028091D40290E0909399
:10070000A3018093A2013093A1012093A00191E065
:1007100090937C0083EB80937A0090937B001092FF
:10072000B9021092B8021092D3021092D402109221
:10073000D5021092D6021092D70210928100109228
:100740008500109284008091BE029091BF020C96A9
:100750009093BF028093BE0285E085BD1092D202C5
:10076000FF91EF91DF91CF91BF91AF919F918F91C9
:100770007F916F915F914F913F912F911F910F91B9
:10078000FF90EF90DF90CF90BF90AF909F908F90B1
:100790007F906F905F904F903F900F900FBE0F90A3
:1007A0001F9018951F920F920FB60F9211242F933E
:1007B0003F938F939F93209184003091850015BCC7
:1007C0008091A7019091A801019711F510928500E1
:1007D0001092840081E08093810080917A008F7D67
:1007E00080937A008091BC029091BD02892B29F4FC
:1007F00089E08093890080E804C088E080938900C4
:1008000080E4809388001092A8011092A70139C05B
:1008100084E02A3B3807D4F482E0203A38075CF4BD
:100820002359314024F48091D202805828C080910D
:10083000D202805C24C02D5A334024F48091D2022D
:10084000805E1DC08091D202805F19C086E0243D89
:1008500038075CF4275C354024F48091D202885F2D
:100860000EC08091D2028C5F0AC0215E374024F412
:100870008091D2028E5F03C08091D2028F5F8093FD
:10088000D20281E090E09093B9028093B8029F91E8
:100890008F913F912F910F900FBE0F901F90189541
:1008A000AC0120E030E0FA01E20FF31F8081809379
:1008B000C6008091C00085FFFCCF2F5F3F4F2A30DC
:1008C000310589F78AE08093C6008091C00085FFDA
:1008D000FCCF8DE08093C6008091C00085FFFCCFE7
:1008E0000895CF92DF92EF92FF920F931F93DF93C1
:1008F000CF93CDB7DEB72C970FB6F894DEBF0FBEFF
:10090000CDBF282F78948091B8029091B9020197B9
:1009100019F422E030E0ECC029836A834B8320582D
:10092000260F240F2C836E010894C11CD11CDE01FC
:1009300015968D017D01F60161916F0170E09B01BB
:1009400020723070F3E035952795FA95E1F7CB01E9
:100950008071907095958795280F391FCB01807411
:10096000907055E0959587955A95E1F7280F391FB6
:10097000CB01880F892F881F990B9195280F391F5C
:10098000CB0181709070880F991F880F991FAB0160
:1009900042705070840F951F880F991F880F991F00
:1009A000AB0144705070840F951F880F991F880FFA
:1009B000991F68707070860F971F880F991F280FF6
:1009C000391F220F331F2F5F3F4FF80121933193BF
:1009D0008F01CE14DF0409F0AECFF8948091B802F5
:1009E0009091B9023091BA02892B09F062C084B1AA
:1009F000832B84B985B1832B85B90000000085B1B4
:100A0000232F2095822385B980E090E00000019695
:100A100085339105D9F780E090E000B605FE0AC065
:100A200085B1822385B984B1282324B9789423E041
:100A300030E05EC000B605FE0AC085B1822385B9EC
:100A400084B1282324B9789424E030E051C0019681
:100A5000813C910511F725C040FF06C085B1832B6D
:100A600085B90000000005C085B1822385B900006A
:100A7000000085B1822385B980E090E000000196F6
:100A800083329105D9F756954795615070408FEFA5
:100A90006F3F780709F74D935D93AE17BF0719F4C1
:100AA00014C0FE013D964D915C91119768E070E095
:100AB000D3CF85B1932F9095892385B984B198239D
:100AC00094B9789425E030E013C085B1822385B9CC
:100AD00084B1282324B980E090E00000019682339D
:100AE0009105D9F780B7806180BF789421E030E02C
:100AF000C9012C960FB6F894DEBF0FBECDBFCF91C3
:100B0000DF911F910F91FF90EF90DF90CF900895AC
:100B10008091B8029091B902892B19F02FEF3FEF25
:100B20001AC0F89487E080937C0080917A008064FA
:100B300080937A0080917A0084FFFCCF91E09093BB
:100B40007C0082EB80937A0090937B0078942091D4
:100B5000780030917900C901089529B130E02095DD
:100B6000309521703070C90108951092B70210922B
:100B7000B602F89484E083BF14BE8091600088615F
:100B80008093600081E68093600014B815B817B8B0
:100B900018B81AB81BB8789480917A008F77809330
:100BA0007A00A89583B7816083BF8895789434E0F4
:100BB00021E61BC033BF14BE809160008861809322
:100BC00060002093600014B815B817B818B81AB8A8
:100BD0001BB8789480917A008F7780937A00A895DB
:100BE00083B7816083BF889578948091B602909195
:100BF000B702892BF9F2539A239A8091B000816A47
:100C00008093B0008091B10082608093B100109217
:100C1000B4001092B3000895982F40FF02C03D9A8F
:100C200001C03D98842F859580FF02C03C9A01C089
:100C30003C9890FF02C0559A01C05598892F859520
:100C400080FF02C0549A01C0549860FF02C03B9AD2
:100C500001C03B98862F859580FF02C03A9A08957F
:100C60003A9808951F920F920FB60F9211242F9366
:100C70003F934F935F936F937F938F939F93AF9324
:100C8000BF93EF93FF93A895529A5A9AEAE7F0E040
:100C9000808180688083E0E6F0E0808188618083E5
:100CA0001082789487E067E047E00E940C0680E2BB
:100CB0009EE40197F1F780E060E040E00E940C06BE
:100CC000FF91EF91BF91AF919F918F917F916F9124
:100CD0005F914F913F912F910F900FBE0F901F90FA
:100CE0001895EF92FF920F931F93DF93CF93CDB799
:100CF000DEB72A970FB6F894DEBF0FBECDBF8E01C8
:100D00000F5F1F4F78019E01255F3F4FF701119242
:100D10007F01E217F307D1F7BE016F5F7F4F4AE013
:100D200050E00E94AC11F80180818093C600809150
:100D3000C00085FFFCCF0F5F1F4F0E151F0599F7F1
:100D400080E28093C6008091C00085FFFCCF2A9688
:100D50000FB6F894DEBF0FBECDBFCF91DF911F91CC
:100D60000F91FF90EF9008958091B8029091B90291
:100D7000892B19F06FEF7FEF32C080917A00F894E1
:100D800086E080937C0080917A00806480937A0072
:100D900080917A0084FFFCCF7894809178009091C4
:100DA00079000E947106609178007091790080E06E
:100DB00090E00E947F0E2AEC34E541EC5BE30E9458
:100DC000A30C24E237E94FE75CE30E94760C20E0B5
:100DD00030E048EC52E40E94A30C0E942B0ECB01A1
:100DE00008958F929F92AF92BF92CF92DF92EF922F
:100DF000FF920F931F93CF93DF9310924F031092A4
:100E00004E0310925103109250031092530310920C
:100E100052031092010310920003109203031092E8
:100E2000020310920503109204031092070310921C
:100E3000060314B815B817B818B81AB81BB8529AE0
:100E40005A9A81E090E00E94CD1180936600519AF9
:100E500081E090E09093C5008093C4001092C000A0
:100E60008091C10088608093C1008091C20086603B
:100E70008093C20080E091E00E945004539A239A2C
:100E80008091B000816A8093B0008091B10082604F
:100E90008093B1001092B4001092B30080B78B60C1
:100EA00080BF83E080937F0010927C0083EC80936E
:100EB0007A001092800081E08093810092E090930C
:100EC0006F0082E3809389001092880014BC85E053
:100ED00085BD90936E008FEF87BDCC24DD24C0E2EA
:100EE000D0E0CE010E94CD1190E08601000F111FCD
:100EF0000A5E1C4FF8019183808380819181982F35
:100F0000882791838083E080F180CE0101960E9442
:100F1000CD11E80EF11CF801F182E0820894C11CA9
:100F2000D11C2296FEE0CF16D104D9F6CC24DD24C4
:100F3000C0E5D0E0CE010E94CD1190E08601000F07
:100F4000111F0E5C1C4FF801918380838081918179
:100F5000982F882791838083E080F180CE010196CD
:100F60000E94CD11E80EF11CF801F182E082089494
:100F7000C11CD11C2296FEE0CF16D104D9F680E91F
:100F800090E00E94CD118093BA028BE091E00E9424
:100F9000500480E291E00E9450048BE091E00E94B6
:100FA000500485E391E00E945004C0E0D0E0FE01CF
:100FB000EE0FFF1FEA5EFC4F808191810E94710657
:100FC0002196CE30D10599F78BE091E00E94500434
:100FD00088E491E00E945004C0E0D0E0FE01EE0FF2
:100FE000FF1FEE5CFC4F808191810E94710621966B
:100FF000CE30D10599F78BE091E00E9450048CE54A
:1010000091E00E9450048091BA0290E00E94710623
:1010100088E691E00E94500485E791E00E94500428
:101020008091660090E00E94710688E691E00E943F
:10103000500481E891E00E94500488E691E00E940B
:10104000500481E060E040E00E940C0688EB9BE0E9
:1010500028EC30E0F9013197F1F70197D9F780E0FA
:1010600061E040E00E940C0688EB9BE028EC30E059
:10107000F9013197F1F70197D9F780E060E041E09D
:101080000E940C0688EB9BE028EC30E0F9013197D8
:10109000F1F70197D9F780E060E040E00E940C068C
:1010A00010929F0178941092010310920003109205
:1010B000030310920203109205031092040310928E
:1010C000070310920603A0EAAA2EAFE0BA2EC8ECDE
:1010D000D0E0F5E09F2EE0E2EE2EEEE4FE2E882436
:1010E0008A9478E7C72E75E0D72E01E010E01092C1
:1010F000A1011092A0018091A0019091A1010197FE
:1011000009F0D0C01092BB0278941092A101109205
:10111000A0018091A2019091A301019751F4109236
:10112000B4001092B3005C9810929F0115BC0C940F
:1011300000388091A2019091A301029741F410928E
:101140009F011092B7021092B6020E94B5058091DD
:10115000A2019091A301039731F08091A201909197
:10116000A301049751F580E060E040E00E940C0686
:101170001092B4001092B3005C9810929F0114C0BA
:1011800087E067E040E00E940C06C7010197F1F795
:1011900080E060E040E00E940C0680E197E2FE0102
:1011A0003197F1F70197D9F78091A0019091A101B2
:1011B000892B31F381E080939F018091A20190916E
:1011C000A301059781F51092B4001092B3005C98CA
:1011D00015BC10929F011DC00E94B4068159914018
:1011E00014F080E00FC00E94B4068758914024F0AC
:1011F00080E060E047E00BC00E94B4068F5591404C
:101200001CF087E067E002C087E060E040E00E94F9
:101210000C068091A0019091A101892BE9F281E057
:1012200080939F0195BC8091A2019091A3010697A4
:1012300029F481E080939F018093BB028091A201F9
:101240009091A3010797D9F41092B4001092B300C3
:101250005C9815BC10929F0108C0489906C0BFC099
:10126000FE013197F1F70197D9F78091A001909194
:10127000A101892B91F381E080939F0195BC80911E
:10128000A2019091A301089769F4F89428E088E1FD
:1012900090E00FB6F894A895809360000FBE20935D
:1012A0006000FFCF81E08093BB028091BB02813060
:1012B00009F01DCF80939F018092A4018092A50127
:1012C0008091A6018E7F8093A6011092A601A09125
:1012D0000803B0910903109215031092140320E043
:1012E00030E0109719F4A3E0B0E001C01197FD01C0
:1012F000EE0FFF1FE050FD4F80819181019709F0B3
:1013000043C0F894FD01EE0FFF1FE852FD4F8081AE
:10131000918190930B0380930A03FD01EE0FFF1F51
:10132000E052FD4F8081918190930D0380930C03D7
:10133000FD01EE0FFF1FE851FD4F808191819093D9
:101340000F0380930E03FD01EE0FFF1FE051FD4FD1
:10135000808191819093110380931003AA0FBB1F8A
:10136000FD01E850FD4F808191819093130380939C
:10137000120378941093150300931403A050BD4FEB
:1013800011961C921E9206C02F5F3F4F24303105EC
:1013900009F0A7CF8091140390911503019709F0EC
:1013A000A6CE81E061E041E00E940C06C6010197F3
:1013B000F1F780E060E040E00E940C0680911003AD
:1013C000909111030E947106809112039091130372
:1013D0000E9471068FE891E00E94500488CE81E05F
:1013E00060E040E00E940C06C5010197F1F780E043
:1013F00060E040E00E940C0680ED97E031CF1F9244
:101400000F920FB60F9211242F933F934F935F9338
:101410006F937F938F939F93AF93BF93EF93FF93BC
:101420002091C4023091C5028091BE029091BF020A
:10143000820F931F9093C5028093C4022091BE0235
:101440003091BF028091CC029091CD02820F931F08
:101450009093CD028093CC022091C6023091C702B6
:101460008091BE029091BF02820F931F9093C7029A
:101470008093C6022091C8023091C9028091BE02B9
:101480009091BF02820F931F9093C9028093C8026C
:101490002091CA023091CB028091BE029091BF028E
:1014A00064E670E00E94ED10260F371F3093CB02E8
:1014B0002093CA028091CA029091CB0281509D472D
:1014C00020F01092CB021092CA028FEF90E090931E
:1014D000BF028093BE028FEF87BD8091C4029091BE
:1014E000C502875292406CF180919F01813049F58D
:1014F0008091B8029091B902892BA1F48091A40146
:101500006091A5014091A60190E070E050E00E943A
:101510007104009739F0019729F41092C5021092D6
:10152000C4020FC00E949C116FEF70E00E94ED108A
:101530009093BF028093BE028091BE029091BF0241
:1015400087BD8091CC029091CD02885F9840A4F035
:101550001092CD021092CC0210924F0310924E03C3
:1015600010925103109250031092530310925203A1
:101570001092C3021092C202FF91EF91BF91AF91FE
:101580009F918F917F916F915F914F913F912F919B
:101590000F900FBE0F901F901895EF92FF920F9330
:1015A0001F937B018C0120E030E040E05FE40E946B
:1015B0009D0D88238CF0C801B70120E030E040E0A9
:1015C0005FE40E94450C0E942B0E9B01AC01205051
:1015D00030404040504806C0C801B7010E942B0E61
:1015E0009B01AC01B901CA011F910F91FF90EF90CF
:1015F0000895A0E0B0E0EFEFFAE00C941411DC01E4
:101600002B01FA019C91923008F439C1EB018881D9
:10161000823008F433C1943069F4843009F02FC16A
:1016200011969C9111978981981709F428C1A9EA0C
:10163000B1E025C1843009F421C18230A9F492308F
:1016400009F01DC19A01AD0188E0EA010990AE01DF
:10165000E90109929E018150C1F7E2018981119649
:101660009C918923818308C1923009F407C11296A5
:101670002D903C901397EB018A819B811496AD903D
:10168000BD90CD90DC901797EC80FD800E811F817E
:101690009101281B390BB90137FF04C06627772752
:1016A000621B730B603271050CF061C012161306D9
:1016B0006CF537014801062E04C096948794779400
:1016C00067940A94D2F721E030E040E050E004C093
:1016D000220F331F441F551F6A95D2F72150304007
:1016E000404050402E213F214023512321153105F8
:1016F0004105510521F021E030E040E050E0790162
:101700008A01E628F728082919293CC0232BD1F1A2
:10171000260E371E35014601062E04C09694879486
:10172000779467940A94D2F721E030E040E050E0EB
:1017300004C0220F331F441F551F6A95D2F7215052
:101740003040404050402A213B214C215D21211551
:1017500031054105510521F021E030E040E050E045
:1017600059016A01A628B728C828D9280BC08215B4
:1017700093052CF01C01AA24BB24650103C0EE24B0
:10178000FF24870111969C91D20111968C91981794
:1017900009F445C0992339F0A80197012A193B099A
:1017A0004C095D0906C0A60195012E193F09400BA1
:1017B000510B57FD08C01182338222822483358366
:1017C000468357831DC081E081833382228288272C
:1017D0009927DC01821B930BA40BB50B84839583A3
:1017E000A683B7830DC0220F331F441F551F2483C8
:1017F00035834683578382819381019793838283C4
:101800002481358146815781DA01C9010197A109F7
:10181000B1098F5F9F4FAF4FBF4328F30BC0918338
:1018200033822282EA0CFB1C0C1D1D1DE482F58212
:101830000683178383E08083248135814681578125
:1018400057FF1AC0C901AA2797FDA095BA2F81702A
:101850009070A070B0705695479537952795822B5C
:10186000932BA42BB52B84839583A683B783828186
:101870009381019693838283DF0101C0D201CD0160
:10188000CDB7DEB7E2E10C943011A0E2B0E0EBE4BA
:10189000FCE00C94201169837A838B839C832D83D5
:1018A0003E834F835887E9E0EE2EF12CEC0EFD1EAF
:1018B000CE010196B7010E941C108E010F5E1F4FD2
:1018C000CE010596B8010E941C108A8991E08927F3
:1018D0008A8BC701B801AE01475E5F4F0E94F90ACB
:1018E0000E94470FA096E6E00C943C11A0E2B0E005
:1018F000ECE7FCE00C94201169837A838B839C8352
:101900002D833E834F835887F9E0EF2EF12CEC0EA8
:10191000FD1ECE010196B7010E941C108E010F5EC4
:101920001F4FCE010596B8010E941C10C701B801D7
:10193000AE01475E5F4F0E94F90A0E94470FA096D2
:10194000E6E00C943C11A0E2B0E0E9EAFCE00C9483
:10195000141169837A838B839C832D833E834F8309
:101960005887CE010196BE01675F7F4F0E941C1011
:10197000CE010596BE016F5E7F4F0E941C109985B7
:10198000923088F089898230C8F0943019F482301E
:1019900051F404C0843029F4923081F489EA91E052
:1019A000C6C0923049F420E09A858A89981321E0D4
:1019B0002A87CE010996BBC0823049F420E09A857F
:1019C0008A89981321E02A8BCE014196B0C02D84DC
:1019D0003E844F8458886D887E888F88988CEE244A
:1019E000FF248701AA24BB24650140E050E060E0A9
:1019F00070E0E0E0F0E0C10181709070892BE9F0C7
:101A0000E60CF71C081D191D9A01AB012A0D3B1DA0
:101A10004C1D5D1D80E090E0A0E0B0E0E614F7040E
:101A20000805190520F481E090E0A0E0B0E0BA01DB
:101A3000A901480F591F6A1F7B1FAA0CBB1CCC1C95
:101A4000DD1C97FE08C081E090E0A0E0B0E0A82A8D
:101A5000B92ACA2ADB2A3196E032F10549F0660C30
:101A6000771C881C991C5694479437942794C3CFAD
:101A7000FA85EA892B893C898B859C85280F391F3B
:101A80002E5F3F4F17C0CA0181709070892B61F0A3
:101A900016950795F794E79480E090E0A0E0B0E811
:101AA000E82AF92A0A2B1B2B7695679557954795B7
:101AB0002F5F3F4F77FDE7CF0CC0440F551F661FC8
:101AC000771F17FD4160EE0CFF1C001F111F2150F6
:101AD0003040403090E0590790E0690790E4790782
:101AE00060F32B8F3C8FDB01CA018F779070A07061
:101AF000B07080349105A105B10561F447FD0AC0BD
:101B0000E114F1040105110529F0405C5F4F6F4FAE
:101B10007F4F40781A8EFE1711F081E08A8F4D8F2B
:101B20005E8F6F8F78A383E0898FCE0149960E94E4
:101B3000470FA096E2E10C943011A8E1B0E0E3EA8F
:101B4000FDE00C94201169837A838B839C832D8321
:101B50003E834F83588789E0E82EF12CEC0EFD1E62
:101B6000CE010196B7010E941C108E010F5E1F4F1F
:101B7000CE010596B8010E941C108985823040F084
:101B80008989823028F0C701B8010E94941001C0F1
:101B90008FEF6896E6E00C943C11A8E0B0E0E3ED2E
:101BA000FDE00C941D119B01AC0183E08983DA01F7
:101BB000C9018827B7FD83959927AA27BB27B82E87
:101BC000211531054105510519F482E089833AC098
:101BD0008823A9F0203080E0380780E0480780E8BB
:101BE000580729F460E070E080E09FEC30C0EE24FC
:101BF000FF248701E21AF30A040B150B02C07901D6
:101C00008A018EE1C82ED12CDC82CB82ED82FE824D
:101C10000F831887C801B7010E94F80E01971816A4
:101C2000190684F4082E04C0EE0CFF1C001F111FBF
:101C30000A94D2F7ED82FE820F831887C81AD90A58
:101C4000DC82CB82BA82CE0101960E94470F289691
:101C5000E9E00C943911ACE0B0E0E1E3FEE00C9473
:101C6000241169837A838B839C83CE010196BE0104
:101C70006B5F7F4F0E941C108D81823061F182303A
:101C800050F1843021F48E81882351F12EC02F81B0
:101C9000388537FD20C06E812F3131051CF0662359
:101CA000F9F023C08EE190E0821B930B29853A85E1
:101CB0004B855C8504C056954795379527958A9541
:101CC000D2F76623B1F050954095309521953F4F5E
:101CD0004F4F5F4F0EC020E030E040E050E009C0C1
:101CE0002FEF3FEF4FEF5FE704C020E030E040E030
:101CF00050E8B901CA012C96E2E00C944011A8E02A
:101D0000B0E0E5E8FEE00C941C117B018C0161154C
:101D100071058105910519F482E0898360C083E033
:101D200089838EE1C82ED12CDC82CB82ED82FE82AB
:101D30000F831887C801B7010E94F80EFC01319784
:101D4000F7FF3BC0222733272E1B3F0B57016801AB
:101D5000022E04C0D694C794B794A7940A94D2F7DD
:101D600040E050E060E070E081E090E0A0E0B0E0B2
:101D700004C0880F991FAA1FBB1F2A95D2F701978D
:101D8000A109B1098E219F21A023B1230097A105AC
:101D9000B10521F041E050E060E070E04A295B29A4
:101DA0006C297D294D835E836F8378878EE190E077
:101DB0008E1B9F0B9C838B8312C0309781F00E2E5D
:101DC00004C0EE0CFF1C001F111F0A94D2F7ED8215
:101DD000FE820F831887CE1ADF0ADC82CB821A823A
:101DE000CE0101960E94470F2896EAE00C94381124
:101DF000EF92FF920F931F937B018C0180E0E81616
:101E000080E0F80681E0080780E0180788F48FEF8B
:101E1000E816F1040105110531F028F088E090E0A2
:101E2000A0E0B0E017C080E090E0A0E0B0E012C019
:101E300080E0E81680E0F80680E0080781E01807F7
:101E400028F088E190E0A0E0B0E004C080E190E0FC
:101E5000A0E0B0E020E230E040E050E0281B390B89
:101E60004A0B5B0B04C016950795F794E7948A9587
:101E7000D2F7F701EF54FE4F8081281B3109410949
:101E80005109C9011F910F91FF90EF900895DF92C2
:101E9000EF92FF920F931F93FC01E480F58006817F
:101EA0001781D1808081823048F480E090E0A0E109
:101EB000B0E0E82AF92A0A2B1B2BA5C0843009F4CC
:101EC0009FC0823021F4EE24FF24870105C0E11475
:101ED000F1040105110519F4E0E0F0E096C062811B
:101EE00073819FEF623879070CF05BC022E83FEF07
:101EF000261B370B2A3131052CF020E030E040E082
:101F000050E02AC0B801A701022E04C0769567955B
:101F1000579547950A94D2F781E090E0A0E0B0E0B1
:101F200004C0880F991FAA1FBB1F2A95D2F70197DB
:101F3000A109B1098E219F21A023B1230097A105FA
:101F4000B10521F081E090E0A0E0B0E09A01AB01A2
:101F5000282B392B4A2B5B2BDA01C9018F77907024
:101F6000A070B07080349105A105B10539F427FF48
:101F700009C0205C3F4F4F4F5F4F04C0215C3F4F73
:101F80004F4F5F4FE0E0F0E02030A0E03A07A0E0E4
:101F90004A07A0E45A0710F0E1E0F0E079018A0175
:101FA00027C06038710564F5FB01E158FF4FD80187
:101FB000C7018F779070A070B07080349105A10533
:101FC000B10539F4E7FE0DC080E490E0A0E0B0E098
:101FD00004C08FE390E0A0E0B0E0E80EF91E0A1F15
:101FE0001B1F17FF05C016950795F794E7943196C8
:101FF00087E016950795F794E7948A95D1F705C081
:10200000EE24FF248701EFEFF0E06E2F679566273F
:102010006795902F9F77D794DD24D7948E2F869540
:10202000492F462B582F5D29B701CA011F910F91E7
:10203000FF90EF90DF900895FC01DB01408151811A
:102040002281622F6F7770E0221F2227221F938147
:10205000892F880F822B282F30E0991F9927991FED
:1020600011969C93119721153105A9F5411551053C
:102070006105710511F482E037C082E89FEF139685
:102080009C938E9312979A01AB0167E0220F331F46
:10209000441F551F6A95D1F783E08C930DC0220F22
:1020A000331F441F551F12968D919C9113970197D2
:1020B00013969C938E931297203080E0380780E02F
:1020C000480780E4580758F314962D933D934D9399
:1020D0005C93179708952F3F310579F44115510509
:1020E0006105710519F484E08C93089564FF03C0C1
:1020F00081E08C9312C01C9210C02F573040139671
:102100003C932E93129783E08C9387E0440F551FE6
:10211000661F771F8A95D1F7706414964D935D936F
:102120006D937C93179708951F93DC01FB019C919D
:10213000923008F447C08081823008F443C0943064
:1021400051F411961C91843099F58181682F70E0CB
:10215000611B71093FC0843021F0923031F482302C
:10216000B9F18181882389F12DC011961C911197B5
:102170008230F1F081811817D9F412962D913C919B
:102180001397828193818217930794F02817390758
:10219000BCF014968D919D910D90BC91A02D248141
:1021A000358146815781281739074A075B0718F49C
:1021B000112341F00AC082179307A407B50740F422
:1021C000112319F061E070E005C06FEF7FEF02C0EE
:1021D00060E070E0CB011F91089597FB092E072660
:1021E0000AD077FD04D00CD006D000201AF47095E8
:1021F00061957F4F0895F6F7909581959F4F0895CB
:10220000AA1BBB1B51E107C0AA1FBB1FA617B7071C
:1022100010F0A61BB70B881F991F5A95A9F7809538
:102220009095BC01CD0108952F923F924F925F92FD
:102230006F927F928F929F92AF92BF92CF92DF92D6
:10224000EF92FF920F931F93CF93DF93CDB7DEB73B
:10225000CA1BDB0B0FB6F894DEBF0FBECDBF0994CF
:102260002A88398848885F846E847D848C849B8426
:10227000AA84B984C884DF80EE80FD800C811B8134
:10228000AA81B981CE0FD11D0FB6F894DEBF0FBE63
:10229000CDBFED010895A0E0B0E0E1E5F1E10C94DF
:1022A0001C11EC01A880B980CA80DB80A114B104A4
:1022B000C104D10441F484E2A82E89EDB82E8BE547
:1022C000C82E87E0D82EC601B5012DE133EF41E0DD
:1022D00050E00E94041227EA31E440E050E00E94FE
:1022E000E5117B018C01C601B5012DE133EF41E021
:1022F00050E00E940412CA01B9012CEE34EF4FEFF6
:102300005FEF0E94E5116E0D7F1D801F911F97FFEB
:1023100004C06150704080409048688379838A830C
:102320009B839B013F77C901CDB7DEB7EAE00C94F0
:1023300038110E944B11089581EB92E00E944B11DD
:102340000895A0E0B0E08093B1029093B202A09310
:10235000B302B093B4020895FB019F01E8944230A8
:10236000C4F04532B4F44A3029F497FB1EF490953A
:1023700081959F4F642F77270E940011805D8A33DB
:102380000CF0895D8193CB010097A1F716F45DE213
:1023900051931082C9010C94D511F999FECF92BDC9
:1023A00081BDF89A992780B50895DC01FC01672F5B
:1023B00071917723E1F7329704C07C916D9370831C
:1023C0006291AE17BF07C8F30895629FD001739F53
:1023D000F001829FE00DF11D649FE00DF11D929FC1
:1023E000F00D839FF00D749FF00D659FF00D992700
:1023F000729FB00DE11DF91F639FB00DE11DF91F24
:10240000BD01CF011124089597FB092E05260ED09A
:1024100057FD04D014D00AD0001C38F450954095D4
:10242000309521953F4F4F4F5F4F0895F6F79095A8
:102430008095709561957F4F8F4F9F4F0895A1E2D2
:102440001A2EAA1BBB1BFD010DC0AA1FBB1FEE1F2E
:10245000FF1FA217B307E407F50720F0A21BB30B79
:10246000E40BF50B661F771F881F991F1A9469F7F5
:1024700060957095809590959B01AC01BD01CF0151
:062480000895F894FFCF5F
:10248600737461727420696E6974002020202020A4
:102496002020202020202020202020202020200056
:1024A60043616C6962726174696F6E206461746104
:1024B60020202020006C6F77206761696E20202025
:1024C6002020202020202000686967682067616935
:1024D6006E202020202020202020200074786D618E
:1024E600736B202020202000202020202020202068
:1024F60020202020004F534343414C202020202001
:102506000070726F6772616D20737461727400205F
:1025160020202020202020202020202020200001F4
:1025260001000300C8C8C801000000000000000048
:102536000000010202030303030404040404040468
:102546000405050505050505050505050505050536
:102556000506060606060606060606060606060616
:102566000606060606060606060606060606060605
:1025760006070707070707070707070707070707E6
:1025860007070707070707070707070707070707D5
:1025960007070707070707070707070707070707C5
:1025A60007070707070707070707070707070707B5
:1025B6000708080808080808080808080808080896
:1025C6000808080808080808080808080808080885
:1025D6000808080808080808080808080808080875
:1025E6000808080808080808080808080808080865
:1025F6000808080808080808080808080808080855
:102606000808080808080808080808080808080844
:102616000808080808080808080808080808080834
:102626000808080808080808080808080808080824
:0626360008010000000095
:00000001FF
