:100000000C9434000C945A000C945A000C945A002E
:100010000C945A000C945A000C944C060C945A0000
:100020000C945A000C945A000C945A000C945C00E6
:100030000C945A000C945A000C94880A0C945A00A0
:100040000C945A000C945A000C945A000C945A00C8
:100050000C945A000C945A000C945A000C94D2033D
:100060000C945A000C945A0011241FBECFEFD8E014
:10007000DEBFCDBF14BE88E10FB6F8948093600058
:10008000109260000FBE12E0A0E0B1E0E8E9F5E2F6
:1000900002C005900D92A63DB107D9F713E0A6ED79
:1000A000B2E001C01D92AE3CB107E1F70E940B0720
:1000B0000C94CA120C9400001F920F920FB60F926C
:1000C00011243F924F925F926F927F928F929F92F4
:1000D000AF92BF92CF92DF92EF92FF920F931F9356
:1000E0002F933F934F935F936F937F938F939F9340
:1000F000AF93BF93CF93DF93EF93FF9321E030E073
:100100003093C5012093C401809138039091390345
:10011000892B09F047C080917800909179009093E5
:100120004B0380934A0310927C0043EB40937A0088
:1001300091E090937B0080914C0380934D0330932A
:1001400039032093380380914C03882309F442C07B
:1001500010924D0310924E0310924F0310925003D1
:100160001092510390937C0040937A0090937B000F
:100170001092810010928500109284001092390331
:10018000109238031092D9021092D80280913A034B
:1001900090913B03039690933B0380933A0385E051
:1001A00085BD18C08091380390913903019709F5F6
:1001B000809178009091790090934903809348034F
:1001C00080914C0380934E0382E090E0909339033A
:1001D0008093380380913C0390913D0320917800F7
:1001E00030917900820F931F90933D0380933C03DD
:1001F000B5C28091380390913903029739F4809108
:100200004C0380934F0383E090E00CC0809138034F
:1002100090913903039759F480914C0380935003D4
:1002200084E090E0909339038093380397C28091E3
:10023000380390913903049709F090C280914C03E0
:1002400080935103109239031092380380914E032A
:1002500090914F032091500330915103890F8058A2
:10026000820F831709F053C280914D03882309F050
:100270004EC28091480390914903845893401CF0EA
:1002800033243A9499C020914803309149038091D6
:10029000AC039091AD038217930714F433248CC000
:1002A00051E0452E512C2091480330914903E20141
:1002B000CC0FDD1FC455DC4F8881998182179307CD
:1002C00054F00894411C511C8EE04816510459F713
:1002D0002AE5322E71C068817981F201EE0FFF1F8D
:1002E000E655FC4F20813181621B730B882777FD17
:1002F0008095982F0E94560E9B01AC010E94FF0C26
:100300003B014C01E880F9806091480370914903FA
:10031000882777FD8095982F0E94560E5B016C010F
:100320000027F7FC0095102FC801B7010E94560E58
:100330007B018C01B201882777FD8095982F0E9460
:10034000560E20E030E040E05FE30E942C0D20E0FC
:1003500030E040E050E00E94FF0C9B01AC01C40182
:10036000B3010E942C0D9B01AC01C801B7010E9492
:10037000CE0C9B01AC01C601B5010E94CE0C20E061
:1003800030E040E251E40E942C0D0E94B40E7B014B
:100390008C01C401B3010E94B40E9B01AC01C701E2
:1003A000B9010E947611882777FD8095982F0E94C9
:1003B000560E0E94560B362E8091480390914903A9
:1003C0008D5B92400CF4A2C020914A0330914B0304
:1003D0008091900390919103821793070CF48BC046
:1003E00081E0482E512C20914A0330914B03E201C9
:1003F000CC0FDD1FC057DC4F88819981821793078E
:1004000044F00894411C511C8EE04816510459F7E1
:1004100072C068817981F201EE0FFF1FE257FC4F35
:1004200020813181621B730B882777FD8095982F7F
:100430000E94560E9B01AC010E94FF0C3B014C0137
:10044000E880F98060914A0370914B03882777FD1B
:100450008095982F0E94560E5B016C010027F7FCD7
:100460000095102FC801B7010E94560E7B018C0128
:10047000B201882777FD8095982F0E94560E20E0C4
:1004800030E040E05FE30E942C0D20E030E040E0EF
:1004900050E00E94FF0C9B01AC01C401B3010E941B
:1004A0002C0D9B01AC01C801B7010E94CE0C9B0131
:1004B000AC01C601B5010E94CE0C20E030E040E264
:1004C00051E40E942C0D0E94B40E7B018C01C401EA
:1004D000B3010E94B40E9B01AC01C701B9010E9497
:1004E0007611882777FD8095982F0E94560E0E94DE
:1004F000560B6F3F59F02FEF321641F080914803B1
:100500009091490380914803909149038091500351
:1005100080FD62C0E0918203F091830380914E03DD
:1005200090E0EE0FFF1FEE5AFC4F91838083E09125
:100530008203F091830380914F0390E0EE0FFF1F41
:10054000E65AFC4F91838083E0918203F09183030C
:100550008091500390E0EE0FFF1FEE59FC4F918306
:100560008083E0918203F091830380914A0390910C
:100570004B03EE0FFF1FE659FC4F91838083E09100
:100580008203F09183038091480390914903EE0F19
:10059000FF1FEE58FC4F91838083E0918203F0911E
:1005A0008303EE0FFF1FE658FC4F81E090E091833C
:1005B00080838091820390918303019690938303BB
:1005C000809382038091820390918303049721F4A6
:1005D00010928303109282038091500380FF97C092
:1005E00080914F03882309F092C080914E03893097
:1005F00008F08DC02091C2013091C30180914E035B
:1006000090E02817390709F482C080914E038330A7
:1006100009F468C040E050E01FC0FA01EE0FFF1F70
:10062000E853FC4F2081318180914E0390E02817E0
:10063000390781F01092C9031092C8031092CB03BE
:100640001092CA031092CD031092CC0310923F0374
:1006500010923E034F5F5F4F80913E0390913F03A6
:1006600048175907D4F280913E0390913F030397B6
:10067000B4F4E0913E03F0913F0380914E0390E08B
:10068000EE0FFF1FE853FC4F9183808380913E0360
:1006900090913F03019690933F0380933E03809196
:1006A0003E0390913F030397E9F480914E0390E05D
:1006B0009093C3018093C20181E090E09093C101C7
:1006C0008093C0011092C9031092C8031092CB030B
:1006D0001092CA031092CD031092CC0310923F03E4
:1006E00010923E0380914E03833089F421E030E084
:1006F0003093D7022093D60280914E0390E09093DE
:10070000C3018093C2013093C1012093C00191E0E5
:1007100090937C0083EB80937A0090937B001092FF
:10072000D9021092D80210924D0310924E031092EB
:100730004F031092500310925103109281001092B7
:1007400085001092840080913A0390913B030C96AF
:1007500090933B0380933A0385E085BD10924C0350
:10076000FF91EF91DF91CF91BF91AF919F918F91C9
:100770007F916F915F914F913F912F911F910F91B9
:10078000FF90EF90DF90CF90BF90AF909F908F90B1
:100790007F906F905F904F903F900F900FBE0F90A3
:1007A0001F9018951F920F920FB60F9211242F933E
:1007B0003F938F939F93209184003091850015BCC7
:1007C0008091C4019091C501019711F510928500A7
:1007D0001092840081E08093810080917A008F7D67
:1007E00080937A008091380390913903892B29F402
:1007F00089E08093890080E804C088E080938900C4
:1008000080E4809388001092C5011092C40139C021
:1008100084E02A3B3807D4F482E0203A38075CF4BD
:100820002359314024F480914C03805828C0809192
:100830004C03805C24C02D5A334024F480914C0337
:10084000805E1DC080914C03805F19C086E0243D0E
:1008500038075CF4275C354024F480914C03885FB2
:100860000EC080914C038C5F0AC0215E374024F497
:1008700080914C038E5F03C080914C038F5F809307
:100880004C0381E090E09093D9028093D8029F912D
:100890008F913F912F910F900FBE0F901F90189541
:1008A000AC0120E030E0FA01E20FF31F8081809379
:1008B000C6008091C00085FFFCCF2F5F3F4F2A30DC
:1008C000310589F78AE08093C6008091C00085FFDA
:1008D000FCCF8DE08093C6008091C00085FFFCCFE7
:1008E0000895AC0120E030E0FA01E20FF31F8081AF
:1008F0008093C6008091C00085FFFCCF2F5F3F4FE3
:100900002D30310589F780E28093C6008091C000C8
:1009100085FFFCCF0895CF92DF92EF92FF920F9365
:100920001F93DF93CF93CDB7DEB72C970FB6F89414
:10093000DEBF0FBECDBF282F78948091D802909152
:10094000D902019719F422E030E0ECC029836A83D0
:100950004B832058260F240F2C836E010894C11C52
:10096000D11CDE0115968D017D01F60161916F01AB
:1009700070E09B0120723070F3E035952795FA9571
:10098000E1F7CB018071907095958795280F391FFD
:10099000CB018074907055E0959587955A95E1F755
:1009A000280F391FCB01880F892F881F990B91952C
:1009B000280F391FCB0181709070880F991F880F05
:1009C000991FAB0142705070840F951F880F991FBB
:1009D000880F991FAB0144705070840F951F880FCA
:1009E000991F880F991F68707070860F971F880F66
:1009F000991F280F391F220F331F2F5F3F4FF80118
:100A0000219331938F01CE14DF0409F0AECFF89417
:100A10008091D8029091D9023091DA02892B09F0A5
:100A200062C084B1832B84B985B1832B85B9000062
:100A3000000085B1232F2095822385B980E090E0C6
:100A40000000019685339105D9F780E090E000B66B
:100A500005FE0AC085B1822385B984B1282324B953
:100A6000789423E030E05EC000B605FE0AC085B190
:100A7000822385B984B1282324B9789424E030E016
:100A800051C00196813C910511F725C040FF06C079
:100A900085B1832B85B90000000005C085B1822394
:100AA00085B90000000085B1822385B980E090E01F
:100AB0000000019683329105D9F75695479561500C
:100AC00070408FEF6F3F780709F74D935D93AE1736
:100AD000BF0719F414C0FE013D964D915C9111972A
:100AE00068E070E0D3CF85B1932F9095892385B9C5
:100AF00084B1982394B9789425E030E013C085B18F
:100B0000822385B984B1282324B980E090E00000D5
:100B1000019682339105D9F780B7806180BF7894C0
:100B200021E030E0C9012C960FB6F894DEBF0FBE6D
:100B3000CDBFCF91DF911F910F91FF90EF90DF908C
:100B4000CF9008958091D8029091D902892B19F005
:100B50002FEF3FEF1AC0F89487E080937C008091DC
:100B60007A00806480937A0080917A0084FFFCCFC1
:100B700091E090937C0082EB80937A0090937B00CD
:100B800078942091780030917900C901089529B1B5
:100B900030E02095309521703070C9010895109291
:100BA000D7021092D602F89484E083BF14BE8091DD
:100BB000600088618093600081E68093600014B8D3
:100BC00015B817B818B81AB81BB8789480917A007D
:100BD0008F7780937A00A89583B7816083BF8895CB
:100BE000789434E021E61BC033BF14BE80916000CE
:100BF0008861809360002093600014B815B817B81E
:100C000018B81AB81BB8789480917A008F778093BF
:100C10007A00A89583B7816083BF88957894809186
:100C2000D6029091D702892BF9F2539A239A809198
:100C3000B000816A8093B0008091B100826080939F
:100C4000B1001092B4001092B3000895982F40FFA5
:100C500002C03D9A01C03D98842F859580FF02C057
:100C60003C9A01C03C9890FF02C0559A01C055982B
:100C7000892F859580FF02C0549A01C0549860FF67
:100C800002C03B9A01C03B98862F859580FF02C029
:100C90003A9A08953A9808951F920F920FB60F92BC
:100CA00011242F933F934F935F936F937F938F9371
:100CB0009F93AF93BF93EF93FF93A895529A5A9A3D
:100CC000EAE7F0E0808180688083E0E6F0E0808100
:100CD000886180831082789487E067E047E00E9413
:100CE000260680E29EE40197F1F780E060E040E0B4
:100CF0000E942606FF91EF91BF91AF919F918F9136
:100D00007F916F915F914F913F912F910F900FBE07
:100D10000F901F901895EF92FF920F931F93DF9300
:100D2000CF93CDB7DEB72A970FB6F894DEBF0FBECC
:100D3000CDBF8E010F5F1F4F78019E01255F3F4F92
:100D4000F70111927F01E217F307D1F7BE016F5F40
:100D50007F4F4AE050E00E943512F8018081809375
:100D6000C6008091C00085FFFCCF0F5F1F4F0E159E
:100D70001F0599F780E28093C6008091C00085FF2F
:100D8000FCCF2A960FB6F894DEBF0FBECDBFCF9131
:100D9000DF911F910F91FF90EF9008958091D802FD
:100DA0009091D902892B19F06FEF7FEF32C08091BB
:100DB0007A00F89486E080937C0080917A008064C9
:100DC00080937A0080917A0084FFFCCF78948091A0
:100DD0007800909179000E948B0660917800709164
:100DE000790080E090E00E94080F2AEC34E541ECA5
:100DF0005BE30E942C0D24E237E94FE75CE30E949D
:100E0000FF0C20E030E048EC52E40E942C0D0E94E0
:100E1000B40ECB0108953F924F925F926F927F92F2
:100E20008F929F92AF92BF92CF92DF92EF92FF92FA
:100E30000F931F93CF93DF931092C9031092C803AF
:100E40001092CB031092CA031092CD031092CC03E0
:100E500010927B0310927A0310927D0310927C0310
:100E600010927F0310927E031092810310928003F0
:100E700014B815B817B818B81AB81BB8529A5A9AB5
:100E800081E090E00E94561280936600519A81E0C2
:100E900090E09093C5008093C4001092C0008091B0
:100EA000C10088608093C1008091C20086608093F9
:100EB000C20080E091E00E945004539A239A8091EE
:100EC000B000816A8093B0008091B100826080930D
:100ED000B1001092B4001092B30080B78B6080BF55
:100EE00083E080937F0010927C0083EC80937A00F3
:100EF0001092800081E08093810092E090936F00D7
:100F000082E3809389001092880014BC85E085BD3F
:100F100090936E008FEF87BDCC24DD24C0E2D0E03B
:100F2000CE010E94561290E08601000F111F00575B
:100F30001C4FF8019183808380819181982F8827AD
:100F400091838083E080F180CE0101960E94561249
:100F5000E80EF11CF801F182E0820894C11CD11C5A
:100F60002296FEE0CF16D104D9F6CC24DD24C0E5CC
:100F7000D0E0CE010E94561290E08601000F111FB2
:100F800004551C4FF8019183808380819181982FB3
:100F9000882791838083E080F180CE0101960E94B2
:100FA0005612E80EF11CF801F182E0820894C11C8F
:100FB000D11C2296FEE0CF16D104D9F680E990E04C
:100FC0000E9456128093DA028BE091E00E94500456
:100FD00080E291E00E9450048BE091E00E94500476
:100FE00085E391E00E945004C0E0D0E0FE01EE0FE6
:100FF000FF1FE057FC4F808191810E948B06219654
:10100000CE30D10599F78BE091E00E94500488E43E
:1010100091E00E945004C0E0D0E0FE01EE0FFF1FFF
:10102000E455FC4F808191810E948B062196CE3041
:10103000D10599F78BE091E00E9450048CE591E096
:101040000E9450048091DA0290E00E948B0688E6AC
:1010500091E00E94500485E791E00E945004809145
:10106000660090E00E948B0688E691E00E945004A2
:1010700081E891E00E94500488E691E00E945004CB
:1010800081E060E040E00E94260688EB9BE028ECCF
:1010900030E0F9013197F1F70197D9F780E061E08D
:1010A00040E00E94260688EB9BE028EC30E0F90146
:1010B0003197F1F70197D9F780E060E041E00E94B5
:1010C000260688EB9BE028EC30E0F9013197F1F738
:1010D0000197D9F780E060E040E00E942606109278
:1010E000BF01789410927B0310927A0310927D03D3
:1010F00010927C0310927F0310927E031092810362
:101100001092800310EA412E1FE0512EB8ECEB2E16
:10111000F12CA5E03A2EF0E2AF2EFEE4BF2EE8EE71
:101120008E2EE3E09E2E71E0672E712C1092C1018D
:101130001092C0018091C0019091C101019709F006
:10114000D0C01092DB0278941092C1011092C001BD
:101150008091C2019091C301019751F41092B400A3
:101160001092B3005C981092BF0115BC0C9400382B
:101170008091C2019091C301029741F41092BF0186
:101180001092D7021092D6020E94CF058091C20120
:101190009091C301039731F08091C2019091C301F6
:1011A000049751F580E060E040E00E94260610922E
:1011B000B4001092B3005C981092BF0114C087E095
:1011C00067E040E00E942606C5010197F1F780E044
:1011D00060E040E00E94260680E197E2F701319747
:1011E000F1F70197D9F78091C0019091C101892B46
:1011F00031F381E08093BF018091C2019091C301DE
:10120000059781F51092B4001092B3005C9815BC5C
:101210001092BF011DC00E94CE068159914014F06A
:1012200080E00FC00E94CE068758914024F080E0F5
:1012300060E047E00BC00E94CE068F5591401CF045
:1012400087E067E002C087E060E040E00E94260699
:101250008091C0019091C101892BE9F281E08093D6
:10126000BF0135BC8091C2019091C301069729F45A
:1012700081E08093BF018093DB028091C201909155
:10128000C3010797D9F41092B4001092B3005C9890
:1012900015BC1092BF0108C0489906C029C1F701CA
:1012A0003197F1F70197D9F78091C0019091C10171
:1012B000892B91F381E08093BF0135BC8091C201FD
:1012C0009091C301089769F4F89428E088E190E0D0
:1012D0000FB6F894A895809360000FBE209360002D
:1012E000FFCF81E08093DB028091DB02813009F047
:1012F0001DCF1092BF01A0918203B0918303109281
:101300008F0310928E0320E030E0109719F4A3E0D1
:10131000B0E001C01197FD01EE0FFF1FE658FC4F32
:1013200080819181019709F043C0F894FD01EE0F8F
:10133000FF1FEE5AFC4F808191819093850380932B
:101340008403FD01EE0FFF1FE65AFC4F808191815F
:101350009093870380938603FD01EE0FFF1FEE59E4
:10136000FC4F808191819093890380938803FD01D4
:10137000EE0FFF1FE659FC4F8081918190938B0304
:1013800080938A03AA0FBB1FFD01EE58FC4F80819A
:10139000918190938D0380938C03789470928F0346
:1013A00060928E03A658BC4F11961C921E9206C0E6
:1013B0002F5F3F4F2430310509F0A7CF80918E0376
:1013C00090918F03019709F044C081E061E041E012
:1013D0000E942606C4010197F1F780E060E040E03A
:1013E0000E94260680918403909185030F978CF5C7
:1013F000E0918403F091850320918A0330918B035F
:10140000EE0FFF1FE252FD4F80819181820F931FEB
:1014100091838083E0918403F091850320918C0374
:1014200030918D03EE0FFF1FE450FD4F80819181BD
:10143000820F931F91838083E0918403F091850351
:10144000EE0FFF1FE65EFC4F808191810196918334
:1014500080838091DC029091DD02895B9B400CF4DB
:1014600065CE1092DD021092DC02CEEDD2E0ACE34C
:10147000CA2ED12CCC0EDD1E00E010E08FE891E0EA
:101480000E947104C8010E948B068DE991E00E94C0
:101490007104F60160817181888199810E947611C1
:1014A000CB010E948B06F601608171818E8D9F8D2C
:1014B0000E947611CB010E948B0680EB91E00E9486
:1014C0005004198218821F8E1E8EF60111921192FD
:1014D0006F010B5F1F4F22960B34110579F680EBDD
:1014E00091E00E94500480EB91E00E9450041ECED7
:1014F00081E060E040E00E942606C2010197F1F71A
:1015000080E060E040E00E94260680ED97E0C7CED4
:101510001F920F920FB60F9211242F933F934F9368
:101520005F936F937F938F939F93AF93BF93EF934B
:10153000FF93209140033091410380913A039091B1
:101540003B03820F931F90934103809340032091AC
:101550003A0330913B038091460390914703820FF9
:10156000931F909347038093460320914203309149
:10157000430380913A0390913B03820F931F909312
:101580004303809342032091DC023091DD0280917D
:101590003A0390913B03820F931F9093DD02809357
:1015A000DC02209144033091450380913A039091ED
:1015B0003B0364E670E00E947611260F371F3093DC
:1015C0004503209344038091440390914503815047
:1015D0009D4720F010924503109244038FEF90E056
:1015E00090933B0380933A038FEF87BD8091400334
:1015F00090914103875292406CF18091BF018130FC
:1016000049F58091D8029091D902892BA1F480915B
:10161000C6016091C7014091C80190E070E050E0C0
:101620000E948B04009739F0019729F4109241032E
:10163000109240030FC00E9425126FEF70E00E94CD
:10164000761190933B0380933A0380913A039091F3
:101650003B0387BD8091460390914703885F984084
:10166000A4F010924703109246031092C9031092FF
:10167000C8031092CB031092CA031092CD031092AC
:10168000CC0310923F0310923E03FF91EF91BF9164
:10169000AF919F918F917F916F915F914F913F910A
:1016A0002F910F900FBE0F901F901895EF92FF9201
:1016B0000F931F937B018C0120E030E040E05FE45A
:1016C0000E94260E88238CF0C801B70120E030E08C
:1016D00040E05FE40E94CE0C0E94B40E9B01AC017E
:1016E000205030404040504806C0C801B7010E9419
:1016F000B40E9B01AC01B901CA011F910F91FF907B
:10170000EF900895A0E0B0E0E8E8FBE00C949D11B4
:10171000DC012B01FA019C91923008F439C1EB01F4
:101720008881823008F433C1943069F4843009F040
:101730002FC111969C9111978981981709F428C19E
:10174000A9ECB1E025C1843009F421C18230A9F4AB
:10175000923009F01DC19A01AD0188E0EA010990BB
:10176000AE01E90109929E018150C1F7E201898130
:1017700011969C918923818308C1923009F407C195
:1017800012962D903C901397EB018A819B811496C1
:10179000AD90BD90CD90DC901797EC80FD800E81D0
:1017A0001F819101281B390BB90137FF04C066273F
:1017B0007727621B730B603271050CF061C0121643
:1017C00013066CF537014801062E04C096948794E1
:1017D000779467940A94D2F721E030E040E050E03B
:1017E00004C0220F331F441F551F6A95D2F72150A2
:1017F0003040404050402E213F21402351232115AD
:1018000031054105510521F021E030E040E050E094
:1018100079018A01E628F728082919293CC0232BD9
:10182000D1F1260E371E35014601062E04C09694CE
:101830008794779467940A94D2F721E030E040E0EF
:1018400050E004C0220F331F441F551F6A95D2F782
:1018500021503040404050402A213B214C215D2105
:10186000211531054105510521F021E030E040E02E
:1018700050E059016A01A628B728C828D9280BC00A
:10188000821593052CF01C01AA24BB24650103C01A
:10189000EE24FF24870111969C91D20111968C9120
:1018A000981709F445C0992339F0A80197012A191E
:1018B0003B094C095D0906C0A60195012E193F0997
:1018C000400B510B57FD08C01182338222822483C2
:1018D0003583468357831DC081E081833382228212
:1018E00088279927DC01821B930BA40BB50B8483FB
:1018F0009583A683B7830DC0220F331F441F551F46
:101900002483358346835783828193810197938310
:1019100082832481358146815781DA01C90101978B
:10192000A109B1098F5F9F4FAF4FBF4328F30BC091
:10193000918333822282EA0CFB1C0C1D1D1DE48264
:10194000F5820683178383E0808324813581468175
:10195000578157FF1AC0C901AA2797FDA095BA2F32
:1019600081709070A070B070569547953795279507
:10197000822B932BA42BB52B84839583A683B783CB
:1019800082819381019693838283DF0101C0D2011A
:10199000CD01CDB7DEB7E2E10C94B911A0E2B0E021
:1019A000E4EDFCE00C94A91169837A838B839C831A
:1019B0002D833E834F835887E9E0EE2EF12CEC0E09
:1019C000FD1ECE010196B7010E94A5108E010F5E8B
:1019D0001F4FCE010596B8010E94A5108A8991E09B
:1019E00089278A8BC701B801AE01475E5F4F0E940D
:1019F000820B0E94D00FA096E6E00C94C511A0E2E5
:101A0000B0E0E5E0FDE00C94A91169837A838B8353
:101A10009C832D833E834F835887F9E0EF2EF12C72
:101A2000EC0EFD1ECE010196B7010E94A5108E019D
:101A30000F5E1F4FCE010596B8010E94A510C70189
:101A4000B801AE01475E5F4F0E94820B0E94D00F2B
:101A5000A096E6E00C94C511A0E2B0E0E2E3FDE060
:101A60000C949D1169837A838B839C832D833E83A1
:101A70004F835887CE010196BE01675F7F4F0E945A
:101A8000A510CE010596BE016F5E7F4F0E94A51086
:101A90009985923088F089898230C8F0943019F4A1
:101AA000823051F404C0843029F4923081F489ECFE
:101AB00091E0C6C0923049F420E09A858A89981353
:101AC00021E02A87CE010996BBC0823049F420E08C
:101AD0009A858A89981321E02A8BCE014196B0C05D
:101AE0002D843E844F8458886D887E888F88988C9A
:101AF000EE24FF248701AA24BB24650140E050E0C6
:101B000060E070E0E0E0F0E0C10181709070892B4E
:101B1000E9F0E60CF71C081D191D9A01AB012A0D0E
:101B20003B1D4C1D5D1D80E090E0A0E0B0E0E614A0
:101B3000F7040805190520F481E090E0A0E0B0E08A
:101B4000BA01A901480F591F6A1F7B1FAA0CBB1CB1
:101B5000CC1CDD1C97FE08C081E090E0A0E0B0E066
:101B6000A82AB92ACA2ADB2A3196E032F10549F0BF
:101B7000660C771C881C991C5694479437942794BC
:101B8000C3CFFA85EA892B893C898B859C85280FF0
:101B9000391F2E5F3F4F17C0CA0181709070892B8B
:101BA00061F016950795F794E79480E090E0A0E047
:101BB000B0E8E82AF92A0A2B1B2B769567955795EA
:101BC00047952F5F3F4F77FDE7CF0CC0440F551F60
:101BD000661F771F17FD4160EE0CFF1C001F111FD1
:101BE00021503040403090E0590790E0690790E480
:101BF000790760F32B8F3C8FDB01CA018F779070E0
:101C0000A070B07080349105A105B10561F447FD65
:101C10000AC0E114F1040105110529F0405C5F4F91
:101C20006F4F7F4F40781A8EFE1711F081E08A8F38
:101C30004D8F5E8F6F8F78A383E0898FCE01499699
:101C40000E94D00FA096E2E10C94B911A8E1B0E097
:101C5000ECE2FEE00C94A91169837A838B839C8368
:101C60002D833E834F83588789E0E82EF12CEC0EBC
:101C7000FD1ECE010196B7010E94A5108E010F5ED8
:101C80001F4FCE010596B8010E94A51089858230AC
:101C900040F08989823028F0C701B8010E941D11E7
:101CA00001C08FEF6896E6E00C94C511A8E0B0E0A3
:101CB000ECE5FEE00C94A6119B01AC0183E0898366
:101CC000DA01C9018827B7FD83959927AA27BB2781
:101CD000B82E211531054105510519F482E089839B
:101CE0003AC08823A9F0203080E0380780E0480718
:101CF00080E8580729F460E070E080E09FEC30C095
:101D0000EE24FF248701E21AF30A040B150B02C02C
:101D100079018A018EE1C82ED12CDC82CB82ED8242
:101D2000FE820F831887C801B7010E94810F0197B7
:101D30001816190684F4082E04C0EE0CFF1C001FB0
:101D4000111F0A94D2F7ED82FE820F831887C81AFA
:101D5000D90ADC82CB82BA82CE0101960E94D00FD2
:101D60002896E9E00C94C211ACE0B0E0EAEBFEE0AA
:101D70000C94AD1169837A838B839C83CE01019689
:101D8000BE016B5F7F4F0E94A5108D81823061F193
:101D9000823050F1843021F48E81882351F12EC09D
:101DA0002F81388537FD20C06E812F3131051CF021
:101DB0006623F9F023C08EE190E0821B930B298506
:101DC0003A854B855C8504C0569547953795279590
:101DD0008A95D2F76623B1F05095409530952195BC
:101DE0003F4F4F4F5F4F0EC020E030E040E050E0EB
:101DF00009C02FEF3FEF4FEF5FE704C020E030E076
:101E000040E050E8B901CA012C96E2E00C94C911F7
:101E1000A8E0B0E0EEE0FFE00C94A5117B018C019E
:101E2000611571058105910519F482E0898360C00F
:101E300083E089838EE1C82ED12CDC82CB82ED82B7
:101E4000FE820F831887C801B7010E94810FFC0131
:101E50003197F7FF3BC0222733272E1B3F0B57013B
:101E60006801022E04C0D694C794B794A7940A942C
:101E7000D2F740E050E060E070E081E090E0A0E068
:101E8000B0E004C0880F991FAA1FBB1F2A95D2F784
:101E90000197A109B1098E219F21A023B1230097A9
:101EA000A105B10521F041E050E060E070E04A2971
:101EB0005B296C297D294D835E836F8378878EE152
:101EC00090E08E1B9F0B9C838B8312C0309781F018
:101ED0000E2E04C0EE0CFF1C001F111F0A94D2F737
:101EE000ED82FE820F831887CE1ADF0ADC82CB8256
:101EF0001A82CE0101960E94D00F2896EAE00C9437
:101F0000C111EF92FF920F931F937B018C0180E030
:101F1000E81680E0F80681E0080780E0180788F4FA
:101F20008FEFE816F1040105110531F028F088E083
:101F300090E0A0E0B0E017C080E090E0A0E0B0E06A
:101F400012C080E0E81680E0F80680E0080781E033
:101F5000180728F088E190E0A0E0B0E004C080E13C
:101F600090E0A0E0B0E020E230E040E050E0281B4C
:101F7000390B4A0B5B0B04C016950795F794E79451
:101F80008A95D2F7F701EF52FE4F8081281B310965
:101F900041095109C9011F910F91FF90EF900895D8
:101FA000DF92EF92FF920F931F93FC01E480F58084
:101FB00006811781D1808081823048F480E090E0F2
:101FC000A0E1B0E0E82AF92A0A2B1B2BA5C0843037
:101FD00009F49FC0823021F4EE24FF24870105C05C
:101FE000E114F1040105110519F4E0E0F0E096C0F8
:101FF000628173819FEF623879070CF05BC022E841
:102000003FEF261B370B2A3131052CF020E030E062
:1020100040E050E02AC0B801A701022E04C0769526
:102020006795579547950A94D2F781E090E0A0E034
:10203000B0E004C0880F991FAA1FBB1F2A95D2F7D2
:102040000197A109B1098E219F21A023B1230097F7
:10205000A105B10521F081E090E0A0E0B0E09A0197
:10206000AB01282B392B4A2B5B2BDA01C9018F7767
:102070009070A070B07080349105A105B10539F45D
:1020800027FF09C0205C3F4F4F4F5F4F04C0215CCA
:102090003F4F4F4F5F4FE0E0F0E02030A0E03A07C5
:1020A000A0E04A07A0E45A0710F0E1E0F0E079016F
:1020B0008A0127C06038710564F5FB01E158FF4FC4
:1020C000D801C7018F779070A070B07080349105EF
:1020D000A105B10539F4E7FE0DC080E490E0A0E071
:1020E000B0E004C08FE390E0A0E0B0E0E80EF91E9D
:1020F0000A1F1B1F17FF05C016950795F794E79455
:10210000319687E016950795F794E7948A95D1F76D
:1021100005C0EE24FF248701EFEFF0E06E2F6795F6
:1021200066276795902F9F77D794DD24D7948E2FBD
:102130008695492F462B582F5D29B701CA011F915B
:102140000F91FF90EF90DF900895FC01DB0140813B
:1021500051812281622F6F7770E0221F2227221F78
:102160009381892F880F822B282F30E0991F992780
:10217000991F11969C93119721153105A9F54115C9
:1021800051056105710511F482E037C082E89FEFC7
:1021900013969C938E9312979A01AB0167E0220FDE
:1021A000331F441F551F6A95D1F783E08C930DC0F0
:1021B000220F331F441F551F12968D919C91139728
:1021C000019713969C938E931297203080E03807E6
:1021D00080E0480780E4580758F314962D933D9308
:1021E0004D935C93179708952F3F310579F441156E
:1021F00051056105710519F484E08C93089564FF1D
:1022000003C081E08C9312C01C9210C02F57304045
:1022100013963C932E93129783E08C9387E0440FA0
:10222000551F661F771F8A95D1F7706414964D93DA
:102230005D936D937C93179708951F93DC01FB01C9
:102240009C91923008F447C08081823008F443C0EA
:10225000943051F411961C91843099F58181682F46
:1022600070E0611B71093FC0843021F0923031F47D
:102270008230B9F18181882389F12DC011961C919A
:1022800011978230F1F081811817D9F412962D91AF
:102290003C911397828193818217930794F02817BA
:1022A0003907BCF014968D919D910D90BC91A02D95
:1022B0002481358146815781281739074A075B07F2
:1022C00018F4112341F00AC082179307A407B50739
:1022D00040F4112319F061E070E005C06FEF7FEF6B
:1022E00002C060E070E0CB011F91089597FB092EBA
:1022F00007260AD077FD04D00CD006D000201AF4AF
:10230000709561957F4F0895F6F7909581959F4F51
:102310000895AA1BBB1B51E107C0AA1FBB1FA6172C
:10232000B70710F0A61BB70B881F991F5A95A9F77E
:1023300080959095BC01CD0108952F923F924F92C8
:102340005F926F927F928F929F92AF92BF92CF9245
:10235000DF92EF92FF920F931F93CF93DF93CDB74E
:10236000DEB7CA1BDB0B0FB6F894DEBF0FBECDBFC6
:1023700009942A88398848885F846E847D848C8497
:102380009B84AA84B984C884DF80EE80FD800C81A0
:102390001B81AA81B981CE0FD11D0FB6F894DEBF83
:1023A0000FBECDBFED010895A0E0B0E0EAEDF1E190
:1023B0000C94A511EC01A880B980CA80DB80A1141F
:1023C000B104C104D10441F484E2A82E89EDB82EF1
:1023D0008BE5C82E87E0D82EC601B5012DE133EF7D
:1023E00041E050E00E948D1227EA31E440E050E0E5
:1023F0000E946E127B018C01C601B5012DE133EF05
:1024000041E050E00E948D12CA01B9012CEE34EF78
:102410004FEF5FEF0E946E126E0D7F1D801F911FA8
:1024200097FF04C061507040804090486883798372
:102430008A839B839B013F77C901CDB7DEB7EAE072
:102440000C94C1110E94D411089581ED92E00E9474
:10245000D4110895A0E0B0E08093D1029093D2020D
:10246000A093D302B093D4020895FB019F01E89496
:102470004230C4F04532B4F44A3029F497FB1EF4DC
:10248000909581959F4F642F77270E948911805DD9
:102490008A330CF0895D8193CB010097A1F716F484
:1024A0005DE251931082C9010C945E12F999FECF3E
:1024B00092BD81BDF89A992780B50895DC01FC0191
:1024C000672F71917723E1F7329704C07C916D9368
:1024D00070836291AE17BF07C8F30895629FD00161
:1024E000739FF001829FE00DF11D649FE00DF11DCF
:1024F000929FF00D839FF00D749FF00D659FF00D7E
:102500009927729FB00DE11DF91F639FB00DE11D6A
:10251000F91FBD01CF011124089597FB092E05264F
:102520000ED057FD04D014D00AD0001C38F45095BA
:102530004095309521953F4F4F4F5F4F0895F6F7E7
:1025400090958095709561957F4F8F4F9F4F08951F
:10255000A1E21A2EAA1BBB1BFD010DC0AA1FBB1FA7
:10256000EE1FFF1FA217B307E407F50720F0A21B19
:10257000B30BE40BF50B661F771F881F991F1A9486
:1025800069F760957095809590959B01AC01BD01B0
:08259000CF010895F894FFCF7C
:10259800737461727420696E697400202020202091
:1025A8002020202020202020202020202020200043
:1025B80043616C6962726174696F6E2064617461F1
:1025C80020202020006C6F77206761696E20202012
:1025D8002020202020202000686967682067616922
:1025E8006E202020202020202020200074786D617B
:1025F800736B202020202000202020202020202055
:1026080020202020004F534343414C2020202020ED
:102618000070726F6772616D207374617274006408
:10262800697374616E6365286D6D293D0076616C10
:102638007565732D2D2D2D2D2D2D2D2D2D2D2D0029
:1026480020202020202020202020202020200001C1
:10265800010003000100C8C8C80000000000000015
:102668000000010202030303030404040404040435
:102678000405050505050505050505050505050503
:1026880005060606060606060606060606060606E3
:1026980006060606060606060606060606060606D2
:1026A80006070707070707070707070707070707B3
:1026B80007070707070707070707070707070707A2
:1026C8000707070707070707070707070707070792
:1026D8000707070707070707070707070707070782
:1026E8000708080808080808080808080808080863
:1026F8000808080808080808080808080808080852
:102708000808080808080808080808080808080841
:102718000808080808080808080808080808080831
:102728000808080808080808080808080808080821
:102738000808080808080808080808080808080811
:102748000808080808080808080808080808080801
:1027580008080808080808080808080808080808F1
:0627680008010000000062
:00000001FF
