:100000000C9434000C9451000C9451000C94510049
:100010000C9451000C9451000C94A7060C945100C0
:100020000C9451000C9451000C9451000C9453000A
:100030000C9451000C9451000C945D130C945100DD
:100040000C9451000C9451000C9451000C945100EC
:100050000C9451000C9451000C9451000C94CD035D
:100060000C9451000C94510011241FBECFEFD8E026
:10007000DEBFCDBF12E0A0E0B1E0EEE4F7E302C0E6
:1000800005900D92A03CB107D9F716E0A0ECB2E0C4
:1000900001C01D92A230B107E1F70E9474090C94CF
:1000A000A51B0C9400001F920F920FB60F92112403
:1000B0003F924F925F926F927F928F929F92AF92F8
:1000C000BF92CF92DF92EF92FF920F931F932F93E5
:1000D0003F934F935F936F937F938F939F93AF93D0
:1000E000BF93CF93DF93EF93FF9321E030E0309302
:1000F000AF012093AE018091680590916905892B2D
:1001000009F047C080917800909179009093B705ED
:100110008093B60510927C0043EB40937A0091E007
:1001200090937B008091B8058093B9053093690561
:10013000209368058091B805882309F442C0109285
:10014000B9051092BA051092BB051092BC05109229
:10015000BD0590937C0040937A0090937B001092B1
:10016000810010928500109284001092690510920F
:1001700068051092E9021092E80280916A05909158
:100180006B05039690936B0580936A0585E085BDAA
:1001900018C08091680590916905019709F58091D3
:1001A0007800909179009093B5058093B405809183
:1001B000B8058093BA0582E090E09093690580933A
:1001C000680580916C0590916D05209178003091C3
:1001D0007900820F931F90936D0580936C05B5C2D3
:1001E0008091680590916905029739F48091B8056E
:1001F0008093BB0583E090E00CC0809168059091EE
:100200006905039759F48091B8058093BC0584E093
:1002100090E0909369058093680597C28091680586
:1002200090916905049709F090C28091B805809378
:10023000BD0510926905109268058091BA059091EC
:10024000BB052091BC053091BD05890F8058820FF8
:10025000831709F053C28091B905882309F04EC273
:100260008091B4059091B505845893401CF03324D7
:100270003A9499C02091B4053091B50580919805C4
:10028000909199058217930714F433248CC051E0A0
:10029000452E512C2091B4053091B505E201CC0FCB
:1002A000DD1FC856DA4F888199818217930754F071
:1002B0000894411C511C8EE04816510459F72AE558
:1002C000322E71C068817981F201EE0FFF1FEA566C
:1002D000FA4F20813181621B730B882777FD80954F
:1002E000982F0E942B179B01AC010E94D4153B0153
:1002F0004C01E880F9806091B4057091B5058827BC
:1003000077FD8095982F0E942B175B016C010027C9
:10031000F7FC0095102FC801B7010E942B177B0135
:100320008C01B201882777FD8095982F0E942B17AA
:1003300020E030E040E05FE30E94011620E030E082
:1003400040E050E00E94D4159B01AC01C401B30110
:100350000E9401169B01AC01C801B7010E94A315C0
:100360009B01AC01C601B5010E94A31520E030E05D
:1003700040E251E40E9401160E9489177B018C0122
:10038000C401B3010E9489179B01AC01C701B901E7
:100390000E944B1A882777FD8095982F0E942B1773
:1003A0000E942B14362E8091B4059091B5058D5B7B
:1003B00092400CF4A2C02091B6053091B70580910F
:1003C0007C0590917D05821793070CF48BC081E02A
:1003D000482E512C2091B6053091B705E201CC0F83
:1003E000DD1FC458DA4F888199818217930744F042
:1003F0000894411C511C8EE04816510459F772C0F4
:1004000068817981F201EE0FFF1FE658FA4F2081D3
:100410003181621B730B882777FD8095982F0E948E
:100420002B179B01AC010E94D4153B014C01E880C5
:10043000F9806091B6057091B705882777FD8095A2
:10044000982F0E942B175B016C010027F7FC009589
:10045000102FC801B7010E942B177B018C01B2013C
:10046000882777FD8095982F0E942B1720E030E099
:1004700040E05FE30E94011620E030E040E050E001
:100480000E94D4159B01AC01C401B3010E94011666
:100490009B01AC01C801B7010E94A3159B01AC01EF
:1004A000C601B5010E94A31520E030E040E251E40E
:1004B0000E9401160E9489177B018C01C401B301BF
:1004C0000E9489179B01AC01C701B9010E944B1A18
:1004D000882777FD8095982F0E942B170E942B1458
:1004E0006F3F59F02FEF321641F08091B405909193
:1004F000B5058091B4059091B5058091BC0580FD4E
:1005000062C0E091EE05F091EF058091BA0590E0B0
:10051000EE0FFF1FE254FA4F91838083E091EE05C6
:10052000F091EF058091BB0590E0EE0FFF1FEA53BD
:10053000FA4F91838083E091EE05F091EF05809171
:10054000BC0590E0EE0FFF1FE253FA4F91838083CA
:10055000E091EE05F091EF058091B6059091B70519
:10056000EE0FFF1FEA52FA4F91838083E091EE0570
:10057000F091EF058091B4059091B505EE0FFF1F46
:10058000E252FA4F91838083E091EE05F091EF05FE
:10059000EE0FFF1FEA51FA4F81E090E091838083D4
:1005A0008091EE059091EF0501969093EF05809371
:1005B000EE058091EE059091EF05049721F41092DD
:1005C000EF051092EE058091BC0580FF97C08091E9
:1005D000BB05882309F092C08091BA05893008F0E4
:1005E0008DC02091AA013091AB018091BA0590E0B5
:1005F0002817390709F482C08091BA05833009F4BD
:1006000068C040E050E01FC0FA01EE0FFF1FE45049
:10061000FA4F208131818091BA0590E0281739077F
:1006200081F01092FD051092FC051092FF051092CA
:10063000FE05109201061092000610926F051092AE
:100640006E054F5F5F4F80916E0590916F05481763
:100650005907D4F280916E0590916F050397B4F419
:10066000E0916E05F0916F058091BA0590E0EE0F74
:10067000FF1FE450FA4F9183808380916E05909123
:100680006F05019690936F0580936E0580916E05BE
:1006900090916F050397E9F48091BA0590E09093EB
:1006A000AB018093AA0181E090E09093AD0180932B
:1006B000AC011092FD051092FC051092FF051092FE
:1006C000FE05109201061092000610926F0510921E
:1006D0006E058091BA05833089F421E030E03093D3
:1006E000E7022093E6028091BA0590E09093AB0177
:1006F0008093AA013093AD012093AC0191E09093D7
:100700007C0083EB80937A0090937B001092E90247
:100710001092E8021092B9051092BA051092BB052A
:100720001092BC051092BD051092810010928500B8
:100730001092840080916A0590916B050C969093BD
:100740006B0580936A0585E085BD1092B80510920F
:10075000710510927005FF91EF91DF91CF91BF91DC
:10076000AF919F918F917F916F915F914F913F9149
:100770002F911F910F91FF90EF90DF90CF90BF903E
:10078000AF909F908F907F906F905F904F903F9031
:100790000F900FBE0F901F9018951F920F920FB6DB
:1007A0000F9211242F933F938F939F932091840056
:1007B000309185008091EC029091ED02029774F4E3
:1007C00010928500109284001092800081E0809346
:1007D00081003093F1022093F0026FC08091EC020F
:1007E0009091ED0202970CF468C015BC8091AE01A7
:1007F0009091AF01019711F510928500109284003D
:1008000081E08093810080917A008F7D80937A00CF
:100810008091680590916905892B29F489E080937E
:10082000890080E804C088E08093890080E4809398
:1008300088001092AF011092AE0139C084E02A3BCB
:100840003807D4F482E0203A38075CF42359314069
:1008500024F48091B805805828C08091B805805C48
:1008600024C02D5A334024F48091B805805E1DC009
:100870008091B805805F19C086E0243D38075CF49C
:10088000275C354024F48091B805885F0EC08091C4
:10089000B8058C5F0AC0215E374024F48091B8050A
:1008A0008E5F03C08091B8058F5F8093B80581E0AB
:1008B00090E09093E9028093E80281E090E09093C9
:1008C000EF028093EE029F918F913F912F910F90B5
:1008D0000FBE0F901F901895AC0120E030E0FA0198
:1008E000E20FF31F80818093C6008091C00085FFD6
:1008F000FCCF2F5F3F4F2A30310589F78AE0809384
:10090000C6008091C00085FFFCCF8DE08093C600BB
:100910008091C00085FFFCCF08958AE08093C600D7
:100920008091C00085FFFCCF0895CF92DF92EF92B7
:10093000FF920F931F93DF93CF93CDB7DEB72C9722
:100940000FB6F894DEBF0FBECDBF282F789484B1C8
:10095000887384B91092E9021092E8028091E8024B
:100960009091E902019739F480E091E00E946C04D3
:1009700022E030E0DBC029836A834B832058260FB6
:10098000240F2C836E010894C11CD11CDE01159626
:100990008D017D01F60161916F0170E09B01207274
:1009A0003070F3E035952795FA95E1F7CB0180712A
:1009B000907095958795280F391FCB0180749070A2
:1009C00055E0959587955A95E1F7280F391FCB018A
:1009D000880F892F881F990B9195280F391FCB01FC
:1009E00081709070880F991F880F991FAB0142701A
:1009F0005070840F951F880F991F880F991FAB01A6
:100A000044705070840F951F880F991F880F991F8D
:100A100068707070860F971F880F991F280F391FF5
:100A2000220F331F2F5F3F4FF801219331938F0126
:100A3000CE14DF0409F0AECFF8948091E8029091D3
:100A4000E9027091EA02892B09F04DC084B1872B2D
:100A500084B985B1872B85B90000000085B1672F67
:100A60006095862385B980E090E00000019685338B
:100A70009105D9F780E090E000B605FE01C00000C6
:100A800000000196873F9105B9F725C020FF06C0F9
:100A900085B1872B85B90000000005C085B186238C
:100AA00085B90000000085B1862385B980E090E01B
:100AB0000000019683329105D9F73695279541506C
:100AC00050408FEF4F3F580709F72D933D93AE17D6
:100AD000BF0719F418C0FE013D962D913C91119766
:100AE00048E050E0D3CF85B1972F9095892385B901
:100AF00084B1982394B98CE091E00E946C047894BE
:100B000025E030E013C085B1862385B984B1682320
:100B100064B980E090E00000019682339105D9F736
:100B200080B7806180BF789421E030E0C9012C96C5
:100B30000FB6F894DEBF0FBECDBFCF91DF911F91EE
:100B40000F91FF90EF90DF90CF9008958091E80291
:100B50009091E902892B19F02FEF3FEF1AC0F8941A
:100B600087E080937C0080917A00806480937A0093
:100B700080917A0084FFFCCF789491E090937C0080
:100B800082EB80937A0090937B00209178003091E3
:100B90007900C90108958091E8029091E902892BBA
:100BA00019F06FEF7FEF34C080917A00F89486E0FF
:100BB00080937C0080917A00806480937A00809199
:100BC0007A0084FFFCCF789460917800709179006E
:100BD00080E090E00E94DD172AEC34E541EC5BE315
:100BE0000E94011624E237E94FE75CE30E94D41526
:100BF00020E030E048EC52E40E9401160E94891780
:100C000091E090937C0082EB80937A0090937B003C
:100C1000CB0108951092E7021092E602F89484E066
:100C200083BF14BE8091600088618093600081E67C
:100C30008093600014B815B817B818B81AB81BB864
:100C4000789480917A008F7780937A00A89583B703
:100C5000816083BF8895789434E021E61BC033BF60
:100C600014BE8091600088618093600020936000D2
:100C700014B815B817B818B81AB81BB8789480917A
:100C80007A008F7780937A00A89583B7816083BFBD
:100C9000889578948091E6029091E702892BF9F289
:100CA000539A239A8091B000816A8093B00080911A
:100CB000B10082608093B1001092B4001092B30032
:100CC0000895982F40FF02C03D9A01C03D98842F9F
:100CD000859580FF02C03C9A01C03C9890FF02C0FD
:100CE000559A01C05598892F859580FF02C0549A66
:100CF00001C0549860FF02C03B9A01C03B98862F08
:100D0000859580FF02C03A9A08953A980895489BC5
:100D100008C080E060E040E00E94610620E030E032
:100D200014C087E060E040E00E94610680E29EE43B
:100D30000197F1F780E060E040E00E94610680E406
:100D40009CE90197F1F721E030E0C90108951F9275
:100D50000F920FB60F9211242F933F934F935F93EF
:100D60006F937F938F939F93AF93BF93EF93FF9373
:100D7000A895529A5A9AEAE7F0E0808180688083C9
:100D8000E0E6F0E08081886180831082789487E0DB
:100D900067E047E00E94610680E29EE40197F1F778
:100DA00080E060E040E00E946106FF91EF91BF911A
:100DB000AF919F918F917F916F915F914F913F91F3
:100DC0002F910F900FBE0F901F901895A091EE05D8
:100DD000B091EF051092FB051092FA0520E030E08B
:100DE000109719F4A3E0B0E001C01197FD01EE0FD8
:100DF000FF1FEA51FA4F80819181019709F045C0A8
:100E0000F894FD01EE0FFF1FE254FA4F80819181AB
:100E10009093F1058093F005FD01EE0FFF1FEA535B
:100E2000FA4F808191819093F3058093F205FD0143
:100E3000EE0FFF1FE253FA4F808191819093F505E9
:100E40008093F405FD01EE0FFF1FEA52FA4F8081F7
:100E500091819093F7058093F605AA0FBB1FFD01C2
:100E6000E252FA4F808191819093F9058093F805C1
:100E7000789481E090E09093FB058093FA05AA5165
:100E8000BA4F11961C921E9206C02F5F3F4F24301E
:100E9000310509F0A5CF8091FA059091FB050197E6
:100EA000B9F48091F8059091F9058D3C91051CF0FD
:100EB00080E061E00BC08091F8059091F905823CDB
:100EC000910514F481E001C080E060E040E003C0DF
:100ED00080E060E042E00E9461060895CF93DF93D6
:100EE000A091EE05B091EF0520E030E0109719F4E5
:100EF000A3E0B0E001C01197ED01CC0FDD1FCA5196
:100F0000DA4F888199810197A1F5FD01EE0FFF1F4E
:100F1000E254FA4F208131813093E5022093E402BC
:100F2000FD01EE0FFF1FEA53FA4F808191819093EC
:100F3000E3028093E202FD01EE0FFF1FE253FA4F3E
:100F4000408151815093E1024093E002AA0FBB1F00
:100F5000FD01EA52FA4F0190F081E02DA252BA4F02
:100F60006D917C91198218822817390709F066C0A3
:100F700007C02F5F3F4F2430310509F0B7CF5EC067
:100F8000452B09F05BC021303105A1F48091CC02E2
:100F90009091CD02E80FF91FF093CD02E093CC02BF
:100FA0008091D6029091D70201969093D7028093B8
:100FB000D60244C022303105A1F48091CE02909136
:100FC000CF02E80FF91FF093CF02E093CE02809199
:100FD000D8029091D90201969093D9028093D802B9
:100FE0002DC023303105A1F48091D0029091D1021F
:100FF000E80FF91FF093D102E093D0028091DA025A
:101000009091DB0201969093DB028093DA0216C086
:101010002430310599F48091D2029091D302E80FE7
:10102000F91FF093D302E093D2028091DC029091F9
:10103000DD0201969093DD028093DC02DF91CF9177
:1010400008952091EE053091EF0560E070E040E0FA
:1010500050E02115310519F423E030E002C02150A1
:101060003040F901EE0FFF1FEA51FA4F8081918164
:10107000019721F41182108261E070E04F5F5F4FB1
:101080004430510531F76130710519F480E061E0B9
:1010900002C081E060E040E00E9461060895EF92A6
:1010A000FF920F931F93DF93CF93CDB7DEB72A97AD
:1010B0000FB6F894DEBF0FBECDBF8E010F5F1F4F7E
:1010C00078019E01255F3F4FF70111927F01E217E2
:1010D000F307D1F7BE016F5F7F4F4AE050E00E94F7
:1010E0000A1BF80180818093C6008091C00085FFB3
:1010F000FCCF0F5F1F4F0E151F0599F780E28093FD
:10110000C6008091C00085FFFCCF2A960FB6F894E8
:10111000DEBF0FBECDBFCF91DF911F910F91FF902A
:10112000EF900895EF92FF920F931F93DF93CF9369
:10113000CDB7DEB72A970FB6F894DEBF0FBECDBF8E
:101140008E010F5F1F4F78019E01255F3F4FF70112
:1011500011927F01E217F307D1F7BE016F5F7F4F56
:101160004AE050E00E940A1BF80180818093C6008B
:101170008091C00085FFFCCF0F5F1F4F0E151F052C
:1011800099F78AE08093C6008091C00085FFFCCF6C
:101190008DE08093C6008091C00085FFFCCF2A9629
:1011A0000FB6F894DEBF0FBECDBFCF91DF911F9178
:1011B0000F91FF90EF900895EF92FF920F931F937E
:1011C000CF93DF93A091EE05B091EF0520E030E0E2
:1011D000109719F4A3E0B0E001C01197ED01CC0F16
:1011E000DD1FCA51DA4F888199810197C9F5FD0148
:1011F000EE0FFF1FE254FA4F008111811093CB02D2
:101200000093CA02FD01EE0FFF1FEA53FA4F6081FF
:1012100071817093C9026093C802FD01EE0FFF1F38
:10122000E253FA4F408151815093C7024093C60266
:10123000AA0FBB1FFD01EA52FA4FE080F180A252D3
:10124000BA4FED91FC91198218828091C502382F16
:1012500030583093C20290E00817190709F507C00B
:101260002F5F3F4F2430310509F0B2CF36C02091B7
:10127000C402822F90E06817790791F48091C3022D
:1012800090E04817590761F4231751F4C701865BB2
:101290009340459728F4E831F10514F0B7972CF006
:1012A0001092C1021092C00209C08091C0029091B8
:1012B000C10201969093C1028093C002802F8F5F7C
:1012C0008093C502862F8F5F8093C402842F8E5F28
:1012D0008093C302C7010E949208DF91CF911F91B2
:1012E0000F91FF90EF9008952F923F924F925F924F
:1012F0006F927F928F929F92AF92BF92CF92DF9226
:10130000EF92FF920F931F93CF93DF931092FD05FF
:101310001092FC051092FF051092FE051092010636
:10132000109200061092E7051092E6051092E9056A
:101330001092E8051092EB051092EA051092ED0567
:101340001092EC0514B815B817B818B81AB81BB82D
:10135000529A5A9A519A81E090E09093C5008093F6
:10136000C4001092C0008091C10088608093C100C9
:101370008091C20086608093C20088E191E00E9463
:101380006C0480B78B6080BF83E080937F001092F5
:101390007C0083EC80937A001092800081E080933F
:1013A000810082E080936F0082E380938900109235
:1013B000880081E060E040E00E94610688EB9BE0ED
:1013C00028EC30E0F9013197F1F70197D9F780E087
:1013D00061E040E00E94610688EB9BE028EC30E091
:1013E000F9013197F1F70197D9F780E060E041E02A
:1013F0000E94610688EB9BE028EC30E0F901319710
:10140000F1F70197D9F780E060E040E00E946106C3
:10141000789481E08093A90178948093EB0286E030
:1014200090E09093AB018093AA0181E090E09093CB
:10143000AD018093AC011092E7051092E605109281
:10144000E9051092E8051092EB051092EA0510925A
:10145000ED051092EC0538EC632E712C8091AC01F7
:101460009091AD01019709F0BAC01092EB02789407
:101470001092AD011092AC018091AA019091AB0144
:10148000019749F41092B4001092B3005C98109246
:10149000A9010C9400388091AA019091AB010297A8
:1014A00041F41092A9011092E7021092E6020E9404
:1014B0000A068091AA019091AB01039731F08091C7
:1014C000AA019091AB01049761F580E060E040E0F3
:1014D0000E9461061092B4001092B3005C981092C2
:1014E000A901C0E2DEE414C087E067E040E00E94AA
:1014F0006106CE010197F1F780E060E040E00E94D4
:10150000610680E197E2F3013197F1F70197D9F78E
:101510008091AC019091AD01892B31F381E08093F2
:10152000A9018091AA019091AB01059789F51092CC
:10153000B4001092B3005C9815BC1092A9011DC0B4
:101540000E94CB058159914014F080E00FC00E94A9
:10155000CB058758914024F080E060E047E00BC065
:101560000E94CB058F5591401CF087E067E002C0D8
:1015700087E060E040E00E9461068091AC019091BC
:10158000AD01892BE9F281E08093A90185E085BD59
:101590008091AA019091AB01069729F481E0809394
:1015A000A9018093EB028091AA019091AB0107976A
:1015B000B1F41092B4001092B3005C9815BC109274
:1015C000A90102C00E9487068091AC019091AD01F3
:1015D000892BC1F381E08093A90185E085BD8091CD
:1015E000EB02813009F03ACF509066008091EC0216
:1015F0009091ED02892B09F038C0F89480E060E00A
:1016000041E00E94610684B1876C84B985B1876C22
:1016100085B90000000085B1887385B984B18873ED
:1016200084B980ED97E00197F1F780B7806180BFC2
:10163000789488EE93E0F3013197F1F70197D9F7A9
:1016400080E060E040E00E94610680ED97E0F301F9
:101650003197F1F70197D9F78091EE029091EF025F
:101660008130910509F0FACEB1C38091EC029091DE
:10167000ED02019709F0E9C180E060E041E00E94DD
:101680006106AA24BB24CFE0D7E28824992482C033
:1016900010926703109266032CC080E797E10197D0
:1016A000F1F70093660080EE9EE20197F1F78091DA
:1016B000F0029091F1029093670380936603509239
:1016C0006600C8010E9492088091660390916703AA
:1016D0000E94920886E291E00E946C0480E797E104
:1016E0000197F1F78091660390916703F701918369
:1016F00080838091660390916703892B71F20F5F5D
:101700001F4F82E090E0E80EF91E91E000301907CB
:1017100009F0BECFCE0120E030E0F601C081D181DA
:10172000C054DF41D7FF03C0D095C195DF4FC81724
:10173000D90714F0EC0101C059012F5F3F4F82E03F
:1017400090E0C80ED91E91E02030390711F0CE018B
:10175000E4CF86E391E00E946C04C5010E949208E8
:10176000CE010E949208C4010E94920882E491E096
:101770000E946C040894811C911CE4E08E16910474
:1017800031F482E060E040E00E946106FACFC531AA
:10179000D10544F028E6C22E23E0D22E760100E0E7
:1017A00010E076CF1A2D81E090E06A2D0E942B1B6D
:1017B00088EE93E0F3013197F1F70197D9F781E5CE
:1017C00091E00E946C0410936600C5010E9492088B
:1017D000CE010E94920882E491E00E946C0482E0B3
:1017E00090E09093ED028093EC02A091EE05B09111
:1017F000EF051092FB051092FA0520E030E01097FB
:1018000019F4A3E0B0E001C01197FD01EE0FFF1F36
:10181000EA51FA4F80819181019709F045C0F8940F
:10182000FD01EE0FFF1FE254FA4F808191819093EA
:10183000F1058093F005FD01EE0FFF1FEA53FA4F0B
:10184000808191819093F3058093F205FD01EE0F65
:10185000FF1FE253FA4F808191819093F5058093A9
:10186000F405FD01EE0FFF1FEA52FA4F80819181CE
:101870009093F7058093F605AA0FBB1FFD01E25276
:10188000FA4F808191819093F9058093F8057894BF
:1018900081E090E09093FB058093FA05AA51BA4F3E
:1018A00011961C921E9206C02F5F3F4F24303105C7
:1018B00009F0A5CFA091EE05B091EF051092FB05C0
:1018C0001092FA0520E030E0109719F4A3E0B0E0A0
:1018D00001C01197FD01EE0FFF1FEA51FA4F808101
:1018E0009181019709F045C0F894FD01EE0FFF1FAB
:1018F000E254FA4F808191819093F1058093F00535
:10190000FD01EE0FFF1FEA53FA4F80819181909302
:10191000F3058093F205FD01EE0FFF1FE253FA4F2E
:10192000808191819093F5058093F405FD01EE0F80
:10193000FF1FEA52FA4F808191819093F7058093BF
:10194000F605AA0FBB1FFD01E252FA4F808191817B
:101950009093F9058093F805789481E090E0909356
:10196000FB058093FA05AA51BA4F11961C921E925C
:1019700006C02F5F3F4F2430310509F0A5CFA0915D
:10198000EE05B091EF051092FB051092FA0520E0EC
:1019900030E0109719F4A3E0B0E001C01197FD0109
:1019A000EE0FFF1FEA51FA4F80819181019709F0F4
:1019B00045C0F894FD01EE0FFF1FE254FA4F8081FD
:1019C00091819093F1058093F005FD01EE0FFF1FCB
:1019D000EA53FA4F808191819093F3058093F20549
:1019E000FD01EE0FFF1FE253FA4F8081918190932A
:1019F000F5058093F405FD01EE0FFF1FEA52FA4F43
:101A0000808191819093F7058093F605AA0FBB1F03
:101A1000FD01E252FA4F808191819093F905809304
:101A2000F805789481E090E09093FB058093FA05A7
:101A3000AA51BA4F11961C921E9210CD2F5F3F4FA4
:101A40002430310509F0A5CF09CD8091EC029091A9
:101A5000ED02029709F0BFC181E060E041E00E9421
:101A6000610600E010E083E8382EB3E02B2EA5ECF1
:101A70004A2EF5E48F2EE5E85E2E75E0972E95C18F
:101A8000209719F4D092EA025AC0C130D10519F456
:101A9000C092EA0254C0C230D10519F4B092EA02F1
:101AA0004EC0C330D10519F4A092EA0248C0C43038
:101AB000D10519F49092EA0242C0C530D10519F45B
:101AC0005092EA023CC0C630D10519F48092EA0275
:101AD00036C0C730D10519F44092EA0230C0C83090
:101AE000D10519F42092EA022AC0C930D10519F4AF
:101AF0003092EA0224C0CA30D10511F4F3E41DC0CB
:101B0000CB30D10521F423EC2093EA0218C0CC306D
:101B1000D10521F487E08093EA0211C0CD30D105D0
:101B200021F497E89093EA020AC0CE30D10521F45F
:101B3000E7E4E093EA0203C0F7ECF093EA02CE0197
:101B400061E070E040E050E00E949504C701019719
:101B5000F1F7CE010E9492082196C031D10509F01B
:101B60008FCFA091EE05B091EF051092FB0510927A
:101B7000FA0520E030E0109719F4A3E0B0E001C0CE
:101B80001197FD01EE0FFF1FEA51FA4F80819181FD
:101B9000019709F045C0F894FD01EE0FFF1FE254D4
:101BA000FA4F808191819093F1058093F005FD01BA
:101BB000EE0FFF1FEA53FA4F808191819093F30556
:101BC0008093F205FD01EE0FFF1FE253FA4F808173
:101BD00091819093F5058093F405FD01EE0FFF1FB1
:101BE000EA52FA4F808191819093F7058093F60530
:101BF000AA0FBB1FFD01E252FA4F808191819093A1
:101C0000F9058093F805789481E090E09093FB05C6
:101C10008093FA05AA51BA4F11961C921E9206C0E3
:101C20002F5F3F4F2430310509F0A5CF8091FA0591
:101C30009091FB05019709F0AAC08091F20590915F
:101C4000F305892B19F461E070E089C08091F205F9
:101C50009091F305019719F461E870E080C08091DC
:101C6000F2059091F305029719F461E470E077C0F2
:101C70008091F2059091F305039719F461EC70E0FF
:101C80006EC08091F2059091F305049719F465E018
:101C900070E065C08091F2059091F305059719F405
:101CA00065E870E05CC08091F2059091F3050697BD
:101CB00019F465E470E053C08091F2059091F3054A
:101CC000079719F465EC70E04AC08091F205909195
:101CD000F305089719F463E070E041C08091F205C4
:101CE0009091F305099719F463E870E038C080918A
:101CF000F2059091F3050A9719F463E470E02FC0A0
:101D00008091F2059091F3050B9719F463EC70E064
:101D100026C08091F2059091F3050C9719F467E0C5
:101D200070E01DC08091F2059091F3050D9719F4B4
:101D300067E870E014C08091F2059091F3050E976A
:101D400019F467E470E00BC08091F2059091F305FF
:101D50000F9719F467EC70E002C060E070E06093E8
:101D6000EA0280E990E00E942B1B88EE93E0F301E9
:101D70003197F1F70197D9F78BE591E00E946C0458
:101D80008091F2059091F3050E9492081DC00F5FAB
:101D90001F4F0D38110531F481E060E040E00E94F2
:101DA0006106FACF063911057CF4C0E0D0E0A1EC61
:101DB000AA2EF1E4BF2EE1E8CE2EDD24D39470E10B
:101DC000E72E77E2F72E5CCE83E090E09093ED0271
:101DD0008093EC0243CB8091EC029091ED0203974B
:101DE00009F048C41092A90180E090E0FC01E25D96
:101DF000FC4F11821082FC01EA50FD4F11821082CB
:101E000002968833910591F71092F5021092F40230
:101E10001092F3021092F20201E010E0C4E6D0E06A
:101E200059C3A091EE05B091EF051092FB051092F9
:101E3000FA0520E030E0109719F4A3E0B0E001C00B
:101E40001197FD01EE0FFF1FEA51FA4F808191813A
:101E5000019709F043C0F894FD01EE0FFF1FE25413
:101E6000FA4F808191819093F1058093F005FD01F7
:101E7000EE0FFF1FEA53FA4F808191819093F30593
:101E80008093F205FD01EE0FFF1FE253FA4F8081B0
:101E900091819093F5058093F405FD01EE0FFF1FEE
:101EA000EA52FA4F808191819093F7058093F6056D
:101EB000AA0FBB1FFD01E252FA4F808191819093DE
:101EC000F9058093F80578941093FB050093FA05C3
:101ED000AA51BA4F11961C921E9206C02F5F3F4F17
:101EE0002430310509F0A7CF8091FA059091FB05C8
:101EF000019709F0EFC280E060E040E00E946106D7
:101F00008091F0059091F105892B59F583E063E00C
:101F100043E00E9461068091F6059091F7052091BB
:101F20002E0330912F03820F931F90932F038093E2
:101F30002E038091F8059091F9052091300330919E
:101F40003103820F931F909331038093300380916C
:101F5000F6029091F70201969093F7028093F602B1
:101F60007CC28091F0059091F105019759F583E0CD
:101F700063E043E00E9461068091F6059091F705C9
:101F80002091320330913303820F931F90933303D8
:101F9000809332038091F8059091F90520913403E4
:101FA00030913503820F931F909335038093340350
:101FB0008091F8029091F90201969093F902809332
:101FC000F8024BC28091F0059091F105029759F506
:101FD00083E063E043E00E9461068091F605909102
:101FE000F7052091360330913703820F931F9093AA
:101FF0003703809336038091F8059091F90520917D
:10200000380330913903820F931F909339038093E3
:1020100038038091FA029091FB0201969093FB02A3
:102020008093FA021AC28091F0059091F10503970E
:1020300059F583E063E043E00E9461068091F60574
:102040009091F70520913A0330913B03820F931F43
:1020500090933B0380933A038091F8059091F905A2
:1020600020913C0330913D03820F931F90933D03D9
:1020700080933C038091FC029091FD020196909325
:10208000FD028093FC02E9C18091F0059091F10579
:10209000049759F583E063E043E00E946106809174
:1020A000F6059091F70520913E0330913F03820F92
:1020B000931F90933F0380933E038091F805909186
:1020C000F9052091400330914103820F931F9093B3
:1020D0004103809340038091FE029091FF0201969C
:1020E0009093FF028093FE02B8C18091F005909119
:1020F000F105059759F583E063E043E00E9461062E
:102100008091F6059091F7052091420330914303A9
:10211000820F931F90934303809342038091F805AD
:102120009091F9052091440330914503820F931F4C
:1021300090934503809344038091000390910103A1
:102140000196909301038093000387C18091F0056D
:102150009091F105069759F583E063E043E00E9412
:1021600061068091F6059091F70520914603309124
:102170004703820F931F90934703809346038091F8
:10218000F8059091F9052091480330914903820F99
:10219000931F909349038093480380910203909189
:1021A00003030196909303038093020356C1809129
:1021B000F0059091F105079759F583E063E043E05E
:1021C0000E9461068091F6059091F70520914A03DF
:1021D00030914B03820F931F90934B0380934A03DC
:1021E0008091F8059091F90520914C0330914D03B1
:1021F000820F931F90934D0380934C0380910403AF
:10220000909105030196909305038093040325C1E3
:102210008091F0059091F105089759F583E063E00E
:1022200043E00E9461068091F6059091F7052091A8
:102230004E0330914F03820F931F90934F0380936F
:102240004E038091F8059091F9052091500330914B
:102250005103820F931F90935103809350038091F9
:10226000060390910703019690930703809306035A
:10227000F4C08091F0059091F105099759F583E03C
:1022800063E043E00E9461068091F6059091F705B6
:102290002091520330915303820F931F9093530365
:1022A000809352038091F8059091F9052091540391
:1022B00030915503820F931F9093550380935403DD
:1022C00080910803909109030196909309038093EC
:1022D0000803C3C08091F0059091F1050A9759F564
:1022E00083E063E043E00E9461068091F6059091EF
:1022F000F7052091560330915703820F931F909357
:102300005703809356038091F8059091F905209129
:10231000580330915903820F931F90935903809370
:10232000580380910A0390910B03019690930B033D
:1023300080930A0392C08091F0059091F1050B976C
:1023400059F583E063E043E00E9461068091F60561
:102350009091F70520915A0330915B03820F931FF0
:1023600090935B0380935A038091F8059091F9054F
:1023700020915C0330915D03820F931F90935D0366
:1023800080935C0380910C0390910D0301969093D0
:102390000D0380930C0361C08091F0059091F105CD
:1023A0000C9759F583E063E043E00E946106809159
:1023B000F6059091F70520915E0330915F03820F3F
:1023C000931F90935F0380935E038091F805909133
:1023D000F9052091600330916103820F931F909360
:1023E00061038093600380910E0390910F03019627
:1023F00090930F0380930E0330C08091F00590916D
:10240000F1050D9751F583E063E043E00E9461061A
:102410008091F6059091F705209162033091630356
:10242000820F931F90936303809362038091F8055A
:102430009091F9052091640330916503820F931FF9
:10244000909365038093640380911003909111032E
:10245000019690931103809310031092F30210924F
:10246000F202D093F502C093F402E6EFF2E020818D
:1024700031818091F2029091F3028217930724F444
:102480003093F3022093F202208131818091F40293
:102490009091F5022817390724F43093F502209320
:1024A000F402329693E0E231F90709F786E691E00B
:1024B0000E946C048091F4029091F5020E949208AF
:1024C0008091F2029091F3020E94920881E791E0DC
:1024D0000E946C048091F4029091F5020A970CF42A
:1024E000A0CCF894C0E0D0E017EC8CE791E00E941B
:1024F0006C041093EA0284E690E064E670E040E049
:1025000050E00E9495042196C431D10571F784E60C
:1025100090E09093ED028093EC0288E891E00E94B5
:102520006C04CEE2D3E0B6EFCB2EB2E0DB2E860118
:10253000A0E2EA2EF12CF8016081718188819981F5
:102540000E944B1ACB010E94920880E061E040E0BB
:102550000E946106F80160817181888199810E94E1
:102560004B1A672F770F770BC7010E942B1B88EE42
:1025700093E0F3013197F1F70197D9F780E060E03C
:1025800040E00E946106F801608171818881998133
:102590000E944B1AC70101960E942B1B88EE93E004
:1025A000F3013197F1F70197D9F724960E5F1F4F8A
:1025B00082E090E0E80EF91E93E0C636D90709F0F4
:1025C000BACF82E491E00E946C0488E991E00E9415
:1025D0006C04E69700E510E0F60160817181888166
:1025E00099810E944B1ACB010E94920880E061E021
:1025F00040E00E946106F6016081718188819981C5
:102600000E944B1A672F770F770BC8010E942B1B74
:1026100088EE93E0F3013197F1F70197D9F780E065
:1026200060E040E00E946106F6016081718188816E
:1026300099810E944B1AC80101960E942B1B88EEBB
:1026400093E0F3013197F1F70197D9F7249682E0EF
:1026500090E0C80ED91E0E5F1F4F93E0C836D90711
:1026600009F0BACF80E060E040E00E946106789413
:102670000C942E0A8091EC029091ED028436910523
:1026800011F00C942E0A80E061E040E00E946106A7
:1026900080E49CE9F3013197F1F70197D9F781E0E4
:1026A00090E09093AD018093AC0182E090E0909334
:1026B000AB018093AA010C942E0A1F920F920FB6C1
:1026C0000F9211242F933F934F935F936F937F93B8
:1026D0008F939F93AF93BF93EF93FF9320917205D6
:1026E0003091730580916A0590916B05820F931F5D
:1026F000909373058093720520916A0530916B0564
:1027000080917A0590917B05820F931F90937B05B2
:1027100080937A05209174053091750580916A0542
:1027200090916B05820F931F9093750580937405AC
:10273000209176053091770580916A0590916B051F
:10274000820F931F909377058093760520917805EB
:102750003091790580916A0590916B0564E670E08F
:102760000E944B1A260F371F309379052093780566
:10277000809178059091790581509D4720F01092C5
:102780007905109278058FEF90E090936B05809318
:102790006A058FEF87BD80917205909173058C5FFC
:1027A00094406CF18091A901813049F58091E80253
:1027B0009091E902892BA1F48091B0016091B1015F
:1027C0004091B20190E070E050E00E9495040097C3
:1027D00039F0019729F410927305109272050FC019
:1027E0000E94FA1A6FEF70E00E944B1A90936B05EB
:1027F00080936A0580916A0590916B0587BD8091F1
:102800007A0590917B05885F9840A4F010927B0533
:1028100010927A051092FD051092FC051092FF05AA
:102820001092FE05109201061092000610926F059C
:1028300010926E05FF91EF91BF91AF919F918F9193
:102840007F916F915F914F913F912F910F900FBEAC
:102850000F901F901895EF92FF920F931F937B019B
:102860008C0120E030E040E05FE40E94FB1688230A
:102870008CF0C801B70120E030E040E05FE40E9446
:10288000A3150E9489179B01AC01205030404040A5
:10289000504806C0C801B7010E9489179B01AC01CE
:1028A000B901CA011F910F91FF90EF900895A0E028
:1028B000B0E0EDE5F4E10C94721ADC012B01FA01B1
:1028C0009C91923008F439C1EB018881823008F480
:1028D00033C1943069F4843009F02FC111969C9172
:1028E00011978981981709F428C1A3EBB1E025C19C
:1028F000843009F421C18230A9F4923009F01DC15D
:102900009A01AD0188E0EA010990AE01E90109925E
:102910009E018150C1F7E201898111969C91892322
:10292000818308C1923009F407C112962D903C9022
:102930001397EB018A819B811496AD90BD90CD9049
:10294000DC901797EC80FD800E811F819101281B80
:10295000390BB90137FF04C066277727621B730B59
:10296000603271050CF061C0121613066CF5370168
:102970004801062E04C096948794779467940A942D
:10298000D2F721E030E040E050E004C0220F331FD6
:10299000441F551F6A95D2F72150304040405040A7
:1029A0002E213F2140235123211531054105510599
:1029B00021F021E030E040E050E079018A01E62892
:1029C000F728082919293CC0232BD1F1260E371EE0
:1029D00035014601062E04C0969487947794679437
:1029E0000A94D2F721E030E040E050E004C0220F2A
:1029F000331F441F551F6A95D2F721503040404085
:102A000050402A213B214C215D21211531054105F2
:102A1000510521F021E030E040E050E059016A0129
:102A2000A628B728C828D9280BC0821593052CF0F2
:102A30001C01AA24BB24650103C0EE24FF248701E6
:102A400011969C91D20111968C91981709F445C06A
:102A5000992339F0A80197012A193B094C095D090E
:102A600006C0A60195012E193F09400B510B57FDD9
:102A700008C01182338222822483358346835783A0
:102A80001DC081E081833382228288279927DC015F
:102A9000821B930BA40BB50B84839583A683B7830A
:102AA0000DC0220F331F441F551F248335834683D7
:102AB0005783828193810197938382832481358117
:102AC00046815781DA01C9010197A109B1098F5FD8
:102AD0009F4FAF4FBF4328F30BC0918333822282B5
:102AE000EA0CFB1C0C1D1D1DE482F5820683178376
:102AF00083E08083248135814681578157FF1AC046
:102B0000C901AA2797FDA095BA2F81709070A07077
:102B1000B0705695479537952795822B932BA42B0C
:102B2000B52B84839583A683B78382819381019695
:102B300093838283DF0101C0D201CD01CDB7DEB71F
:102B4000E2E10C948E1AA0E2B0E0E9EAF5E10C941F
:102B50007E1A69837A838B839C832D833E834F8384
:102B60005887E9E0EE2EF12CEC0EFD1ECE01019609
:102B7000B7010E947A198E010F5E1F4FCE01059694
:102B8000B8010E947A198A8991E089278A8BC70146
:102B9000B801AE01475E5F4F0E9457140E94A5180E
:102BA000A096E6E00C949A1AA0E2B0E0EAEDF5E116
:102BB0000C947E1A69837A838B839C832D833E8356
:102BC0004F835887F9E0EF2EF12CEC0EFD1ECE015D
:102BD0000196B7010E947A198E010F5E1F4FCE0138
:102BE0000596B8010E947A19C701B801AE01475E87
:102BF0005F4F0E9457140E94A518A096E6E00C941F
:102C00009A1AA0E2B0E0E7E0F6E10C94721A698348
:102C10007A838B839C832D833E834F835887CE0199
:102C20000196BE01675F7F4F0E947A19CE0105961B
:102C3000BE016F5E7F4F0E947A199985923088F0AD
:102C400089898230C8F0943019F4823051F404C07C
:102C5000843029F4923081F483EB91E0C6C0923045
:102C600049F420E09A858A89981321E02A87CE01C9
:102C70000996BBC0823049F420E09A858A8998136E
:102C800021E02A8BCE014196B0C02D843E844F8432
:102C900058886D887E888F88988CEE24FF24870161
:102CA000AA24BB24650140E050E060E070E0E0E071
:102CB000F0E0C10181709070892BE9F0E60CF71CFF
:102CC000081D191D9A01AB012A0D3B1D4C1D5D1DF0
:102CD00080E090E0A0E0B0E0E614F70408051905F4
:102CE00020F481E090E0A0E0B0E0BA01A901480F33
:102CF000591F6A1F7B1FAA0CBB1CCC1CDD1C97FE36
:102D000008C081E090E0A0E0B0E0A82AB92ACA2A71
:102D1000DB2A3196E032F10549F0660C771C881CFD
:102D2000991C5694479437942794C3CFFA85EA891F
:102D30002B893C898B859C85280F391F2E5F3F4F3F
:102D400017C0CA0181709070892B61F016950795A4
:102D5000F794E79480E090E0A0E0B0E8E82AF92A50
:102D60000A2B1B2B76956795579547952F5F3F4FFD
:102D700077FDE7CF0CC0440F551F661F771F17FD67
:102D80004160EE0CFF1C001F111F215030404030ED
:102D900090E0590790E0690790E4790760F32B8F82
:102DA0003C8FDB01CA018F779070A070B0708034C7
:102DB0009105A105B10561F447FD0AC0E114F104D4
:102DC0000105110529F0405C5F4F6F4F7F4F407840
:102DD0001A8EFE1711F081E08A8F4D8F5E8F6F8FF4
:102DE00078A383E0898FCE0149960E94A518A0960A
:102DF000E2E10C948E1AA8E1B0E0E1E0F7E10C9476
:102E00007E1A69837A838B839C832D833E834F83D1
:102E1000588789E0E82EF12CEC0EFD1ECE010196BC
:102E2000B7010E947A198E010F5E1F4FCE010596E1
:102E3000B8010E947A198985823040F089898230F0
:102E400028F0C701B8010E94F21901C08FEF6896FF
:102E5000E6E00C949A1AA8E0B0E0E1E3F7E10C9404
:102E60007B1A9B01AC0183E08983DA01C9018827C1
:102E7000B7FD83959927AA27BB27B82E21153105C1
:102E80004105510519F482E089833AC08823A9F0ED
:102E9000203080E0380780E0480780E8580729F4B0
:102EA00060E070E080E09FEC30C0EE24FF248701FA
:102EB000E21AF30A040B150B02C079018A018EE1B4
:102EC000C82ED12CDC82CB82ED82FE820F83188744
:102ED000C801B7010E94561801971816190684F404
:102EE000082E04C0EE0CFF1C001F111F0A94D2F71D
:102EF000ED82FE820F831887C81AD90ADC82CB8242
:102F0000BA82CE0101960E94A5182896E9E00C9499
:102F1000971AACE0B0E0EFE8F7E10C94821A69830D
:102F20007A838B839C83CE010196BE016B5F7F4FBA
:102F30000E947A198D81823061F1823050F18430A3
:102F400021F48E81882351F12EC02F81388537FDE1
:102F500020C06E812F3131051CF06623F9F023C0AB
:102F60008EE190E0821B930B29853A854B855C8529
:102F700004C056954795379527958A95D2F76623CD
:102F8000B1F050954095309521953F4F4F4F5F4F91
:102F90000EC020E030E040E050E009C02FEF3FEFEE
:102FA0004FEF5FE704C020E030E040E050E8B901B7
:102FB000CA012C96E2E00C949E1AA8E0B0E0E3EE81
:102FC000F7E10C947A1A7B018C016115710581057A
:102FD000910519F482E0898360C083E089838EE1E2
:102FE000C82ED12CDC82CB82ED82FE820F83188723
:102FF000C801B7010E945618FC013197F7FF3BC08A
:10300000222733272E1B3F0B57016801022E04C0D5
:10301000D694C794B794A7940A94D2F740E050E0AE
:1030200060E070E081E090E0A0E0B0E004C0880FD4
:10303000991FAA1FBB1F2A95D2F70197A109B109B1
:103040008E219F21A023B1230097A105B10521F076
:1030500041E050E060E070E04A295B296C297D295D
:103060004D835E836F8378878EE190E08E1B9F0B8C
:103070009C838B8312C0309781F00E2E04C0EE0C1F
:10308000FF1C001F111F0A94D2F7ED82FE820F83EE
:103090001887CE1ADF0ADC82CB821A82CE01019613
:1030A0000E94A5182896EAE00C94961AEF92FF92D7
:1030B0000F931F937B018C0180E0E81680E0F806F7
:1030C00081E0080780E0180788F48FEFE816F10424
:1030D0000105110531F028F088E090E0A0E0B0E0B3
:1030E00017C080E090E0A0E0B0E012C080E0E816F9
:1030F00080E0F80680E0080781E0180728F088E102
:1031000090E0A0E0B0E004C080E190E0A0E0B0E09A
:1031100020E230E040E050E0281B390B4A0B5B0B0B
:1031200004C016950795F794E7948A95D2F7F701AE
:10313000E554FE4F8081281B310941095109C9011D
:103140001F910F91FF90EF900895DF92EF92FF9201
:103150000F931F93FC01E480F58006811781D180D5
:103160008081823048F480E090E0A0E1B0E0E82A7D
:10317000F92A0A2B1B2BA5C0843009F49FC082308A
:1031800021F4EE24FF24870105C0E114F1040105B8
:10319000110519F4E0E0F0E096C0628173819FEFC1
:1031A000623879070CF05BC022E83FEF261B370B33
:1031B0002A3131052CF020E030E040E050E02AC018
:1031C000B801A701022E04C07695679557954795DB
:1031D0000A94D2F781E090E0A0E0B0E004C0880F4C
:1031E000991FAA1FBB1F2A95D2F70197A109B10900
:1031F0008E219F21A023B1230097A105B10521F0C5
:1032000081E090E0A0E0B0E09A01AB01282B392BDF
:103210004A2B5B2BDA01C9018F779070A070B070D8
:1032200080349105A105B10539F427FF09C0205C60
:103230003F4F4F4F5F4F04C0215C3F4F4F4F5F4F99
:10324000E0E0F0E02030A0E03A07A0E04A07A0E488
:103250005A0710F0E1E0F0E079018A0127C06038F8
:10326000710564F5FB01E158FF4FD801C7018F7765
:103270009070A070B07080349105A105B10539F44B
:10328000E7FE0DC080E490E0A0E0B0E004C08FE372
:1032900090E0A0E0B0E0E80EF91E0A1F1B1F17FF28
:1032A00005C016950795F794E794319687E0169533
:1032B0000795F794E7948A95D1F705C0EE24FF248B
:1032C0008701EFEFF0E06E2F679566276795902FE7
:1032D0009F77D794DD24D7948E2F8695492F462B40
:1032E000582F5D29B701CA011F910F91FF90EF90F0
:1032F000DF900895FC01DB01408151812281622F22
:103300006F7770E0221F2227221F9381892F880F59
:10331000822B282F30E0991F9927991F11969C9393
:10332000119721153105A9F5411551056105710563
:1033300011F482E037C082E89FEF13969C938E933E
:1033400012979A01AB0167E0220F331F441F551FEC
:103350006A95D1F783E08C930DC0220F331F441F71
:10336000551F12968D919C911397019713969C93DC
:103370008E931297203080E0380780E0480780E481
:10338000580758F314962D933D934D935C931797DC
:1033900008952F3F310579F44115510561057105F7
:1033A00019F484E08C93089564FF03C081E08C934A
:1033B00012C01C9210C02F57304013963C932E938E
:1033C000129783E08C9387E0440F551F661F771F89
:1033D0008A95D1F7706414964D935D936D937C93A9
:1033E000179708951F93DC01FB019C91923008F41C
:1033F00047C08081823008F443C0943051F4119664
:103400001C91843099F58181682F70E0611B7109EE
:103410003FC0843021F0923031F48230B9F18181A3
:10342000882389F12DC011961C9111978230F1F0FB
:1034300081811817D9F412962D913C9113978281AE
:1034400093818217930794F028173907BCF01496DC
:103450008D919D910D90BC91A02D24813581468147
:103460005781281739074A075B0718F4112341F0E1
:103470000AC082179307A407B50740F4112319F077
:1034800061E070E005C06FEF7FEF02C060E070E0C8
:10349000CB011F91089597FB092E07260AD077FDCF
:1034A00004D00CD006D000201AF4709561957F4F9F
:1034B0000895F6F7909581959F4F0895AA1BBB1B21
:1034C00051E107C0AA1FBB1FA617B70710F0A61B24
:1034D000B70B881F991F5A95A9F780959095BC0145
:1034E000CD0108952F923F924F925F926F927F92FB
:1034F0008F929F92AF92BF92CF92DF92EF92FF9204
:103500000F931F93CF93DF93CDB7DEB7CA1BDB0BAF
:103510000FB6F894DEBF0FBECDBF09942A88398854
:1035200048885F846E847D848C849B84AA84B9845B
:10353000C884DF80EE80FD800C811B81AA81B98167
:10354000CE0FD11D0FB6F894DEBF0FBECDBFED017B
:103550000895A0E0B0E0EFEAFAE10C947A1AEC01E9
:10356000A880B980CA80DB80A114B104C104D10451
:1035700041F484E2A82E89EDB82E8BE5C82E87E0B1
:10358000D82EC601B5012DE133EF41E050E00E9495
:10359000681B27EA31E440E050E00E94491B7B01B0
:1035A0008C01C601B5012DE133EF41E050E00E94EE
:1035B000681BCA01B9012CEE34EF4FEF5FEF0E9498
:1035C000491B6E0D7F1D801F911F97FF04C0615026
:1035D000704080409048688379838A839B839B01F5
:1035E0003F77C901CDB7DEB7EAE00C94961A0E9486
:1035F000A91A08958BEB92E00E94A91A0895A0E001
:10360000B0E08093BB029093BC02A093BD02B09344
:10361000BE020895FB019F01E8944230C4F0453298
:10362000B4F44A3029F497FB1EF4909581959F4F8E
:10363000642F77270E945E1A805D8A330CF0895DC3
:103640008193CB010097A1F716F45DE251931082AC
:10365000C9010C94391B262FF999FECF1FBA92BDD0
:1036600081BD20BD0FB6F894FA9AF99A0FBE019663
:103670000895DC01FC01672F71917723E1F7329700
:1036800004C07C916D9370836291AE17BF07C8F33D
:103690000895629FD001739FF001829FE00DF11D9C
:1036A000649FE00DF11D929FF00D839FF00D749FBC
:1036B000F00D659FF00D9927729FB00DE11DF91F68
:1036C000639FB00DE11DF91FBD01CF0111240895C5
:1036D00097FB092E05260ED057FD04D014D00AD032
:1036E000001C38F450954095309521953F4F4F4F31
:1036F0005F4F0895F6F790958095709561957F4F8F
:103700008F4F9F4F0895A1E21A2EAA1BBB1BFD01EC
:103710000DC0AA1FBB1FEE1FFF1FA217B307E407B0
:10372000F50720F0A21BB30BE40BF50B661F771F08
:10373000881F991F1A9469F76095709580959095E8
:0E3740009B01AC01BD01CF010895F894FFCFAD
:10374E0072657475726E312020202000726574755A
:10375E00726E342020202000737461727420707297
:10376E006F6772616D0020202020202020202020F5
:10377E00202020202000676F6F64636C6F636B697D
:10378E0073002020202020202020202020202020F8
:10379E00006368616E676F7665720074785F6D6145
:1037AE00736B206973006D696E6D61782020202027
:1037BE0000202020202020202020200073656E6411
:1037CE00696E6773746F70006C6F77206761696ED6
:1037DE002076616C7565730068696768206761693A
:1037EE006E2076616C7565730001030001000100A7
:1037FE00C8C8C8000000000000000000010202035B
:10380E000303030404040404040404050505050568
:10381E000505050505050505050505060606060645
:10382E00060606060606060606060606060606062A
:10383E000606060606060606060606070707070715
:10384E0007070707070707070707070707070707FA
:10385E0007070707070707070707070707070707EA
:10386E0007070707070707070707070707070707DA
:10387E0007070707070707070707070808080808C5
:10388E0008080808080808080808080808080808AA
:10389E00080808080808080808080808080808089A
:1038AE00080808080808080808080808080808088A
:1038BE00080808080808080808080808080808087A
:1038CE00080808080808080808080808080808086A
:1038DE00080808080808080808080808080808085A
:1038EE00080808080808080808080808080808084A
:1038FE000808080808080808080808010000000061

:107000000C9434380C9451380C9451380C945138F9
:107010000C9451380C9451380C9451380C945138CC
:107020000C9451380C9451380C9451380C945338BA
:107030000C9451380C9451380C9451380C945138AC
:107040000C9451380C9451380C9451380C9451389C
:107050000C9451380C9451380C9451380C9482395A
:107060000C9451380C94513811241FBECFEFD8E046
:10707000DEBFCDBF11E0A0E0B1E0E6E6F9E702C077
:1070800005900D92A031B107D9F711E0A0E1B1E070
:1070900001C01D92AD35B107E1F70E94973A0C94FB
:1070A000B13C0C9400381F920F920FB60F9211242E
:1070B0002F933F934F935F936F937F938F939F9300
:1070C000AF93BF93EF93FF93A1E0B0E0B0930E01B5
:1070D000A0930D013C9A3C98809110019091110170
:1070E000892B99F580915C0190E0909353018093F6
:1070F0005201B0931101A093100180915C0188238B
:1071000009F4EDC0109253011092520110925501F2
:107110001092540110925701109256011092590189
:107120001092580110925B0110925A011092810046
:10713000109285001092840010921101109210019B
:107140001092130110921201CAC080911001909107
:107150001101019751F480915C0190E090935501E9
:107160008093540182E090E00FC0809110019091D3
:107170001101029771F480915C0190E090935701A6
:107180008093560183E090E0909311018093100169
:10719000A6C08091100190911101039751F4809144
:1071A0005C0190E0909359018093580184E090E055
:1071B000EBCF8091100190911101049709F08FC0DD
:1071C00080915C0190E090935B0180935A01109252
:1071D000110110921001809154019091550120915C
:1071E00056013091570140915801509159016091D9
:1071F0005A0170915B01820F8058840F90E08617CE
:10720000970709F04EC08091520190915301892B4C
:1072100009F047C0E0915001F09151018091540173
:1072200090915501EE0FFF1FEC5EFE4F918380831E
:10723000E0915001F09151018091560190915701D8
:10724000EE0FFF1FE25EFE4F91838083E0915001BD
:10725000F09151018091580190915901EE0FFF1F5B
:10726000E85DFE4F91838083E0915001F0915101E0
:10727000EE0FFF1FEA5BFE4FB183A08380915001A8
:10728000909151010196909351018093500180910A
:10729000500190915101049721F4109251011092E4
:1072A000500110921301109212011092530110928A
:1072B00052011092550110925401109257011092F0
:1072C0005601109259011092580110925B011092D0
:1072D0005A01109281001092850010928400109241
:1072E0005C01FF91EF91BF91AF919F918F917F9141
:1072F0006F915F914F913F912F910F900FBE0F9023
:107300001F9018951F920F920FB60F9211242F9372
:107310003F938F939F9320918400309185008091BB
:107320000D0190910E01019711F5109285001092B8
:10733000840081E08093810080917A008F7D80932A
:107340007A008091100190911101892B29F48BE032
:107350008093890080E304C088E08093890080EAFC
:107360008093880010920E0110920D0139C084E0C4
:107370002A3B3807D4F482E0203A38075CF42359DA
:10738000314024F480915C01805828C080915C01D8
:10739000805C24C02D5A334024F480915C01805ECF
:1073A0001DC080915C01805F19C086E0243D3807D4
:1073B0005CF4275C354024F480915C01885F0EC04A
:1073C00080915C018C5F0AC0215E374024F480917B
:1073D0005C018E5F03C080915C018F5F80935C01D4
:1073E00081E090E090931301809312019F918F911F
:1073F0003F912F910F900FBE0F901F901895809383
:10740000C6008091C00085FFFCCF0895982F40FFF3
:1074100002C03D9A01C03D98842F859580FF02C02F
:107420003C9A01C03C9890FF02C0559A01C0559803
:10743000892F859580FF02C0549A01C0549860FF3F
:1074400002C03B9A01C03B98862F859580FF02C001
:107450003A9A08953A980895AC0120E030E0FA0194
:10746000E20FF31F80818093C6008091C00085FFEA
:10747000FCCF2F5F3F4F2A30310589F78AE0809398
:10748000C6008091C00085FFFCCF8DE08093C600D0
:107490008091C00085FFFCCF0895EF92FF920F937B
:1074A0001F93DF93CF93CDB7DEB72A970FB6F8942B
:1074B000DEBF0FBECDBF8E010F5F1F4F78019E0153
:1074C000255F3F4FF70111927F01E217F307D1F7D4
:1074D000BE016F5F7F4F4AE050E00E94643CF801BC
:1074E00080818093C6008091C00085FFFCCF0F5F34
:1074F0001F4F0E151F0599F78AE08093C6008091F3
:10750000C00085FFFCCF8DE08093C6008091C00055
:1075100085FFFCCF2A960FB6F894DEBF0FBECDBF15
:10752000CF91DF911F910F91FF90EF9008952F92CF
:107530003F924F925F926F927F928F929F92AF9203
:10754000BF92CF92DF92EF92FF920F931F93DF9340
:10755000CF93CDB7DEB7CE55D1400FB6F894DEBF8E
:107560000FBECDBF10924701109246011092490103
:107570001092480110924B0110924A0110924D0155
:1075800010924C0110924F0110924E0184E08AB982
:107590008BB914B815B817B818B85C98529A5A9A9B
:1075A00081E090E00E94853C80936600539A239A84
:1075B0008091B000816A8093B0008091B1008260B8
:1075C0008093B1001092B4001092B300519A81E000
:1075D00090E09093C5008093C4001092C000809109
:1075E000C10088608093C1008091C2008660809352
:1075F000C20080B78B6080BF83E080937F001092D1
:10760000800021E02093810092E090936F0082E35C
:10761000809389001092880025BF95BFFE01ED5729
:10762000FF4FCE01815A9E4F1192E817F907E1F7FB
:1076300087E060E040E00E94063A80ED97E028ECA9
:1076400030E0F9013197F1F70197D9F780E067E071
:1076500040E00E94063A88EE93E028EC30E0F90121
:107660003197F1F70197D9F780E060E047E00E9499
:10767000063A88EE93E028EC30E0F9013197F1F713
:107680000197D9F780E060E040E00E94063A88EE7A
:1076900093E028EC30E0F9013197F1F70197D9F741
:1076A0007894AA24BB2488243E010894611C711C90
:1076B00063E8462E512C4C0E5D1E51E8252E312CD0
:1076C0002C0E3D1EF1C0009150011091510120E09F
:1076D00030E00430110519F400E010E002C00F5F43
:1076E0001F4FD801AA0FBB1FAA5BBE4F8D919C9163
:1076F0001197019709F07EC0F801EE0FFF1FE85DBA
:10770000FE4F808191818A3F910581F4000F111F06
:107710000C5E1E4FF80180819181982EA82EBB240B
:1077200011961C921E92EE24FF24CDCF8081918170
:107730008E3F910521F061E8E616F10494F170E8BE
:10774000E716F104D1F48FEF981601F1F801EE0F6E
:10775000FF1FEC5EFE4F80819181982F8827F801F2
:10776000EE0FFF1FE25EFE4F20813181820F931FDB
:107770008A159B0559F481E00AC080E091E00E94DF
:107780002C3A87E060E040E00E94063A80E0000F7B
:10779000111F0A5B1E4FF80111821082882389F5A0
:1077A00092CF80819181892B09F08DCF000F111F1D
:1077B000F801EC5EFE4F40815181F301EE0DFF1D9B
:1077C000408397012F5F3F4F025E1E4FF80180817B
:1077D0009181F301E20FF31F808390E0840F911DEC
:1077E000A80EB91E79010894E11CF11C11961C9297
:1077F0001E9269CF2F5F3F4F2530310509F069CFC9
:1078000062CFFBEDF91508F44CC0092D10E0F20130
:10781000E00FF11F8081882309F043C067E040E05A
:107820000E94063AD301A8015695542F4427579534
:1078300047959A018C911196DC901197CC24B60152
:10784000680F711DCB0161E0F9010C0160935700D5
:10785000E895112412962E5F3F4FA215B30551F7FC
:10786000F999FECF63E0FA0160935700E89507B6F7
:1078700000FCFDCF65E0FA0160935700E89507B67C
:1078800000FCFDCF040D151D61E0F80160838394B9
:1078900071E170935700E89580E060E047E00E9456
:1078A000063A8CED881629F0EE24FF2499249A9448
:1078B0000ACF81E085BF15BE0C94000080E060E037
:1078C00047E00E94063AFFCFFB019F01E894423057
:1078D000C4F04532B4F44A3029F497FB1EF4909575
:1078E00081959F4F642F77270E949D3C805D8A334E
:1078F0000CF0895D8193CB010097A1F716F45DE24E
:1079000051931082C9010C948D3CF999FECF92BD20
:1079100081BDF89A992780B50895DC01FC01672F95
:1079200071917723E1F7329704C07C916D93708356
:107930006291AE17BF07C8F30895AA1BBB1B51E1A4
:1079400007C0AA1FBB1FA617B70710F0A61BB70BCF
:10795000881F991F5A95A9F780959095BC01CD0174
:067960000895F894FFCF2A
:10796600706167655F62616464646464000100005D
:040000030000700089
:00000001FF
