:100000000C9434000C945A000C945A000C945A002E
:100010000C945A000C945A000C940A030C945A0045
:100020000C945A000C945A000C945A000C948C03B3
:100030000C945A000C945A000C94AE0A0C945A007A
:100040000C945A000C945A000C945A000C945A00C8
:100050000C945A000C945A000C945A000C945C00B6
:100060000C945A000C945A0011241FBECFEFD8E014
:10007000DEBFCDBF14BE88E10FB6F8948093600058
:10008000109260000FBE12E0A0E0B1E0E8E7F6E2F7
:1000900002C005900D92A23BB107D9F713E0A2EB85
:1000A000B2E001C01D92AE38B107E1F70E945307DC
:1000B0000C943A130C9400001F920F920FB60F92FB
:1000C00011242F933F938F939F932091840030911D
:1000D000850015BC8091A0019091A101019711F5B7
:1000E000109285001092840081E0809381008091BD
:1000F0007A008F7D80937A008091B8029091B90246
:10010000892B29F489E08093890080E804C088E085
:100110008093890080E4809388001092A10110925E
:10012000A00139C084E02A3B3807D4F482E0203AA9
:1001300038075CF42359314024F48091D002805870
:1001400028C08091D002805C24C02D5A334024F412
:100150008091D002805E1DC08091D002805F19C066
:1001600086E0243D38075CF4275C354024F4809118
:10017000D002885F0EC08091D0028C5F0AC0215EE1
:10018000374024F48091D0028E5F03C08091D0026A
:100190008F5F8093D00281E090E09093B5028093CE
:1001A000B4029F918F913F912F910F900FBE0F90AE
:1001B0001F901895AC0120E030E0FA01E20FF31F28
:1001C00080818093C6008091C00085FFFCCF2F5FA7
:1001D0003F4F2A30310589F78AE08093C60080912D
:1001E000C00085FFFCCF8DE08093C6008091C000E9
:1001F00085FFFCCF0895CF92DF92EF92FF920F938D
:100200001F93DF93CF93CDB7DEB72C970FB6F8943B
:10021000DEBF0FBECDBF282F78948091B40290919D
:10022000B502019719F422E030E0ECC029836A831B
:100230004B832058260F240F2C836E010894C11C79
:10024000D11CDE0115968D017D01F60161916F01D2
:1002500070E09B0120723070F3E035952795FA9598
:10026000E1F7CB018071907095958795280F391F24
:10027000CB018074907055E0959587955A95E1F77C
:10028000280F391FCB01880F892F881F990B919553
:10029000280F391FCB0181709070880F991F880F2C
:1002A000991FAB0142705070840F951F880F991FE2
:1002B000880F991FAB0144705070840F951F880FF1
:1002C000991F880F991F68707070860F971F880F8D
:1002D000991F280F391F220F331F2F5F3F4FF8013F
:1002E000219331938F01CE14DF0409F0AECFF8943F
:1002F0008091B4029091B5023091B602892B09F039
:1003000062C084B1832B84B985B1832B85B9000089
:10031000000085B1232F2095822385B980E090E0ED
:100320000000019685339105D9F780E090E000B692
:1003300005FE0AC085B1822385B984B1282324B97A
:10034000789423E030E05EC000B605FE0AC085B1B7
:10035000822385B984B1282324B9789424E030E03D
:1003600051C00196813C910511F725C040FF06C0A0
:1003700085B1832B85B90000000005C085B18223BB
:1003800085B90000000085B1822385B980E090E046
:100390000000019683329105D9F756954795615033
:1003A00070408FEF6F3F780709F74D935D93AE175D
:1003B000BF0719F414C0FE013D964D915C91119751
:1003C00068E070E0D3CF85B1932F9095892385B9EC
:1003D00084B1982394B9789425E030E013C085B1B6
:1003E000822385B984B1282324B980E090E00000FD
:1003F000019682339105D9F780B7806180BF7894E8
:1004000021E030E0C9012C960FB6F894DEBF0FBE94
:10041000CDBFCF91DF911F910F91FF90EF90DF90B3
:10042000CF9008958091B4029091B502892B19F074
:100430002FEF3FEF1AC0F89487E080937C00809103
:100440007A00806480937A0080917A0084FFFCCFE8
:1004500091E090937C0083EB80937A0090937B00F3
:1004600078942091780030917900C90108958091A5
:10047000B4029091B502892B19F06FEF7FEF2CC079
:1004800080917A00F89486E080937C0080917A00D5
:10049000806480937A0080917A0084FFFCCF789406
:1004A000609178007091790080E090E00E94780F70
:1004B0002AEC34E541EC5BE30E946C0D24E237E961
:1004C0004FE75CE30E943F0D20E030E048EC52E44F
:1004D0000E946C0D0E94240FCB0108951092B3026C
:1004E0001092B202F89484E083BF14BE8091600041
:1004F00088618093600081E68093600014B815B82D
:1005000017B818B81AB81BB8789480917A008F770A
:1005100080937A00A89583B7816083BF889578948B
:1005200034E021E61BC033BF14BE809160008861B7
:10053000809360002093600014B815B817B818B8FD
:100540001AB81BB8789480917A008F7780937A00DC
:10055000A89583B7816083BF889578948091B20213
:100560009091B302892BF9F2539A239A8091B000AB
:10057000816A8093B0008091B10082608093B10065
:100580001092B4001092B3000895982F40FF02C05B
:100590003D9A01C03D98842F859580FF02C03C9A0A
:1005A00001C03C9890FF02C0559A01C05598892F10
:1005B000859580FF02C0549A01C0549860FF02C024
:1005C0003B9A01C03B98862F859580FF02C03A9ADE
:1005D00008953A9808950F931F93489B03C020E015
:1005E00030E014C081E060E040E00E94C50200E419
:1005F0001CE9C8010197F1F780E060E040E00E944B
:10060000C502C8010197F1F721E030E0C9011F914F
:100610000F9108951F920F920FB60F9211242F93EE
:100620003F934F935F936F937F938F939F93AF937A
:10063000BF93EF93FF93A895529A5A9AEAE7F0E096
:10064000808180688083E0E6F0E08081886180833B
:100650001082789487E067E047E00E94C50280E25C
:100660009EE40197F1F780E060E040E00E94C5025F
:10067000FF91EF91BF91AF919F918F917F916F917A
:100680005F914F913F912F910F900FBE0F901F9050
:100690001895EF92FF920F931F93DF93CF93CDB7EF
:1006A000DEB72A970FB6F894DEBF0FBECDBF8E011E
:1006B0000F5F1F4F78019E01255F3F4FF701119299
:1006C0007F01E217F307D1F7BE016F5F7F4F4AE06A
:1006D00050E00E94A512F80180818093C6008091AD
:1006E000C00085FFFCCF0F5F1F4F0E151F0599F748
:1006F00080E28093C6008091C00085FFFCCF2A96DF
:100700000FB6F894DEBF0FBECDBFCF91DF911F9122
:100710000F91FF90EF9008951F920F920FB60F92D6
:1007200011243F924F925F926F927F928F929F928D
:10073000AF92BF92CF92DF92EF92FF920F931F93EF
:100740002F933F934F935F936F937F938F939F93D9
:10075000AF93BF93CF93DF93EF93FF9321E030E00C
:100760003093A1012093A0018091B8029091B90229
:10077000892B09F047C0809178009091790090937F
:10078000CF028093CE0210927C0043EB40937A001C
:1007900091E090937B008091D0028093D1023093BE
:1007A000B9022093B8028091D002882309F442C094
:1007B0001092D1021092D2021092D3021092D4025F
:1007C0001092D50290937C0040937A0090937B0026
:1007D0001092810010928500109284001092B9024C
:1007E0001092B8021092B5021092B4028091BA022F
:1007F0009091BB0203969093BB028093BA0285E06E
:1008000085BD18C08091B8029091B902019709F591
:1008100080917800909179009093CD028093CC02E2
:100820008091D0028093D20282E090E09093B9024E
:100830008093B8028091BC029091BD022091780013
:1008400030917900820F931F9093BD028093BC0278
:1008500006C38091B8029091B902029739F4809151
:10086000D0028093D30283E090E00CC08091B80264
:100870009091B902039759F48091D0028093D402E9
:1008800084E090E09093B9028093B802E8C280912E
:10089000B8029091B902049709F0E1C28091D002A8
:1008A0008093D5021092B9021092B8028091D202C0
:1008B0009091D3022091D4023091D502890F8058B3
:1008C000820F831709F0F0C18091D102882309F0CB
:1008D000EBC18091CC029091CD02845893401CF0E2
:1008E00033243A9499C02091CC023091CD0280916A
:1008F0006C0390916D038217930714F433248CC01A
:1009000021E0422E512C2091CC023091CD02E20107
:10091000CC0FDD1FC459DC4F888199818217930762
:1009200054F00894411C511C8EE04816510459F7AC
:100930008AE5382E71C068817981F201EE0FFF1FC0
:10094000E659FC4F20813181621B730B882777FDAC
:100950008095982F0E94C60E9B01AC010E943F0D0E
:100960003B014C01E880F9806091CC027091CD028E
:10097000882777FD8095982F0E94C60E5B016C0139
:100980000027F7FC0095102FC801B7010E94C60E82
:100990007B018C01B201882777FD8095982F0E94FA
:1009A000C60E20E030E040E05FE30E946C0D20E0E6
:1009B00030E040E050E00E943F0D9B01AC01C401DB
:1009C000B3010E946C0D9B01AC01C801B7010E94EC
:1009D0000E0D9B01AC01C601B5010E940E0D20E079
:1009E00030E040E251E40E946C0D0E94240F7B0134
:1009F0008C01C401B3010E94240F9B01AC01C7010B
:100A0000B9010E94E611882777FD8095982F0E94F2
:100A1000C60E0E94960B362E8091CC029091CD028C
:100A20008D5B92400CF4A2C02091CE023091CF0297
:100A30008091500390915103821793070CF48BC05F
:100A400011E0412E512C2091CE023091CF02E201D3
:100A5000CC0FDD1FC05BDC4F888199818217930723
:100A600044F00894411C511CFEE04F16510459F704
:100A700072C068817981F201EE0FFF1FE25BFC4FCB
:100A800020813181621B730B882777FD8095982F19
:100A90000E94C60E9B01AC010E943F0D3B014C0120
:100AA000E880F9806091CE027091CF02882777FDAF
:100AB0008095982F0E94C60E5B016C010027F7FC01
:100AC0000095102FC801B7010E94C60E7B018C0152
:100AD000B201882777FD8095982F0E94C60E20E0EE
:100AE00030E040E05FE30E946C0D20E030E040E049
:100AF00050E00E943F0D9B01AC01C401B3010E9474
:100B00006C0D9B01AC01C801B7010E940E0D9B0149
:100B1000AC01C601B5010E940E0D20E030E040E2BC
:100B200051E40E946C0D0E94240F7B018C01C401D2
:100B3000B3010E94240F9B01AC01C701B9010E94BF
:100B4000E611882777FD8095982F0E94C60E0E9497
:100B5000960B6F3F59F02FEF321641F08091CC0287
:100B60009091CD028091CC029091CD028091D402DF
:100B700080FDB3C000913603109137036091D2021B
:100B800070E080E090E00E94780F000F111F000FCE
:100B9000111F0A521D4FF801608371838283938372
:100BA00000913603109137036091D30270E080E02A
:100BB00090E00E94780F000F111F000F111F0A51C3
:100BC0001D4FF80160837183828393830091360304
:100BD000109137036091D40270E080E090E00E94B1
:100BE000780F000F111F000F111F0A501D4FF80141
:100BF000608371838283938300913603109137035E
:100C00006091CE027091CF02882777FD8095982F52
:100C10000E94C60E000F111F000F111F0A5F1C4F0C
:100C2000F80160837183828393830091360310916E
:100C300037036091CC027091CD02882777FD8095B3
:100C4000982F0E94C60E000F111F000F111F0A5E81
:100C50001C4FF8016083718382839383E091360394
:100C6000F0913703EE0FFF1FEE0FFF1FEA5DFC4F01
:100C700080E090E0A0E8BFE380839183A283B38308
:100C800080913603909137030196909337038093B8
:100C9000360380913603909137030497F1F4109254
:100CA00037031092360319C080E091E00E94DA0009
:100CB0008091D20290E00E9449038091D30290E09B
:100CC0000E9449038091D40290E00E9449038091E0
:100CD000D50290E00E9449039BC08091D40280FF1E
:100CE00097C08091D302882309F092C08091D202EC
:100CF000893008F08DC020919E0130919F01809134
:100D0000D20290E02817390709F482C08091D202FC
:100D1000833009F468C040E050E01FC0FA01EE0FD4
:100D2000FF1FE857FC4F208131818091D20290E073
:100D30002817390781F010928903109288031092C6
:100D40008B0310928A0310928D0310928C031092E1
:100D5000BF021092BE024F5F5F4F8091BE02909122
:100D6000BF0248175907D4F28091BE029091BF028A
:100D70000397B4F4E091BE02F091BF028091D202D9
:100D800090E0EE0FFF1FE857FC4F91838083809126
:100D9000BE029091BF0201969093BF028093BE0263
:100DA0008091BE029091BF020397E9F48091D20234
:100DB00090E090939F0180939E0181E090E090935A
:100DC0009D0180939C0110928903109288031092D8
:100DD0008B0310928A0310928D0310928C03109251
:100DE000BF021092BE028091D202833089F421E0CA
:100DF00030E03093B3022093B2028091D20290E0AF
:100E000090939F0180939E0130939D0120939C01BC
:100E100091E090937C0083EB80937A0090937B0029
:100E20001092B5021092B4021092D1021092D20226
:100E30001092D3021092D4021092D5021092810027
:100E400010928500109284008091BA029091BB02AA
:100E50000C969093BB028093BA0285E085BD1092F8
:100E6000D002FF91EF91DF91CF91BF91AF919F9110
:100E70008F917F916F915F914F913F912F911F9132
:100E80000F91FF90EF90DF90CF90BF90AF909F9029
:100E90008F907F906F905F904F903F900F900FBE1C
:100EA0000F901F9018956F927F928F929F92AF92A2
:100EB000BF92CF92DF92EF92FF920F931F93CF9347
:100EC000DF93109289031092880310928B03109283
:100ED0008A0310928D0310928C0380E090E0A0E0D2
:100EE000B0E08093260390932703A0932803B09348
:100EF000290380932A0390932B03A0932C03B09390
:100F00002D0380932E0390932F03A0933003B0936F
:100F100031038093320390933303A0933403B0934F
:100F2000350314B815B817B818B81AB81BB8529AC0
:100F30005A9A81E090E00E94C61280936600519A0E
:100F400081E090E09093C5008093C4001092C000AF
:100F50008091C10088608093C1008091C20086604A
:100F60008093C2008CE091E00E94DA00539A239AA9
:100F70008091B000816A8093B0008091B10082605E
:100F80008093B1001092B4001092B30080B78B60D0
:100F900080BF83E080937F0010927C0083EC80937D
:100FA0007A001092800081E08093810092E090931B
:100FB0006F0082E3809389001092880014BC85E062
:100FC00085BD90936E008FEF87BDCC24DD24C0E2F9
:100FD000D0E0CE010E94C61290E08601000F111FE2
:100FE000005B1C4FF8019183808380819181982F51
:100FF000882791838083E080F180CE0101960E9452
:10100000C612E80EF11CF801F182E0820894C11CBE
:10101000D11C2296FEE0CF16D104D9F6CC24DD24D3
:10102000C0E5D0E0CE010E94C61290E08601000F1C
:10103000111F04591C4FF801918380838081918195
:10104000982F882791838083E080F180CE010196DC
:101050000E94C612E80EF11CF801F182E0820894A9
:10106000C11CD11C2296FEE0CF16D104D9F680E92E
:1010700090E00E94C6128093B60287E191E00E9440
:10108000DA008CE291E00E94DA0087E191E00E94B0
:10109000DA0081E491E00E94DA00C0E0D0E0FE01D5
:1010A000EE0FFF1FE05BFC4F808191810E9449039E
:1010B0002196CE30D10599F787E191E00E94DA00C0
:1010C00084E591E00E94DA00C0E0D0E0FE01EE0F7E
:1010D000FF1FE459FC4F808191810E9449032196B2
:1010E000CE30D10599F787E191E00E94DA0088E6D9
:1010F00091E00E94DA008091B60290E00E944903DC
:1011000084E791E00E94DA0081E891E00E94DA0031
:101110008091660090E00E94490384E791E00E947C
:10112000DA008DE891E00E94DA0084E791E00E9405
:10113000DA0081E060E040E00E94C50288EB9BE0BD
:1011400028EC30E0F9013197F1F70197D9F780E009
:1011500061E040E00E94C50288EB9BE028EC30E0B3
:10116000F9013197F1F70197D9F780E060E041E0AC
:101170000E94C50288EB9BE028EC30E0F901319732
:10118000F1F70197D9F780E060E040E00E94C502E6
:1011900010929B01789480E090E0A0E0B0E0809312
:1011A000260390932703A0932803B09329038093E9
:1011B0002A0390932B03A0932C03B0932D038093C9
:1011C0002E0390932F03A0933003B09331038093A9
:1011D000320390933303A0933403B0933503BB24BD
:1011E000B39425E0A22E00E2802E0EE4902E18EC9F
:1011F000612E712C6C017D0180919C0190919D016B
:10120000019709F0C6C01092B702789410929D0120
:1012100010929C0180919E0190919F01019751F441
:101220001092B4001092B3005C9810929B0115BC10
:101230000C94003880919E0190919F01029741F497
:1012400010929B011092B3021092B2020E946E02A1
:1012500080919E0190919F01039731F080919E01B2
:1012600090919F01049749F580E060E040E00E9482
:10127000C5021092B4001092B3005C9810929B01CA
:1012800014C087E067E040E00E94C502C4010197F6
:10129000F1F780E060E040E00E94C50280E197E263
:1012A000F3013197F1F70197D9F780919C01909163
:1012B0009D01892B31F3B0929B0180919E01909109
:1012C0009F01059779F51092B4001092B3005C98D5
:1012D00015BC10929B011DC00E943702815991409C
:1012E00014F080E00FC00E9437028758914024F02C
:1012F00080E060E047E00BC00E9437028F559140CC
:101300001CF087E067E002C087E060E040E00E94F8
:10131000C50280919C0190919D01892BE9F2B092C8
:101320009B01A5BC80919E0190919F01069721F49D
:10133000B0929B01B092B70280919E0190919F0163
:101340000797A1F41092B4001092B3005C9815BCFA
:1013500010929B0102C00E94EB0280919C0190912F
:101360009D01892BC1F3B0929B01A5BC80919E0188
:1013700090919F01089769F4F89428E088E190E043
:101380000FB6F894A895809360000FBE209360007C
:10139000FFCF8091B702813009F02ECF80939B015F
:1013A000C0913603D0913703C0924C03D0924D03C5
:1013B000E0924E03F0924F0300E010E0209719F402
:1013C000C3E0D0E001C02197FE01EE0FFF1FEE0F3A
:1013D000FF1FEA5DFC4F608171818281938120E073
:1013E00030E040E85FE30E94660E882309F074C095
:1013F000F894FE01EE0FFF1FEE0FFF1FEA52FD4FA4
:1014000080819181A281B3818093380390933903C5
:10141000A0933A03B0933B03FE01EE0FFF1FEE0FC4
:10142000FF1FEA51FD4F80819181A281B38180939A
:101430003C0390933D03A0933E03B0933F03FE0112
:10144000EE0FFF1FEE0FFF1FEA50FD4F80819181CD
:10145000A281B3818093400390934103A093420300
:10146000B0934303FE01EE0FFF1FEE0FFF1FEA5F75
:10147000FC4F80819181A281B3818093440390933A
:101480004503A0934603B0934703CC0FDD1FCC0F59
:10149000DD1FFE01EA5EFC4F80819181A281B38154
:1014A0008093480390934903A0934A03B0934B035E
:1014B000789480E090E0A0E8BFE380934C039093A1
:1014C0004D03A0934E03B0934F03CA5DDC4FC88217
:1014D000D982EA82FB8206C00F5F1F4F04301105DC
:1014E00009F06CCF60914C0370914D0380914E03D5
:1014F00090914F0320E030E040E85FE30E94660EE9
:10150000882309F079CE83E063E043E00E94C502BE
:101510006091440370914503809146039091470385
:101520000E94240FDC01CB010E9449036091480313
:101530007091490380914A0390914B030E94240FBC
:10154000DC01CB010E94490384E791E00E94DA00AC
:1015500080E060E040E00E94C5024ECE1F920F92F4
:101560000FB60F921124EF92FF920F931F932F93B8
:101570003F934F935F936F937F938F939F93AF931B
:10158000BF93EF93FF932091C0023091C1028091ED
:10159000BA029091BB02820F931F9093C102809375
:1015A000C0022091BA023091BB028091CA02909190
:1015B000CB02820F931F9093CB028093CA0220919B
:1015C000C2023091C3028091BA029091BB02820F95
:1015D000931F9093C3028093C202E090C402F090E4
:1015E000C5020091C6021091C7026091BA027091C3
:1015F000BB02882777FD8095982F0E94C60E9B011D
:10160000AC01C801B7010E943F0D6093C402709302
:10161000C5028093C6029093C7022091C802309100
:10162000C9028091BA029091BB0264E670E00E9408
:10163000E611260F371F3093C9022093C80280910C
:10164000C8029091C90281509D4720F01092C902B2
:101650001092C8028FEF90E09093BB028093BA0281
:101660008FEF87BD8091C0029091C102895E934047
:101670006CF180919B01813049F58091B402909189
:10168000B502892BA1F48091A2016091A301409140
:10169000A40190E070E050E00E94FB00009739F058
:1016A000019729F41092C1021092C0020FC00E944B
:1016B00095126FEF70E00E94E6119093BB02809349
:1016C000BA028091BA029091BB0287BD8091CA0292
:1016D0009091CB02885F9840A4F01092CB021092B8
:1016E000CA02109289031092880310928B03109201
:1016F0008A0310928D0310928C031092BF021092F5
:10170000BE02FF91EF91BF91AF919F918F917F9119
:101710006F915F914F913F912F911F910F91FF908A
:10172000EF900F900FBE0F901F901895EF92FF92C1
:101730000F931F937B018C0120E030E040E05FE4D9
:101740000E94960E88238CF0C801B70120E030E09B
:1017500040E05FE40E940E0D0E94240F9B01AC014B
:10176000205030404040504806C0C801B7010E9498
:10177000240F9B01AC01B901CA011F910F91FF9089
:10178000EF900895A0E0B0E0E8ECFBE00C940D12BF
:10179000DC012B01FA019C91923008F439C1EB0174
:1017A0008881823008F433C1943069F4843009F0C0
:1017B0002FC111969C9111978981981709F428C11E
:1017C000A5EAB1E025C1843009F421C18230A9F431
:1017D000923009F01DC19A01AD0188E0EA0109903B
:1017E000AE01E90109929E018150C1F7E2018981B0
:1017F00011969C918923818308C1923009F407C115
:1018000012962D903C901397EB018A819B81149640
:10181000AD90BD90CD90DC901797EC80FD800E814F
:101820001F819101281B390BB90137FF04C06627BE
:101830007727621B730B603271050CF061C01216C2
:1018400013066CF537014801062E04C09694879460
:10185000779467940A94D2F721E030E040E050E0BA
:1018600004C0220F331F441F551F6A95D2F7215021
:101870003040404050402E213F214023512321152C
:1018800031054105510521F021E030E040E050E014
:1018900079018A01E628F728082919293CC0232B59
:1018A000D1F1260E371E35014601062E04C096944E
:1018B0008794779467940A94D2F721E030E040E06F
:1018C00050E004C0220F331F441F551F6A95D2F702
:1018D00021503040404050402A213B214C215D2185
:1018E000211531054105510521F021E030E040E0AE
:1018F00050E059016A01A628B728C828D9280BC08A
:10190000821593052CF01C01AA24BB24650103C099
:10191000EE24FF24870111969C91D20111968C919F
:10192000981709F445C0992339F0A80197012A199D
:101930003B094C095D0906C0A60195012E193F0916
:10194000400B510B57FD08C0118233822282248341
:101950003583468357831DC081E081833382228291
:1019600088279927DC01821B930BA40BB50B84837A
:101970009583A683B7830DC0220F331F441F551FC5
:101980002483358346835783828193810197938390
:1019900082832481358146815781DA01C90101970B
:1019A000A109B1098F5F9F4FAF4FBF4328F30BC011
:1019B000918333822282EA0CFB1C0C1D1D1DE482E4
:1019C000F5820683178383E08083248135814681F5
:1019D000578157FF1AC0C901AA2797FDA095BA2FB2
:1019E00081709070A070B070569547953795279587
:1019F000822B932BA42BB52B84839583A683B7834B
:101A000082819381019693838283DF0101C0D20199
:101A1000CD01CDB7DEB7E2E10C942912A0E2B0E02F
:101A2000E4E1FDE00C94191269837A838B839C8333
:101A30002D833E834F835887E9E0EE2EF12CEC0E88
:101A4000FD1ECE010196B7010E9415118E010F5E99
:101A50001F4FCE010596B8010E9415118A8991E0A9
:101A600089278A8BC701B801AE01475E5F4F0E948C
:101A7000C20B0E944010A096E6E00C943512A0E242
:101A8000B0E0E5E4FDE00C94191269837A838B835E
:101A90009C832D833E834F835887F9E0EF2EF12CF2
:101AA000EC0EFD1ECE010196B7010E9415118E01AC
:101AB0000F5E1F4FCE010596B8010E941511C70198
:101AC000B801AE01475E5F4F0E94C20B0E944010FA
:101AD000A096E6E00C943512A0E2B0E0E2E7FDE06B
:101AE0000C940D1269837A838B839C832D833E83B0
:101AF0004F835887CE010196BE01675F7F4F0E94DA
:101B00001511CE010596BE016F5E7F4F0E94151123
:101B10009985923088F089898230C8F0943019F420
:101B2000823051F404C0843029F4923081F485EA83
:101B300091E0C6C0923049F420E09A858A899813D2
:101B400021E02A87CE010996BBC0823049F420E00B
:101B50009A858A89981321E02A8BCE014196B0C0DC
:101B60002D843E844F8458886D887E888F88988C19
:101B7000EE24FF248701AA24BB24650140E050E045
:101B800060E070E0E0E0F0E0C10181709070892BCE
:101B9000E9F0E60CF71C081D191D9A01AB012A0D8E
:101BA0003B1D4C1D5D1D80E090E0A0E0B0E0E61420
:101BB000F7040805190520F481E090E0A0E0B0E00A
:101BC000BA01A901480F591F6A1F7B1FAA0CBB1C31
:101BD000CC1CDD1C97FE08C081E090E0A0E0B0E0E6
:101BE000A82AB92ACA2ADB2A3196E032F10549F03F
:101BF000660C771C881C991C56944794379427943C
:101C0000C3CFFA85EA892B893C898B859C85280F6F
:101C1000391F2E5F3F4F17C0CA0181709070892B0A
:101C200061F016950795F794E79480E090E0A0E0C6
:101C3000B0E8E82AF92A0A2B1B2B76956795579569
:101C400047952F5F3F4F77FDE7CF0CC0440F551FDF
:101C5000661F771F17FD4160EE0CFF1C001F111F50
:101C600021503040403090E0590790E0690790E4FF
:101C7000790760F32B8F3C8FDB01CA018F7790705F
:101C8000A070B07080349105A105B10561F447FDE5
:101C90000AC0E114F1040105110529F0405C5F4F11
:101CA0006F4F7F4F40781A8EFE1711F081E08A8FB8
:101CB0004D8F5E8F6F8F78A383E0898FCE01499619
:101CC0000E944010A096E2E10C942912A8E1B0E035
:101CD000ECE6FEE00C94191269837A838B839C8373
:101CE0002D833E834F83588789E0E82EF12CEC0E3C
:101CF000FD1ECE010196B7010E9415118E010F5EE7
:101D00001F4FCE010596B8010E94151189858230BA
:101D100040F08989823028F0C701B8010E948D11F6
:101D200001C081E06896E6E00C943512A8E1B0E0CD
:101D3000ECE9FEE00C94191269837A838B839C830F
:101D40002D833E834F83588789E0E82EF12CEC0EDB
:101D5000FD1ECE010196B7010E9415118E010F5E86
:101D60001F4FCE010596B8010E941511898582305A
:101D700040F08989823028F0C701B8010E948D1196
:101D800001C08FEF6896E6E00C943512A8E0B0E051
:101D9000ECECFEE00C9416129B01AC0183E089830D
:101DA000DA01C9018827B7FD83959927AA27BB27A0
:101DB000B82E211531054105510519F482E08983BA
:101DC0003AC08823A9F0203080E0380780E0480737
:101DD00080E8580729F460E070E080E09FEC30C0B4
:101DE000EE24FF248701E21AF30A040B150B02C04C
:101DF00079018A018EE1C82ED12CDC82CB82ED8262
:101E0000FE820F831887C801B7010E94F10F019766
:101E10001816190684F4082E04C0EE0CFF1C001FCF
:101E2000111F0A94D2F7ED82FE820F831887C81A19
:101E3000D90ADC82CB82BA82CE0101960E94401080
:101E40002896E9E00C943212ACE0B0E0EAE2FFE060
:101E50000C941D1269837A838B839C83CE01019637
:101E6000BE016B5F7F4F0E9415118D81823061F141
:101E7000823050F1843021F48E81882351F12EC0BC
:101E80002F81388537FD20C06E812F3131051CF040
:101E90006623F9F023C08EE190E0821B930B298525
:101EA0003A854B855C8504C05695479537952795AF
:101EB0008A95D2F76623B1F05095409530952195DB
:101EC0003F4F4F4F5F4F0EC020E030E040E050E00A
:101ED00009C02FEF3FEF4FEF5FE704C020E030E095
:101EE00040E050E8B901CA012C96E2E00C943912A6
:101EF000A8E0B0E0EEE7FFE00C9415127B018C0146
:101F0000611571058105910519F482E0898360C02E
:101F100083E089838EE1C82ED12CDC82CB82ED82D6
:101F2000FE820F831887C801B7010E94F10FFC01E0
:101F30003197F7FF3BC0222733272E1B3F0B57015A
:101F40006801022E04C0D694C794B794A7940A944B
:101F5000D2F740E050E060E070E081E090E0A0E087
:101F6000B0E004C0880F991FAA1FBB1F2A95D2F7A3
:101F70000197A109B1098E219F21A023B1230097C8
:101F8000A105B10521F041E050E060E070E04A2990
:101F90005B296C297D294D835E836F8378878EE171
:101FA00090E08E1B9F0B9C838B8312C0309781F037
:101FB0000E2E04C0EE0CFF1C001F111F0A94D2F756
:101FC000ED82FE820F831887CE1ADF0ADC82CB8275
:101FD0001A82CE0101960E9440102896EAE00C94E5
:101FE0003112EF92FF920F931F937B018C0180E0DF
:101FF000E81680E0F80681E0080780E0180788F41A
:102000008FEFE816F1040105110531F028F088E0A2
:1020100090E0A0E0B0E017C080E090E0A0E0B0E089
:1020200012C080E0E81680E0F80680E0080781E052
:10203000180728F088E190E0A0E0B0E004C080E15B
:1020400090E0A0E0B0E020E230E040E050E0281B6B
:10205000390B4A0B5B0B04C016950795F794E79470
:102060008A95D2F7F701E355FE4F8081281B31098D
:1020700041095109C9011F910F91FF90EF900895F7
:10208000DF92EF92FF920F931F93FC01E480F580A3
:1020900006811781D1808081823048F480E090E011
:1020A000A0E1B0E0E82AF92A0A2B1B2BA5C0843056
:1020B00009F49FC0823021F4EE24FF24870105C07B
:1020C000E114F1040105110519F4E0E0F0E096C017
:1020D000628173819FEF623879070CF05BC022E860
:1020E0003FEF261B370B2A3131052CF020E030E082
:1020F00040E050E02AC0B801A701022E04C0769546
:102100006795579547950A94D2F781E090E0A0E053
:10211000B0E004C0880F991FAA1FBB1F2A95D2F7F1
:102120000197A109B1098E219F21A023B123009716
:10213000A105B10521F081E090E0A0E0B0E09A01B6
:10214000AB01282B392B4A2B5B2BDA01C9018F7786
:102150009070A070B07080349105A105B10539F47C
:1021600027FF09C0205C3F4F4F4F5F4F04C0215CE9
:102170003F4F4F4F5F4FE0E0F0E02030A0E03A07E4
:10218000A0E04A07A0E45A0710F0E1E0F0E079018E
:102190008A0127C06038710564F5FB01E158FF4FE3
:1021A000D801C7018F779070A070B070803491050E
:1021B000A105B10539F4E7FE0DC080E490E0A0E090
:1021C000B0E004C08FE390E0A0E0B0E0E80EF91EBC
:1021D0000A1F1B1F17FF05C016950795F794E79474
:1021E000319687E016950795F794E7948A95D1F78D
:1021F00005C0EE24FF248701EFEFF0E06E2F679516
:1022000066276795902F9F77D794DD24D7948E2FDC
:102210008695492F462B582F5D29B701CA011F917A
:102220000F91FF90EF90DF900895FC01DB0140815A
:1022300051812281622F6F7770E0221F2227221F97
:102240009381892F880F822B282F30E0991F99279F
:10225000991F11969C93119721153105A9F54115E8
:1022600051056105710511F482E037C082E89FEFE6
:1022700013969C938E9312979A01AB0167E0220FFD
:10228000331F441F551F6A95D1F783E08C930DC00F
:10229000220F331F441F551F12968D919C91139747
:1022A000019713969C938E931297203080E0380705
:1022B00080E0480780E4580758F314962D933D9327
:1022C0004D935C93179708952F3F310579F441158D
:1022D00051056105710519F484E08C93089564FF3C
:1022E00003C081E08C9312C01C9210C02F57304065
:1022F00013963C932E93129783E08C9387E0440FC0
:10230000551F661F771F8A95D1F7706414964D93F9
:102310005D936D937C93179708951F93DC01FB01E8
:102320009C91923008F447C08081823008F443C009
:10233000943051F411961C91843099F58181682F65
:1023400070E0611B71093FC0843021F0923031F49C
:102350008230B9F18181882389F12DC011961C91B9
:1023600011978230F1F081811817D9F412962D91CE
:102370003C911397828193818217930794F02817D9
:102380003907BCF014968D919D910D90BC91A02DB4
:102390002481358146815781281739074A075B0711
:1023A00018F4112341F00AC082179307A407B50758
:1023B00040F4112319F061E070E005C06FEF7FEF8A
:1023C00002C060E070E0CB011F91089597FB092ED9
:1023D00007260AD077FD04D00CD006D000201AF4CE
:1023E000709561957F4F0895F6F7909581959F4F71
:1023F0000895AA1BBB1B51E107C0AA1FBB1FA6174C
:10240000B70710F0A61BB70B881F991F5A95A9F79D
:1024100080959095BC01CD0108952F923F924F92E7
:102420005F926F927F928F929F92AF92BF92CF9264
:10243000DF92EF92FF920F931F93CF93DF93CDB76D
:10244000DEB7CA1BDB0B0FB6F894DEBF0FBECDBFE5
:1024500009942A88398848885F846E847D848C84B6
:102460009B84AA84B984C884DF80EE80FD800C81BF
:102470001B81AA81B981CE0FD11D0FB6F894DEBFA2
:102480000FBECDBFED010895A0E0B0E0EAE4F2E1B7
:102490000C941512EC01A880B980CA80DB80A114CD
:1024A000B104C104D10441F484E2A82E89EDB82E10
:1024B0008BE5C82E87E0D82EC601B5012DE133EF9C
:1024C00041E050E00E94FD1227EA31E440E050E094
:1024D0000E94DE127B018C01C601B5012DE133EFB4
:1024E00041E050E00E94FD12CA01B9012CEE34EF28
:1024F0004FEF5FEF0E94DE126E0D7F1D801F911F58
:1025000097FF04C061507040804090486883798391
:102510008A839B839B013F77C901CDB7DEB7EAE091
:102520000C9431120E94441208958DEA92E00E94A8
:1025300044120895A0E0B0E08093AD029093AE0203
:10254000A093AF02B093B0020895FB019F01E894FD
:102550004230C4F04532B4F44A3029F497FB1EF4FB
:10256000909581959F4F642F77270E94F911805D88
:102570008A330CF0895D8193CB010097A1F716F4A3
:102580005DE251931082C9010C94CE12F999FECFED
:1025900092BD81BDF89A992780B50895DC01FC01B0
:1025A000672F71917723E1F7329704C07C916D9387
:1025B00070836291AE17BF07C8F30895629FD00180
:1025C000739FF001829FE00DF11D649FE00DF11DEE
:1025D000929FF00D839FF00D749FF00D659FF00D9D
:1025E0009927729FB00DE11DF91F639FB00DE11D8A
:1025F000F91FBD01CF011124089597FB092E05266F
:102600000ED057FD04D014D00AD0001C38F45095D9
:102610004095309521953F4F4F4F5F4F0895F6F706
:1026200090958095709561957F4F8F4F9F4F08953E
:10263000A1E21A2EAA1BBB1BFD010DC0AA1FBB1FC6
:10264000EE1FFF1FA217B307E407F50720F0A21B38
:10265000B30BE40BF50B661F771F881F991F1A94A5
:1026600069F760957095809590959B01AC01BD01CF
:08267000CF010895F894FFCF9B
:10267800626164636865636B202020007374617213
:102688007420696E697400202020202020202020DA
:1026980020202020202020202020200043616C6959
:1026A80062726174696F6E206461746120202020F9
:1026B800006C6F77206761696E2020202020202021
:1026C8002020200068696768206761696E202020E3
:1026D800202020202020200074786D61736B20203A
:1026E8002020200020202020202020202020202002
:1026F800004F534343414C20202020200070726F2C
:102708006772616D207374617274000101000300C7
:102718000100C8C8C8000000000000000000010255
:102728000203030303040404040404040405050564
:10273800050505050505050505050505050606063E
:102748000606060606060606060606060606060621
:10275800060606060606060606060606060707070E
:1027680007070707070707070707070707070707F1
:1027780007070707070707070707070707070707E1
:1027880007070707070707070707070707070707D1
:1027980007070707070707070707070707080808BE
:1027A80008080808080808080808080808080808A1
:1027B8000808080808080808080808080808080891
:1027C8000808080808080808080808080808080881
:1027D8000808080808080808080808080808080871
:1027E8000808080808080808080808080808080861
:1027F8000808080808080808080808080808080851
:102808000808080808080808080808080808080840
:102818000808080808080808080808080801000047
:022828000000AE
:107000000C9434380C9446380C9446380C9446381A
:107010000C9446380C9446380C9446380C944638F8
:107020000C9446380C9446380C9446380C944638E8
:107030000C9446380C9446380C9446380C944638D8
:107040000C9446380C9446380C944A3B0C944638C1
:107050000C9446380C9446380C9446380C944638B8
:107060000C9446380C94463811241FBECFEFD8E05C
:10707000DEBFCDBF11E0A0E0B1E001C01D92A6309F
:10708000B107E1F70E943B390C94603B0C94003847
:10709000F894E1ECF0E0808188698083E2ECF0E034
:1070A00080818660808389E190E09093C500809321
:1070B000C40078940895CF92DF92EF92FF920F93DD
:1070C0001F93DF93CF93CDB7DEB72C970FB6F8940D
:1070D000DEBF0FBECDBF7894539A89836A834B83FA
:1070E0008058860F840F8C836E010894C11CD11CBC
:1070F000DE0115968D017D01F60161916F0170E051
:107100009B0120723070F3E035952795FA95E1F7F1
:10711000CB018071907095958795280F391FCB0111
:107120008074907055E0959587955A95E1F7280FF2
:10713000391FCB01880F892F881F990B9195280F34
:10714000391FCB0181709070880F991F880F991F8C
:10715000AB0142705070840F951F880F991F880FE4
:10716000991FAB0144705070840F951F880F991FB1
:10717000880F991F68707070860F971F880F991F6E
:10718000280F391F220F331F2F5F3F4FF801219324
:1071900031938F01CE14DF0409F0AECFF8948091C3
:1071A000040190910501892B09F042C05B9A00000F
:1071B00000005B9880E090E0000001968533910527
:1071C000D9F780E090E000B605FE01C0000000B6EF
:1071D00005FE01C000000196813C9105A1F71FC08A
:1071E00020FF04C05B9A0000000003C05B98000011
:1071F00000005B9880E090E00000019683329105EA
:10720000D9F73695279541505040FFEF4F3F5F0724
:1072100039F72D933D93A617B70721F40EC0BE0191
:10722000635F7F4F2D913C91119748E050E0D8CF9C
:107230005B98789425E030E00EC05B9880E090E0A9
:107240000000019682339105D9F780B7806180BF35
:10725000789421E030E0C9012C960FB6F894DEBF97
:107260000FBECDBFCF91DF911F910F91FF90EF9097
:10727000DF90CF9008952F923F925F926F927F920E
:107280008F929F92AF92BF92CF92DF92EF92FF9236
:107290000F931F93CF93DF9386E084B98CE08AB974
:1072A0005B9881E085BF82E085BF0E944838299ABB
:1072B0005A9A80ED97E028EC30E0F9013197F1F728
:1072C0000197D9F729985A9880ED97E028EC30E09B
:1072D000F9013197F1F70197D9F7299A5A9A80ED78
:1072E00097E028EC30E0F9013197F1F70197D9F7F1
:1072F00029985A98209000013090010104E0502E06
:1073000010ED612E17E0712E809102019091030122
:10731000892BD1F38091020190910301813691056F
:1073200009F07DC010920301109202015BB8C0E029
:10733000D0E081E090E060E070E041E050E00E9449
:107340005B3880E197E20197F1F72196C436D105C9
:1073500081F75A9880E49CE9E8ECF0E03197F1F786
:107360000197D1F780E49CE9E8ECF0E03197F1F780
:107370000197D1F74BC0F894AA24BB24C0E0D0E019
:10738000C50160E070E04AEF50E00E945B38C30145
:107390000197F1F76501B0E88B2E912C8C0E9D1EA4
:1073A000FE01E490FF242196FE01049110E0C70144
:1073B000B80140E050E00E945B38E00EF11ECE0CB8
:1073C000DF1C2196C815D90559F7C3010197F1F7BC
:1073D0008D2D90E06C2D70E04EEF50E00E945B38F8
:1073E00078945BB880E29EE40197F1F75A98809117
:1073F000020190910301892B49F4F8940894A11C8F
:10740000B11CFCEDAF16B10409F0BACF80910201B6
:1074100090910301892B09F4AECF789475CF8091B8
:1074200002019091030182369105F1F4109203015B
:1074300010920201C0E0D0E05BB882E090E060E032
:1074400070E041E050E00E945B38789480E797E17B
:107450000197F1F75A9880EA9FE00197F1F721969A
:10746000C436D10549F750CF8091020190910301B4
:1074700083369105E9F4109203011092020111C0C4
:107480005BB883E090E060E070E041E050E00E9493
:107490005B387894C3010197F1F75A98C3010197BB
:1074A000F1F78091020190910301892B49F32CCFD0
:1074B000809102019091030184369105E9F41092C4
:1074C00003011092020111C05BB884E090E060E01B
:1074D00070E041E050E00E945B387894C30101976E
:1074E000F1F75A98C3010197F1F780910201909149
:1074F0000301892B49F308CF809102019091030188
:1075000085369105F1F41092030110920201C0E05A
:10751000D0E05BB885E090E060E070E041E050E0F2
:107520000E945B38789480E797E10197F1F75A98C9
:1075300080EA9FE00197F1F72196C436D10549F71B
:10754000E3CE809102019091030186369105E1F42A
:107550001092030110920201C0E0D0E05BB886E017
:1075600090E060E070E041E050E00E945B38789489
:10757000C3010197F1F75A98C3010197F1F72196DA
:10758000CA30D10559F7C0CE809102019091030114
:1075900087369105F1F41092030110920201C0E0C8
:1075A000D0E05BB887E090E060E070E041E050E060
:1075B0000E945B38789480E29EE40197F1F75A9834
:1075C00080EA9FE00197F1F72196C436D10549F78B
:1075D0009BCE80910201909103018936910579F447
:1075E0001092030110920201232829F45BB8A1E054
:1075F0002A2E312C89CE5A982224332485CE80918C
:107600000201909103018A369105F1F41092030171
:107610001092020112C05BB881E090E060E070E07F
:1076200041E050E00E945B38789480E197E2019756
:10763000F1F75A98C3010197F1F7809102019091F7
:107640000301892B41F360CE8091020190910301E7
:107650008A37910509F058CE109203011092020169
:10766000C0E0D0E05BB888E090E060E070E041E02E
:1076700050E00E945B38789480E29EE40197F1F735
:107680005A9880EA9FE00197F1F72196C436D10518
:1076900049F73ACE1F920F920FB60F9211248F9393
:1076A0009F938091C60090E0909303018093020124
:1076B000299A9F918F910F900FBE0F901F90189550
:0476C000F894FFCF6C
:040000030000700089
:00000001FF

